:020000040000FA
:1000000030012020D5000000D9000000DB000000F6
:1000100000000000000000000000000000000000E0
:10002000000000000000000000000000DD000000F3
:100030000000000000000000DF000000E90E0000EA
:10004000E3000000E3000000E3000000E300000024
:10005000E3000000E3000000E3000000E300000014
:1000600000000000E3000000E300000000000000CA
:1000700000000000E3000000E3000000F10E0000BB
:10008000E3000000E3000000E3000000E3000000E4
:10009000E3000000E300000000000000000000009A
:1000A000E3000000E300000000000000000000008A
:1000B000E300000000000000E3000000E300000097
:1000C0000348854600F028FA004800476110000008
:1000D0003001202003480047FEE7FEE7FEE7FEE789
:1000E000FEE7FEE7C100000070B50446002903D01A
:1000F00000202022012310E0002801D00020C0436E
:10010000C046C0460DE02546D5408D4205D30D467C
:100110009540641B1D46954040191546521E002D02
:10012000F1DC214670BDF0B51FB40646002082B058
:1001300005464024019100901BE0019922460F469C
:10014000304600F011FA049A059B801A994110D3A9
:1001500010461946224600F0F7F9361A8F410197EA
:10016000224601200021009F00F0EEF938184D4191
:1001700000902046641E0028DFDC019B0098294681
:10018000324607B0F0BD0000F0B5074608465840BB
:1001900087B0C00F049048000E4659004008490837
:1001A000BC1A884105D2384631461E4617460B46D2
:1001B00002465800400810434CD0300D03904005D3
:1001C0005900400D490D0590401A0290402872DAFE
:1001D00018030121000B09050843019004980092BF
:1001E000002805D0019952420020884100920190D8
:1001F000029840210A1A0199009800F0A5F90546D5
:100200000C466B4607CB00F0C0F9C0197141039A48
:100210000E0D0023D71756401A467A40164344D095
:10022000049A002A2DD0029A012A039A15DC12059D
:10023000C01A914101263605001C7141D20F059E5E
:10024000D2070093019202962A46234600F0BDF998
:1002500007B0F0BD38463146FAE71605224A0F4688
:10026000B218C01AB74101210905001C4F410018FE
:100270007F41114618187941E20F10436D1964410E
:1002800013E0E2076D0815436408C2071443039A9C
:1002900001261205C01A91413605001C7141CE0796
:1002A000400830434908C01851412A46234600F00F
:1002B0007FF9CDE7FFE7049801224000C117121A29
:1002C00000238B4104983146C417381AA141EEE748
:1002D00030B40124E407634030BC55E730B4012456
:1002E000E407614030BC4FE70000E0FFF0B51FB409
:1002F00088B00B990998002448400999C00F49001B
:1003000049080991C0070B990090490049080B91D1
:1003100009990898A64608431CD00B990A980843E7
:1003200018D0099801244000420D4800410D099859
:1003300024050003000B204309900B980003000BD9
:1003400020430B9050181C4940180022019014467D
:10035000104605E0002001460DB0F0BD032801DA8B
:10036000034600E003239C46C11A0AAE0AE05F0080
:1003700008ADED5B4F00F75B7D430027AA187C4179
:10038000491C5B1E6145F2DD410004AB5A52210459
:10039000120C0A43240C401C0828DFDB0198029051
:1003A0000099704601910090059B049A0799069860
:1003B00000F00BF9D0E700000DFCFFFFF0B50C4694
:1003C0005C4085B0E40FE40703944C000026640809
:1003D00059009446490802460296224321D06246BB
:1003E0000A431ED06200570D4A000E032303550D29
:1003F000012402462C492405781B1B0B360B4018A0
:1004000023432643614600901C46501AB44103D34F
:100410000098401C009002E0921800985B41002870
:1004200003DA0020014605B0F0BD002001210905D6
:100430000746864611E064461D46141BB54106D3A7
:100440006546521BB341744607430C43A646CD078D
:1004500040084908284392185B4105460D43EAD1FC
:100460001046184313D06046194650407140084367
:1004700006D06046101AB34106D20122002306E0DE
:1004800000220123DB0702E00122D243531000982F
:1004900074460105381C6141029C039D00196941A5
:1004A00000F086F8BFE70000FD0300004A000903E2
:1004B0000123090B1B0519430A4B10B5520D9A4233
:1004C00002DA0020014610BD064B34339A4203DCA9
:1004D0009A1A00F049F810BD034BD21800F034F816
:1004E00010BD0000FF030000CDFBFFFF10B5002989
:1004F00004DB0124E40740428C412146002B04DB4D
:100500001C460123DB075242A341994200D190428D
:1005100010BD0000000000001CB50948009009480B
:10052000019005460126009C05E0E36807CC3343B3
:100530000C3C98471034AC42F7D3FFF7C5FD0000E0
:10054000481A0000681A000010B5202A04DB014692
:10055000203A9140002010BD914020239C1A034670
:10056000E3401943904010BD10B5202A04DB084633
:10057000203AD040002110BD0B46D340D04020246B
:10058000A21A91400843194610BD10B5202A06DB77
:10059000CB170846203A1041C1170B4306E00B4623
:1005A0001341D0402024A21A91400843194610BD9F
:1005B00010B5002B08DA0024401C614192185B4101
:1005C0001A4301D14008400010BDF0B51FB482B0FD
:1005D00005460C0003D0084600F092FD02E000F052
:1005E0008FFD20300246009021462846FFF7ACFFE1
:1005F000049B059A04460F4618431143084314D040
:10060000184610431BD0009840210A1A1846059935
:10061000FFF7AAFF05460E46009A05990498FFF7D2
:1006200093FF084305D0012004E02046394607B077
:10063000F0BD0020C11705430E432C4337430099FA
:100640000E986305401A7905E40A00220C43FD0A5E
:100650000A3002D500200146E9E701051019694179
:100660000C9C0D9D00196941FFF7A2FFDFE7000018
:1006700010B58AB000F04CFC099000F049FC7C49B0
:100680000968401A002801D5FFE7EFE00998143007
:100690007749086000200890FFE70898002800D0FC
:1006A000E4E00898182205924243724806908118A7
:1006B0008058496800F078F9059902460698531E5B
:1006C0009A4107AB1A70089A51434018007CC00742
:1006D000002811D1FFE707A80078C00700280BD138
:1006E000FFE708981821414362484018807D0121A6
:1006F0000840012815D0FFE70898182141435D48BC
:100700004018407D0121084001280AD0FFE70898E1
:100710001821414357484018007DC007002809D0E0
:10072000FFE70898182141435248411800204861CA
:100730000861FFE70898182141434E484018007CA3
:10074000C007002822D1FFE707A80078C0070028CB
:100750001CD0FFE7089918220392104648434549E8
:1007600004910B1801209875089C13466343CB181D
:100770005874089B5A438918C87400F0C9FB039A3F
:100780000499089B5A4389188860FFE70898182144
:10079000414338484018007CC007002818D0FFE7C4
:1007A00007A80078C007002812D1FFE70898182191
:1007B000019141432F48029041180120887400F0B4
:1007C000A7FB019A0299089B5A438918C860FFE762
:1007D00008981821414327484018807DC007002809
:1007E00035D1FFE708981821414322484118C868CD
:1007F0008968884201D1FFE728E008981821414321
:100800001C484118C8688968401A80084A280ED8D0
:10081000FFE7089818210A46424316488318012228
:100820005A75089A514341188868C8600DE00898C5
:1008300018210A4642430F48831801221A75089A64
:10084000514341188868C860FFE7FFE7FFE707A842
:100850000078089918224A43064989180122104055
:100860000874FFE70898401C089016E70AB010BD0E
:10087000200020200400202080B582B00F200190AD
:1008800000F06AFB019800F07DFB02B080BD811E84
:10089000091F00BFFCD2704784B0039002910192FF
:1008A0000398006800900098019988430090009890
:1008B0000299019A114008430399086004B07047F7
:1008C00082B00190009100980199952252018850C0
:1008D00002B0704782B00190009100980199024ADD
:1008E000885002B07047C046D012000081B000901E
:1008F00000990120C202BE48885001B07047C0462E
:1009000010B584B0069C0390029101920093029866
:10091000019908430099084306990843034908438D
:10092000039989001F4A885004B010BD810004005B
:1009300010B584B0069C0390029101920093029836
:100940000199084300990843069908438121084307
:1009500003998900134A885004B010BD81B00090FB
:10096000009881000F4A0020885001B07047C046AF
:1009700082B00190009100980349084301998900D1
:10098000084A885002B070478000040082B001908D
:10099000009100988021084301998900014A8850FC
:1009A00002B070470480424082B0019000910198EB
:1009B0002721C90140580099084002B07047000043
:1009C00081B000900099B14AB148885001B0704799
:1009D00082B00190009100980199024A885002B0BB
:1009E0007047C046B0120000F0B584B00124220266
:1009F000344B19680392914319606A490D686D047C
:100A0000FCD5457E25409E69A64374199C6120242F
:100A1000045D03252C40DE69AE433419DC611F4CB4
:100A2000256805262660466A37681F6276685E621A
:100A300007262E402660C4697F252D02DE69AE435D
:100A40006406640C3419DC610768456882680092AA
:100A5000C66802690192426902929A69104C144078
:100A60003A07120B2D03ADB2AA183243009D2D0791
:100A70002D0D1543019A1543029A1543007E284314
:100A8000084A0240101998611868039A10431860C8
:100A900008688005FCD504B0F0BDC0460013404096
:100AA0008D00F0FF72FF0F00064908680122904395
:100AB00008607047034908680122120290430860E9
:100AC0007047C04608010B4081B00146684601707E
:100AD00000780249086001B07047C04608030B4027
:100AE00080B582B0014601A8018001880F20020272
:100AF0002B48FFF7D1FE02B080BDC046F0B5124BC7
:100B00001D46083D2E680124A6432E6003263603A9
:100B100030401F68B743381818601868FF26B04384
:100B2000C9B2401818602868204328601868210757
:100B3000002A06D0084318601A480168C905FCD588
:100B4000F0BD88431860F0BD10010B4080B582B045
:100B5000014601A80170017802480322FFF79CFEBC
:100B600002B080BD00010B4080B582B0014601A8F3
:100B7000017001780A483022FFF78EFE02B080BD76
:100B800007498860074802689202FCD501221204D6
:100B90000B6813430B600168C906FCD57047C0465B
:100BA00004010B4004020B4081B000900099112019
:100BB0000202885801231843885001B07047000092
:100BC00082B001900091009B0199034A8858184314
:100BD000885002B07047C0462810000081B00090D5
:100BE00000990120C2020248885001B07047C046F7
:100BF0000100002681B000900098812149014058F1
:100C0000C0B201B070470000B0B511221202835883
:100C10000124A34383500B888C781C438B88234387
:100C2000094C1C408358094D1D40631983508B7932
:100C3000CC791C43097A21437E23194080184268ED
:100C40009A4351184160B0BD18670000E798FDFF56
:100C500081B000900098034940580121084001B03C
:100C60007047C0460811000081B00090009802490A
:100C70004058C0B201B070472411000081B000900C
:100C80000099024A0248885001B0704704080000E9
:100C9000030000B180B584B00390029101920398E3
:100CA0000B49401802990B4AFFF7F6FD03980A49D1
:100CB000401801993F22FFF7EFFD0399074A881872
:100CC000895801221140FFF7E7FD04B080BDC046FE
:100CD00010110000FFFF00001411000004110000BB
:100CE00010B50122120383180C789C60497881505A
:100CF00010BD80B582B001900091019811210902C8
:100D0000401800990322D203FFF7C6FD02B080BD50
:100D100082B00190684601700078019989225201E1
:100D2000885002B07047000080B501208105594805
:100D3000FFF74EFE80BDC04680B582B00E49C74861
:100D40000190FFF7CDFF01980C49FFF75DFF019877
:100D50000021FFF7CEFF0198412189001B22FFF7F8
:100D600099FF019801218902FFF72AFF0198FFF7F7
:100D70001BFF02B080BDC046041A0000061A000026
:100D800080B586B00920FFF7E9FD0A20FFF7E6FDF0
:100D9000142002210191FFF7F9FD01991520FFF7B9
:100DA000E7FD002302930093012003900204312009
:100DB0001946FFF7BDFD0299039800918106420490
:100DC000C3043020FFF79CFD03988105059131484D
:100DD0000490FFF775FD04980599FFF77BFD06B0B9
:100DE00080BDC04680B582B000200190FFF76CFE48
:100DF000012000904002FFF773FE0198FFF7A6FE66
:100E0000FFF752FEFFF756FE009A032000030A2167
:100E1000FFF774FE0548FFF7E7FD1020FFF7A4FE7B
:100E20000198FFF7ADFE02B080BDC046101A000069
:100E300080B5024800F030F880BDC046803801001F
:100E400080B500F009F8FFF79BFFFFF7CBFFFFF736
:100E500073FFFFF7EDFF80BD80B584B00C480190B3
:100E6000FFF7AEFD0B480290FFF7AAFD7B48039009
:100E7000FFF704FF0198FFF739FD0298FFF736FDF1
:100E80000398FFF7ABFE1020FFF701FD04B080BD13
:100E900000000A4000200A4080B584B00290029809
:100EA000401E000E002803D0FFE70120039011E050
:100EB0000298401E0949086000200190C0430321A8
:100EC00000F076F8019806490860064A072111608B
:100ED0000390FFE7039804B080BDC04614E000E033
:100EE00018E000E010E000E080B500F015F880BDEB
:100EF00080B55A48FFF77EFE0B2806D1FFE757481A
:100F0000FFF7B2FE6549087000E0FFE780BDC0460C
:100F1000044800687047C04602490868401C0860E1
:100F20007047C0462C00202080B582B0019000910F
:100F30000198002801D1FFE70BE000980078C00776
:100F4000002806D0FFE7019880470099002008702C
:100F5000FFE702B080BD000081B001466846017025
:100F600000214056002809D4FFE7684601781F2079
:100F700001400120884002490860FFE701B0704746
:100F800080E200E081B001466846017000214056D1
:100F9000002809D4FFE7684601781F20014001209E
:100FA000884002490860FFE701B0704700E100E0B7
:100FB00070B582B0024601A802700091002140562F
:100FC000002816D4FFE7002401A908570322D343C1
:100FD0001840174A805809578C07E50EFF24AC408B
:100FE000A043009CA401E4B2AC40204319408850C7
:100FF0001AE001A908780F24204008380322D343BF
:1010000018400A4A8058002549578D07EE0EFF25E3
:10101000B540A843009DAD01EDB2B5402843214045
:10102000083919408850FFE702B070BD1CED00E0A0
:1010300000E400E080B582B001900091FFE707482E
:10104000FFF706FE002801D0FFE7F8E701A80178C6
:101050000248FFF75DFE019802B080BD008010409D
:1010600080B582B000200190FFF7EAFEFFF704FC94
:10107000FFE70A480078312806D1FFE7FFF754FE62
:10108000064900200870FFE7FFF7F2FA00F00CF8BD
:10109000034914310348FFF747FFEAE728002020FF
:1010A00004002020290D000080B582B0FFF730FF3A
:1010B0000190FFF72DFF08490968401A002801D563
:1010C000FFE707E00198323003490860034800F069
:1010D00007F8FFE702B080BD24002020381A000086
:1010E0000FB410B503A9044B044A029800F0EEF8BF
:1010F00010BC08BC04B018473510000000002020C8
:101100002021020C01D010211046020A01D0104605
:101110000839020901D01046091F820801D0104683
:10112000891E420801D0881E7047081A70470000C7
:1011300002E008C8121F08C1002AFAD17047000057
:101140007047000000000000002001E001C1121FF4
:10115000002AFBD170470000F0B51FB486B0099893
:10116000089A030D0021024314D05148514A18181F
:10117000504305141198012810981AD0281A401CC1
:1011800000264D4F4D49009601910490002812DA37
:10119000444211E01198012449A3012801D110987B
:1011A000C1430698119A84600360C26041600BB02D
:1011B000F0BD4042E4E70446210500203F4A001C00
:1011C00051410391029012E0E00707D032463B46BE
:1011D00001990098FFF78AF80191009032463B464A
:1011E00010461946FFF782F806460F466410002C99
:1011F000EAD10498039B0028029A0999089806DA14
:10120000FFF774F8019B009AFFF770F805E0FFF70D
:10121000D5F8019B009AFFF7D1F804460E4600224C
:10122000284BFFF763F903D80020C043014607E0CD
:101230000022254B20463146FEF7A6FFFFF736F980
:10124000102409E0002C0ADB0A220023FEF76BFFC2
:10125000079B30321A55641E02460A43F2D111220E
:10126000641C079B121B1C19119B012B03D001232B
:1012700008430ED10AE0084304D01120109000204A
:10128000119077E71098151A6D1E0BE010988242A6
:1012900002DD00236D1C03E0824201DA00236D1E93
:1012A000002BEED0069811998260C16030C07EE7B5
:1012B00001FCFFFF104D0000000014400000F03F53
:1012C000300000000000F0430000E03FFFB597B0A1
:1012D0000646002518E2252877D100242746FD4937
:1012E000049400E00443761C32780120203A9040B8
:1012F0000842F7D130782A280ED0022230780146F1
:101300003039092916D804990A235943303940182D
:101310001443761C0490F1E7189802C804911890C1
:10132000002904DA012040030443484204900220CB
:101330000443761C30782E2814D10420044370789E
:10134000761C2A2809D11898761C80C8189009E0C4
:101350000A214F43303FC719761C30780146303997
:101360000929F5D930786C2810D006DC4C281AD021
:1013700068280ED06A2817D104E0742813D07A2880
:1013800012D110E00120400504430CE001210905C1
:1013900001E0032109050C437178814203D101204A
:1013A00000052418761C761C3078119066280BD026
:1013B00013DC58287DD009DC00287BD04528F6D0E6
:1013C0004628F4D047281AD1A5E118E0632835D083
:1013D000642870D0652812D19DE170286CD008DC9B
:1013E0006728F1D069287BD06E280DD06F2806D1F0
:1013F000BAE073282ED0752871D0782859D01A9A5F
:10140000199990476D1C7EE16002400F022809D0B7
:1014100003280DD00428189801680DD00D60001D18
:10142000189070E11898EA1701680D604A60F6E7B5
:10143000189801680D80F2E70D70F0E718986A4679
:1014400001781172001D18900020507202A80090BF
:10145000012005E0189802C8189000200091C043B0
:1014600061070DD5002101E00199491C0191B942A4
:1014700012DA8142F8DB009A515C0029F4D10BE0CA
:10148000002101E00199491C01918142FADB019A96
:101490000099895C0029F5D1019904981A9B471A93
:1014A00021463846199A00F097FA019940194518D3
:1014B0000BE04FE02CE113E04EE00098009900783B
:1014C000491C00911A9A199990470198401E019061
:1014D000401CF2D1214638461A9B199A10E137E098
:1014E0000A200021009001916002410F022907D0DB
:1014F000189A01CA1892C2179446032908D00AE024
:101500001898C01DC108C90005C91891944607E084
:1015100000B2C2179446042902D140B2C1178C46CA
:1015200000226146944506DA0A4600214042914174
:101530008C462D2102E0210504D52B216A4611732A
:10154000012103E0E10701D02021F7E7029155E0F6
:101550000A200AE0102008E010200090002104205A
:1015600004430191082703E0082000210191009025
:101570006002410F022907D0189A01CA189200226E
:101580009446032908D008E01898C01DC108C90076
:1015900005C91891944603E080B2042900D1C0B275
:1015A00000210291210729D51199702906D0009AAE
:1015B0001021019B4A401A4305D00EE040216A46A3
:1015C0001173012108E06146014306D030216A46CB
:1015D00011731199517302210291009A0821019B04
:1015E0004A401A430AD16146014301D1610705D53A
:1015F00030216A46117301217F1E029111995829E9
:1016000004D035A10E910DA90D910DE037A1F9E798
:101610006146019B009AFEF786FD0E9B8C469B5C03
:101620000D9A521E0D92137061460143F0D10D9830
:1016300005A9081A20300190600703D50120000495
:10164000844300E001270198874201DD381A00E059
:101650000020019900904118029809180498401A36
:101660000490E00306D421461A9B199A049800F0CE
:10167000B3F94519002706E003A81A9AC05D199925
:1016800090476D1C7F1C02988742F5DBE0030CD568
:1016900021461A9B199A049800F09EF9451904E016
:1016A0001A9A3020199990476D1C0099481E009095
:1016B0000029F5DC08E00D980D990078491C0D9182
:1016C0001A9A199990476D1C0199481E019000299A
:1016D000F1DC63E10928010030313233343536372B
:1016E000383961626364656600000000303132336E
:1016F000343536373839414243444546000000000E
:1017000000F05AF94519761C3078002800D0E2E53F
:1017100028461BB0F0BD600700D406271898C01DEE
:10172000C108C90048680A680831C30FDB0718916F
:10173000190001D09CA108E0210501D59BA104E07E
:10174000E10701D09AA100E09AA1430011985B083B
:10175000109165280CD006DC452809D046281DD0FC
:10176000472841D141E0662818D067283CD13CE0A9
:101770000021112F01DB112000E0781C0191009065
:1017800008A911A8FFF7E8FC139905910021119A07
:1017900015927F1C12980197009150E00120C0071C
:1017A00003900120019008A9009711A8FFF7D4FC2D
:1017B000139A149905920022119B00921298159386
:1017C000059A0192002901D0104602E0791C4018C8
:1017D0000190381A01D5019804E04042401E009063
:1017E000781C0190C01B029043E0012F00DA012712
:1017F0000021112F01DD112000E0384601910090F9
:1018000008A911A8FFF7A8FC13990591119A0021C6
:10181000129815920091019721070CD40599B942AD
:1018200001DB019900E00191012904DD159A491EAF
:10183000515C302906D0B84201DA011D05DA0121D8
:10184000029115E00199491EEDE7002805DC009999
:10185000411800910199091A03E0019A411C914233
:1018600000DD01910099401A401C02900120C00740
:101870000390200706D402990198814202DB0020E0
:10188000C043029000206946C87707AF0121039842
:101890000337C907884224D0022011902B201290D0
:1018A000039800280CDA404203902D20129007E0A4
:1018B0000A210398FEF718FC30317F1E039039701F
:1018C0001199481E11900029F2DC03980028EFD1ED
:1018D000791E129808703078202108404530BF1ECC
:1018E000387006A8C01BC01D03901098007800280F
:1018F00000D00120019941180298C01709180398D7
:1019000009180498401A401E0490E00306D42146AA
:101910001A9B199A049800F05FF8451910980078FE
:10192000002803D01A9A199990476D1CE00324D51A
:1019300021461A9B199A049800F04EF845191CE0AC
:101940000098002807DB00990598884203DD159868
:10195000405C199901E0199930201A9A9047009833
:101960006D1C401C00900298401E0290002804D17B
:101970001A9A2E20199990476D1C0199481E0190C2
:101980000029DDDC05E038781A9A7F1C1999904708
:101990006D1C0399481E03900029F4DC21461A9B14
:1019A000199A0498ACE600002D0000002B000000FE
:1019B0002000000000000000F8B5044600251E4687
:1019C0001746880404D405E039462020B0476D1C32
:1019D000641EF9D52846F8BDFFB50446002581B040
:1019E0001E46C80301D5302700E02027880404D50F
:1019F00005E038460399B0476D1C641EF9D52846AA
:101A000005B0F0BD08000000180000000030000024
:101A100001000000000000000000000000000000C5
:101A200000000000100000000001000003000000A2
:101A3000000000003400C44148656C6C6F20576F93
:101A4000726C64210D0A0000681A0000000020205A
:101A50002000000030110000881A00002000202023
:101A600010010000481100000000000000200A40A2
:101A70000000200000000000000000000000000046
:081A800000000000000000005E
:04000005000000C136
:00000001FF
