:020000040000FA
:1000000040032020D5000000D9000000DB000000E4
:1000100000000000000000000000000000000000E0
:10002000000000000000000000000000DD000000F3
:100030000000000000000000DF0000004915000083
:10004000E3000000E3000000E3000000E300000024
:10005000E3000000E3000000E3000000E300000014
:1000600000000000E3000000E300000000000000CA
:1000700000000000E3000000E30000005115000054
:10008000E3000000E3000000E3000000E3000000E4
:10009000E3000000E300000000000000000000009A
:1000A000E3000000E300000000000000000000008A
:1000B000E300000000000000E3000000E300000097
:1000C0000348854600F028FA00480047C91600009A
:1000D0004003202003480047FEE7FEE7FEE7FEE777
:1000E000FEE7FEE7C100000070B50446002903D01A
:1000F00000202022012310E0002801D00020C0436E
:10010000C046C0460DE02546D5408D4205D30D467C
:100110009540641B1D46954040191546521E002D02
:10012000F1DC214670BDF0B51FB40646002082B058
:1001300005464024019100901BE0019922460F469C
:10014000304600F011FA049A059B801A994110D3A9
:1001500010461946224600F0F7F9361A8F410197EA
:10016000224601200021009F00F0EEF938184D4191
:1001700000902046641E0028DFDC019B0098294681
:10018000324607B0F0BD0000F0B5074608465840BB
:1001900087B0C00F049048000E4659004008490837
:1001A000BC1A884105D2384631461E4617460B46D2
:1001B00002465800400810434CD0300D03904005D3
:1001C0005900400D490D0590401A0290402872DAFE
:1001D00018030121000B09050843019004980092BF
:1001E000002805D0019952420020884100920190D8
:1001F000029840210A1A0199009800F0A5F90546D5
:100200000C466B4607CB00F0C0F9C0197141039A48
:100210000E0D0023D71756401A467A40164344D095
:10022000049A002A2DD0029A012A039A15DC12059D
:10023000C01A914101263605001C7141D20F059E5E
:10024000D2070093019202962A46234600F0BDF998
:1002500007B0F0BD38463146FAE71605224A0F4688
:10026000B218C01AB74101210905001C4F410018FE
:100270007F41114618187941E20F10436D1964410E
:1002800013E0E2076D0815436408C2071443039A9C
:1002900001261205C01A91413605001C7141CE0796
:1002A000400830434908C01851412A46234600F00F
:1002B0007FF9CDE7FFE7049801224000C117121A29
:1002C00000238B4104983146C417381AA141EEE748
:1002D00030B40124E407634030BC55E730B4012456
:1002E000E407614030BC4FE70000E0FFF0B51FB409
:1002F00088B00B990998002448400999C00F49001B
:1003000049080991C0070B990090490049080B91D1
:1003100009990898A64608431CD00B990A980843E7
:1003200018D0099801244000420D4800410D099859
:1003300024050003000B204309900B980003000BD9
:1003400020430B9050181C4940180022019014467D
:10035000104605E0002001460DB0F0BD032801DA8B
:10036000034600E003239C46C11A0AAE0AE05F0080
:1003700008ADED5B4F00F75B7D430027AA187C4179
:10038000491C5B1E6145F2DD410004AB5A52210459
:10039000120C0A43240C401C0828DFDB0198029051
:1003A0000099704601910090059B049A0799069860
:1003B00000F00BF9D0E700000DFCFFFFF0B50C4694
:1003C0005C4085B0E40FE40703944C000026640809
:1003D00059009446490802460296224321D06246BB
:1003E0000A431ED06200570D4A000E032303550D29
:1003F000012402462C492405781B1B0B360B4018A0
:1004000023432643614600901C46501AB44103D34F
:100410000098401C009002E0921800985B41002870
:1004200003DA0020014605B0F0BD002001210905D6
:100430000746864611E064461D46141BB54106D3A7
:100440006546521BB341744607430C43A646CD078D
:1004500040084908284392185B4105460D43EAD1FC
:100460001046184313D06046194650407140084367
:1004700006D06046101AB34106D20122002306E0DE
:1004800000220123DB0702E00122D243531000982F
:1004900074460105381C6141029C039D00196941A5
:1004A00000F086F8BFE70000FD0300004A000903E2
:1004B0000123090B1B0519430A4B10B5520D9A4233
:1004C00002DA0020014610BD064B34339A4203DCA9
:1004D0009A1A00F049F810BD034BD21800F034F816
:1004E00010BD0000FF030000CDFBFFFF10B5002989
:1004F00004DB0124E40740428C412146002B04DB4D
:100500001C460123DB075242A341994200D190428D
:1005100010BD0000000000001CB50948009009480B
:10052000019005460126009C05E0E36807CC3343B3
:100530000C3C98471034AC42F7D3FFF7C5FD0000E0
:10054000C8200000E820000010B5202A04DB014686
:10055000203A9140002010BD914020239C1A034670
:10056000E3401943904010BD10B5202A04DB084633
:10057000203AD040002110BD0B46D340D04020246B
:10058000A21A91400843194610BD10B5202A06DB77
:10059000CB170846203A1041C1170B4306E00B4623
:1005A0001341D0402024A21A91400843194610BD9F
:1005B00010B5002B08DA0024401C614192185B4101
:1005C0001A4301D14008400010BDF0B51FB482B0FD
:1005D00005460C0003D0084601F0C4F802E001F023
:1005E000C1F820300246009021462846FFF7ACFFB4
:1005F000049B059A04460F4618431143084314D040
:10060000184610431BD0009840210A1A1846059935
:10061000FFF7AAFF05460E46009A05990498FFF7D2
:1006200093FF084305D0012004E02046394607B077
:10063000F0BD0020C11705430E432C4337430099FA
:100640000E986305401A7905E40A00220C43FD0A5E
:100650000A3002D500200146E9E701051019694179
:100660000C9C0D9D00196941FFF7A2FFDFE7000018
:1006700010B58AB000F080FF099009987C4909689C
:10068000401A002801D5FFE7EFE000F075FF1430B5
:100690007749086000200890FFE70898042800D9EF
:1006A000E3E00898182205924243724806908118A8
:1006B0008058496800F0A8FA059902460698531E2A
:1006C0009A4107AB1A70089A51434018007CC00742
:1006D000002811D1FFE707A80078C00700280BD138
:1006E000FFE708981821414362484018807D0121A6
:1006F0000840012815D0FFE70898182141435D48BC
:100700004018407D0121084001280AD0FFE70898E1
:100710001821414357484018007DC007002809D0E0
:10072000FFE70898182141435248411800204861CA
:100730000861FFE70898182141434E484018007CA3
:10074000C007002822D1FFE707A80078C0070028CB
:100750001CD0FFE7089918220392104648434549E8
:1007600004910B1801209875089C13466343CB181D
:100770005874089B5A438918C87400F0FDFE039A08
:100780000499089B5A4389188860FFE70898182144
:10079000414338484018007CC007002818D0FFE7C4
:1007A00007A80078C007002812D1FFE70898182191
:1007B000019141432F48029041180120887400F0B4
:1007C000DBFE019A0299089B5A438918C860FFE72B
:1007D00008981821414327484018807DC007002809
:1007E00034D1FFE708981821414322484118C868CE
:1007F0008968884201D1FFE727E008981821414322
:100800001C484118C8688968401AC7280ED8FFE7F5
:10081000089818210A4642431648831801225A753F
:10082000089A514341188868C8600DE0089818215B
:100830000A4642430F48831801221A75089A514309
:1008400041188868C860FFE7FFE7FFE707A800785E
:10085000089918224A430749891801221040087450
:10086000FFE70898401C089017E70AB010BDC04683
:10087000D00020200400202081B000200090FFE75D
:100880000098012815D8FFE70098182242438649AE
:1008900089180301084AD018D2588A60C2684A6190
:1008A00082680A614068C860FFE70098401C0090B9
:1008B000E6E701B07047C0467C00202080B592B0CA
:1008C000024611A8027010AA11800078022801D3F4
:1008D000FFE7DEE0002110A8405E01282CDBFFE7E7
:1008E000002110A8405E6C49884225DCFFE711A872
:1008F0000D90007818210E9141436B480F904118DC
:100900008868C96800F09EF90D9A0E990F981278C0
:10091000514341180869496900F0F8F80D9A0E9999
:100920000F981278514342184058002310A9C95E0D
:10093000127900F049FBACE0002110A8405E574955
:10094000884223DBFFE711A80A90007818210B9159
:10095000414355480C9041188868C96800F072F905
:100960000A9A0B990C981278514341180869496901
:1009700000F0CCF80A990B9A0C9809784A43811830
:1009800080580A79494900F01FFB81E0002110A836
:10099000405E00282DD5FFE7002110A8405E4049A9
:1009A000884226DBFFE711A80790007818210891FC
:1009B00041433D48099041180869496900F042F9EE
:1009C000079A089909981278514341188868C968AC
:1009D00000F09CF8079A0899099812785143421838
:1009E0004058002310A9C95E4942127900F0ECFA80
:1009F0004DE0002110A8405E2A49884223DCFFE731
:100A000011A80490007818210591414326480690CA
:100A100041180869496900F015F9049A0599069882
:100A20001278514341188868C96800F06FF804993A
:100A3000059A069809784A43811880580A791B4913
:100A400000F0C2FA22E011A801900078182102916A
:100A500041431548039041188868C96800F0F2F8CE
:100A6000019A02990398127851434118086949691B
:100A700000F0E8F80199029A039809784A4381182E
:100A800080580A79002100F09FFAFFE7FFE7FFE7AF
:100A9000FFE712B080BDC0460F27000011270000FD
:100AA000F1D8FFFFEFD8FFFF9C00202010270000A7
:100AB00080B582B00F20019000F082FD019800F017
:100AC00095FD02B080BD811E091F00BFFCD270479A
:100AD00084B00390029101920398006800900098FE
:100AE00001998843009000980299019A11400843A7
:100AF0000399086004B0704782B00190009100989B
:100B0000019995225201885002B0704782B001903D
:100B100000910098019995225201885002B07047C7
:100B200082B00190009100980199024A885002B069
:100B30007047C046D012000081B00090009901209B
:100B4000C202C548885001B07047C04610B584B095
:100B5000069C039002910192009302980199084328
:100B600000990843069908430349084303998900FB
:100B7000244A885004B010BD8100040081B0009068
:100B8000009881001F4A8120885001B07047C046FC
:100B900010B584B0069C03900291019200930298D4
:100BA00001990843009908430699084381210843A5
:100BB00003998900134A885004B010BD81B0009099
:100BC000009881000F4A0020885001B07047C0464D
:100BD00082B001900091009803490843019989006F
:100BE000084A885002B070478000040082B001902B
:100BF000009100988021084301998900014A88509A
:100C000002B070470480424082B001900091019888
:100C10002721C90140580099084002B070470000E0
:100C200081B000900099D44AD448885001B07047F0
:100C300082B00190009100980199074A885002B053
:100C40007047C04682B00190009100980199024A15
:100C5000885002B07047C0469012000082B00190E8
:100C6000009100980199024A885002B07047C0462E
:100C7000B0120000F0B584B001242202344B196890
:100C80000392914319606A490D686D04FCD5457E55
:100C900025409E69A64374199C612024045D0325A8
:100CA0002C40DE69AE433419DC611F4C25680526F3
:100CB0002660466A37681F6276685E6207262E40A5
:100CC0002660C4697F252D02DE69AE436406640C8C
:100CD0003419DC610768456882680092C668026959
:100CE0000192426902929A69104C14403A07120B21
:100CF0002D03ADB2AA183243009D2D072D0D1543CB
:100D0000019A1543029A1543007E2843084A02407F
:100D1000101998611868039A1043186008688005D4
:100D2000FCD504B0F0BDC046001340408D00F0FF7C
:100D300072FF0F000649086801229043086070475F
:100D40000349086801221202904308607047C046B8
:100D500008010B4081B001466846017000780249E5
:100D6000086001B07047C04608030B4080B582B0F0
:100D7000014601A8018001880F2002022B48FFF7DD
:100D8000A7FE02B080BDC046F0B5124B1D46083D1F
:100D90002E680124A6432E600326360330401F68C8
:100DA000B743381818601868FF26B043C9B2401816
:100DB000186028682043286018682107002A06D098
:100DC000084318601A480168C905FCD5F0BD88437E
:100DD0001860F0BD10010B4080B582B0014601A83B
:100DE0000170017802480322FFF772FE02B080BD55
:100DF00000010B4080B582B0014601A80170017866
:100E00000A483022FFF764FE02B080BD07498860BF
:100E1000074802689202FCD5012212040B681343B2
:100E20000B600168C906FCD57047C04604010B4041
:100E300004020B4081B000900099AC4A0120885018
:100E400001B0704781B0009000990120C2028A4829
:100E5000885001B07047C04601000026F0B5724AC4
:100E600082183B4BC31808794E793A4D3A4C002E04
:100E700023D0202804D00526F601002803D003E063
:100E8000364E002800D18826576F2F4037435767CA
:100E9000976F2F4037439767566B26405663966B84
:100EA000264096630026566596658F26F6435F6852
:100EB00037405F609F6837409F608E7909682028BF
:100EC0000BD0002819D1491E5160D76E2F408821C0
:100ED0000F43D7661746703719E0491E5160D16E2F
:100EE00029401E4F3943D166116F2940394311679C
:100EF000012149071A4D174609E049085160D76E8C
:100F00002F400521C9010F43D766174670373C684B
:100F10002C400C433C60D16A0F4C2140D162116BD4
:100F2000214011630021D16411658F21C943D46F21
:100F30000C40D4671C680C401C600643BD20304048
:100F40001168084B0B40C018801C1060F0BDC046F3
:100F50008418000024493E008888FDFF0104000039
:100F6000FFFFFFCF4000FFCF81B000900099694A9A
:100F70006948885001B0704704080000030000B1C0
:100F800082B00190009100980199112212028850BC
:100F900002B0704710B507239B04194092008018D7
:100FA000024A84589C436118815010BD30180000DB
:100FB00010B5029CA400001911431943014A815045
:100FC00010BDC0465018000092008018014A8150A0
:100FD0007047C0461018000010B501221203831894
:100FE0000C789C604B7883508978014A815010BD01
:100FF0000C11000010B586B001930B460146019814
:10100000059104A90B8003AB1A8002AA10800598F1
:10101000054C001909881B88194312881143034A9B
:10102000FFF756FD06B010BD0418000080FF000059
:1010300081B00090009911200202885801231843C2
:10104000885001B07047000082B001900091009B71
:101050000199034A88581843885002B07047C04627
:101060002810000081B0009000990120C2020248BF
:10107000885001B07047C0460100002681B0009042
:101080000098812149014058C0B201B0704700006A
:10109000B0B51122120283580124A34383500B8858
:1010A0008C781C438B882343094C1C408358094D82
:1010B0001D40631983508B79CC791C43097A2143F5
:1010C0007E231940801842689A4351184160B0BD90
:1010D00018670000E798FDFF81B000900098034971
:1010E00040580121084001B07047C0460811000077
:1010F00081B00090009802494058C0B201B07047DA
:101100002411000081B000900099024A02488850E2
:1011100001B0704704080000030000B180B584B03E
:1011200003900291019203980B49401802990B4ACF
:10113000FFF7CEFC03980A49401801993F22FFF7B8
:10114000C7FC0399074A8818895801221140FFF704
:10115000BFFC04B080BDC04610110000FFFF0000BE
:10116000141100000411000010B5012212038318AD
:101170000C789C604978815010BD80B582B0019098
:101180000091019811210902401800990322D2030D
:10119000FFF79EFC02B080BD82B0019068460170EE
:1011A0000078019989225201885002B070470000EE
:1011B00080B501208105CD48FFF750FD80BDC046B8
:1011C00080B582B000F0D8F901900198074909680C
:1011D000401A002801D5FFE705E000F0CDF90A30FC
:1011E00002490860FFE702B080BDC046D40020205D
:1011F00080B582B00E49DE480190FFF7B5FF019837
:101200000C49FFF745FF01980021FFF7B6FF019851
:10121000412189001B22FFF781FF019801218902EA
:10122000FFF712FF0198FFF703FF02B080BDC04631
:101230006C2000006E20000080B58CB00920FFF704
:10124000BDFC0A20FFF7BAFC062004210291FFF73B
:10125000CDFC0299A4480390FFF762FC25200521EC
:10126000FFF7C4FC039801210A9109040591FFF7D7
:1012700057FC142002210491FFF7B8FC04991520B3
:10128000FFF7A6FC059A0023069300933120194628
:10129000FFF77EFC06990A980091810607914204A7
:1012A0000892C30409933720FFF750FC069807996A
:1012B000089A099B00902320FFF748FC069807999D
:1012C000089A099B00902420FFF740FC0698079994
:1012D000089A099B00902620FFF738FC069807998A
:1012E000089A099B00903320FFF730FC1F20FFF77E
:1012F00045FC2020FFF742FC0E20FFF73FFC0F20AB
:10130000FFF73CFC0A98810578480B90FFF7F4FB47
:101310000B980449FFF78CFC0B980349FFF700FC7E
:101320000CB080BD0C8001000C80410080B584B001
:1013300016496F480390FFF74FFE03981449FFF7D3
:101340008DFD039801220292510392028023FFF740
:1013500051FE02990398009110220023019319462F
:10136000FFF726FE0199029A0398FFF713FE029AEF
:1013700003982249FFF728FE0398FFF75BFD0398C7
:101380000221FFF7FDFD04B080BDC04678200000BB
:101390007C20000080B584B0164956480390FFF7C2
:1013A0001BFE03981449FFF759FD0398012202928E
:1013B000510392028023FFF71DFE029903980091CA
:1013C0001022002301931946FFF7F2FD0199029ABA
:1013D0000398FFF7DFFD029A03980849FFF7F4FD31
:1013E0000398FFF727FD03980221FFF7C9FD04B01A
:1013F00080BDC04684200000882000001127000026
:1014000080B582B000200190FFF7A4FC012000907D
:101410004002FFF7ABFC0198FFF7DEFCFFF78AFC08
:10142000FFF78EFC009A032000030A21FFF7ACFCB3
:101430000548FFF71FFC1020FFF7DCFC0198FFF7C1
:10144000E5FC02B080BDC0469020000080B5024897
:1014500000F052F880BDC0468038010080B500F031
:1014600019F8FFF7E9FEFFF7CBFFFFF75FFFFFF784
:1014700091FFFFF7BDFEFFF7E9FF04499C22002022
:1014800088540349B822885480BDC046D800202023
:101490007801202080B586B013480190FFF7C0FB8B
:1014A00012480290FFF7BCFB11480390FFF75CFD68
:1014B00010480490FFF758FD82480590FFF722FE80
:1014C0000198FFF739FB0298FFF736FB0398FFF707
:1014D000B9FC0498FFF7B6FC0598FFF7C3FD102090
:1014E000FFF7F1FA06B080BD00000A4000200A4074
:1014F00000A086400020864080B584B0029002980B
:10150000401E000E002803D0FFE70120039011E0E9
:101510000298401E0949086000200190C043032141
:1015200000F07AF8019806490860064A0721116020
:101530000390FFE7039804B080BDC04614E000E0CC
:1015400018E000E010E000E080B500F019F880BD80
:1015500080B55C48FFF792FD0B2806D1FFE759489C
:10156000FFF7C6FD0349087000E0FFE780BDC046F5
:101570000080104034022020044800687047C046B4
:1015800002490868401C08607047C04638022020A5
:1015900080B582B0019000910198002801D1FFE749
:1015A0000BE000980078C007002806D0FFE70198FC
:1015B0008047009900200870FFE702B080BD00005E
:1015C00081B001466846017000214056002809D4C8
:1015D000FFE7684601781F2001400120884002494A
:1015E0000860FFE701B0704780E200E081B001468B
:1015F0006846017000214056002809D4FFE768467C
:1016000001781F2001400120884002490860FFE75F
:1016100001B0704700E100E070B582B0024601A859
:101620000270009100214056002816D4FFE70024E4
:1016300001A908570322D3431840174A8058095775
:101640008C07E50EFF24AC40A043009CA401E4B24B
:10165000AC402043194088501AE001A908780F24B3
:10166000204008380322D34318400A4A80580025F6
:1016700049578D07EE0EFF25B540A843009DAD01EB
:10168000EDB2B54028432140083919408850FFE7A2
:1016900002B070BD1CED00E000E400E080B582B057
:1016A00001900091FFE70748FFF716FD002801D0E1
:1016B000FFE7F8E701A801780248FFF76DFD019800
:1016C00002B080BD0080104080B584B0002003903F
:1016D000FFF7C4FEFFF7ECF9FFF7CEF8FFE70021B4
:1016E00000910846FFF7EAF800990120FFF7E6F8B5
:1016F000FEF7BEFFFFF764FD0F49019114310F485B
:101700000290FFF745FF019902982A31FFF740FF49
:10171000019902984131FFF73BFF019902985C3132
:10172000FFF736FF019902987231FFF731FF044845
:1017300000F008F8D3E7C04604002020B1110000F3
:10174000B82000000FB410B503A9044B044A029856
:1017500000F0F0F810BC08BC04B018479D1600005B
:10176000000020202021020C01D010211046020A86
:1017700001D010460839020901D01046091F82081D
:1017800001D01046891E420801D0881E7047081AF1
:10179000704700000000000002E008C8121F08C1E6
:1017A000002AFAD1704700007047000000000000D6
:1017B000002001E001C1121F002AFBD17047000088
:1017C000F0B51FB486B00998089A030D00210243B2
:1017D00014D05148514A1818504305141198012843
:1017E00010981AD0281A401C00264D4F4D490096DB
:1017F00001910490002812DA444211E0119801246A
:1018000049A3012801D11098C1430698119A846018
:101810000360C26041600BB0F0BD4042E4E70446A3
:10182000210500203F4A001C51410391029012E023
:10183000E00707D032463B4601990098FEF756FD77
:101840000191009032463B4610461946FEF74EFD88
:1018500006460F466410002CEAD10498039B00282A
:10186000029A0999089806DAFEF740FD019B009A52
:10187000FEF73CFD05E0FEF7A1FD019B009AFEF797
:101880009DFD04460E460022284BFEF72FFE03D88E
:101890000020C043014607E00022254B2046314688
:1018A000FEF772FCFEF702FE102409E0002C0ADBB2
:1018B0000A220023FEF737FC079B30321A55641EBC
:1018C00002460A43F2D11122641C079B121B1C1909
:1018D000119B012B03D0012308430ED10AE00843DA
:1018E00004D0112010900020119077E71098151A5D
:1018F0006D1E0BE01098824202DD00236D1C03E098
:10190000824201DA00236D1E002BEED00698119959
:101910008260C16030C07EE701FCFFFF104D000017
:10192000000014400000F03F300000000000F043D1
:101930000000E03FFFB597B00646002518E22528D5
:1019400077D100242746FD49049400E00443761C27
:1019500032780120203A90400842F7D130782A2886
:101960000ED00222307801463039092916D8049960
:101970000A235943303940181443761C0490F1E788
:10198000189802C804911890002904DA0120400335
:1019900004434842049002200443761C30782E28E9
:1019A00014D1042004437078761C2A2809D1189891
:1019B000761C80C8189009E00A214F43303FC719B0
:1019C000761C3078014630390929F5D930786C28F1
:1019D00010D006DC4C281AD068280ED06A2817D1FF
:1019E00004E0742813D07A2812D110E001204005B9
:1019F00004430CE00121090501E0032109050C4322
:101A00007178814203D1012000052418761C761CD0
:101A10003078119066280BD013DC58287DD009DC73
:101A200000287BD04528F6D04628F4D047281AD184
:101A3000A5E118E0632835D0642870D0652812D15C
:101A40009DE170286CD008DC6728F1D069287BD034
:101A50006E280DD06F2806D1BAE073282ED07528D5
:101A600071D0782859D01A9A199990476D1C7EE147
:101A70006002400F022809D003280DD004281898CE
:101A800001680DD00D60001D189070E11898EA17DC
:101A900001680D604A60F6E7189801680D80F2E76A
:101AA0000D70F0E718986A4601781172001D1890C1
:101AB0000020507202A80090012005E0189802C88A
:101AC000189000200091C04361070DD5002101E06E
:101AD0000199491C0191B94212DA8142F8DB009A5E
:101AE000515C0029F4D10BE0002101E00199491C6F
:101AF00001918142FADB019A0099895C0029F5D1B4
:101B0000019904981A9B471A21463846199A00F001
:101B100097FA0199401945180BE04FE02CE113E0CA
:101B20004EE0009800990078491C00911A9A199982
:101B300090470198401E0190401CF2D12146384642
:101B40001A9B199A10E137E00A20002100900191B8
:101B50006002410F022907D0189A01CA1892C217D1
:101B60009446032908D00AE01898C01DC108C9008E
:101B700005C91891944607E000B2C217944604299B
:101B800002D140B2C1178C4600226146944506DA64
:101B90000A460021404291418C462D2102E0210558
:101BA00004D52B216A461173012103E0E10701D01E
:101BB0002021F7E7029155E00A200AE0102008E012
:101BC000102000900021042004430191082703E025
:101BD00008200021019100906002410F022907D0E6
:101BE000189A01CA189200229446032908D008E0E6
:101BF0001898C01DC108C90005C91891944603E092
:101C000080B2042900D1C0B200210291210729D558
:101C10001199702906D0009A1021019B4A401A435D
:101C200005D00EE040216A461173012108E06146AB
:101C3000014306D030216A46117311995173022174
:101C40000291009A0821019B4A401A430AD1614639
:101C5000014301D1610705D530216A461173012185
:101C60007F1E02911199582904D035A10E910DA91A
:101C70000D910DE037A1F9E76146019B009AFEF74F
:101C800052FA0E9B8C469B5C0D9A521E0D9213705D
:101C900061460143F0D10D9805A9081A2030019042
:101CA000600703D501200004844300E00127019868
:101CB000874201DD381A00E00020019900904118A8
:101CC000029809180498401A0490E00306D42146AB
:101CD0001A9B199A049800F0B3F94519002706E0F9
:101CE00003A81A9AC05D199990476D1C7F1C029831
:101CF0008742F5DBE0030CD521461A9B199A04981C
:101D000000F09EF9451904E01A9A3020199990477D
:101D10006D1C0099481E00900029F5DC08E00D9824
:101D20000D990078491C0D911A9A199990476D1CCC
:101D30000199481E01900029F1DC63E109280100A6
:101D40003031323334353637383961626364656631
:101D500000000000303132333435363738394142F3
:101D6000434445460000000000F05AF94519761C2E
:101D70003078002800D0E2E528461BB0F0BD6007AF
:101D800000D406271898C01DC108C90048680A6811
:101D90000831C30FDB071891190001D09CA108E09E
:101DA000210501D59BA104E0E10701D09AA100E043
:101DB0009AA1430011985B08109165280CD006DCAD
:101DC000452809D046281DD0472841D141E0662842
:101DD00018D067283CD13CE00021112F01DB1120F5
:101DE00000E0781C0191009008A911A8FFF7E8FC19
:101DF000139905910021119A15927F1C1298019751
:101E0000009150E00120C00703900120019008A933
:101E1000009711A8FFF7D4FC139A14990592002299
:101E2000119B009212981593059A0192002901D0F6
:101E3000104602E0791C40180190381A01D501982B
:101E400004E04042401E0090781C0190C01B0290AC
:101E500043E0012F00DA01270021112F01DD1120BD
:101E600000E038460191009008A911A8FFF7A8FCEE
:101E700013990591119A00211298159200910197DA
:101E800021070CD40599B94201DB019900E00191C9
:101E9000012904DD159A491E515C302906D0B8424B
:101EA00001DA011D05DA0121029115E00199491EAF
:101EB000EDE7002805DC0099411800910199091A05
:101EC00003E0019A411C914200DD01910099401A02
:101ED000401C02900120C0070390200706D40299FD
:101EE0000198814202DB0020C04302900020694635
:101EF000C87707AF012103980337C907884224D068
:101F0000022011902B201290039800280CDA4042F6
:101F100003902D20129007E00A210398FEF7E4F8C1
:101F200030317F1E039039701199481E119000299D
:101F3000F2DC03980028EFD1791E129808703078EF
:101F4000202108404530BF1E387006A8C01BC01DA8
:101F5000039010980078002800D0012001994118C2
:101F60000298C0170918039809180498401A401ECF
:101F70000490E00306D421461A9B199A049800F0B5
:101F80005FF8451910980078002803D01A9A19991B
:101F900090476D1CE00324D521461A9B199A04989A
:101FA00000F04EF845191CE00098002807DB009966
:101FB0000598884203DD1598405C199901E019994C
:101FC00030201A9A904700986D1C401C009002988F
:101FD000401E0290002804D11A9A2E201999904789
:101FE0006D1C0199481E01900029DDDC05E0387860
:101FF0001A9A7F1C199990476D1C0399481E0390EB
:102000000029F4DC21461A9B199A0498ACE60000DA
:102010002D0000002B000000200000000000000048
:10202000F8B5044600251E461746880404D405E08A
:1020300039462020B0476D1C641EF9D52846F8BDEE
:10204000FFB50446002581B01E46C80301D53027E0
:1020500000E02027880404D505E038460399B047FE
:102060006D1C641EF9D5284605B0F0BD08000000BF
:1020700018000000003000000800000011270000D8
:10208000000001000800000011270000000001000E
:10209000010000000000000000000000000000003F
:1020A000000000001000000000010000030000001C
:1020B000000000003400C44148656C6C6F20576F0D
:1020C000726C64210D0A0000E8200000000020204E
:1020D000D000000098170000B8210000D000202098
:1020E00070020000B01700000000000000200A404D
:1020F00000000002000000000000000000000000DE
:102100000000000000000A40008000000000000005
:1021100000000000000000000000000000000A4075
:10212000004000000000000000000000000000006F
:102130000000000000200A40000000010000000034
:1021400000000000000000000000000000000A4045
:10215000000002000000000000000000000000007D
:102160000000000000200A400000010000200A409A
:102170000080000000200A400400000000200A4007
:102180000800000000A086400100000000000000E0
:102190000000000000000000000000000020864059
:1021A000010000000000000000000000000000002E
:0821B000000000000000000027
:04000005000000C136
:00000001FF
