:020000040000FA
:1000000088042020D5000000D9000000DB0000009B
:1000100000000000000000000000000000000000E0
:10002000000000000000000000000000DD000000F3
:100030000000000000000000DF000000051A0000C2
:10004000E3000000F1130000E3000000E300000003
:10005000E3000000E3000000E3000000E300000014
:1000600000000000E3000000E300000000000000CA
:1000700000000000E3000000E3000000751A00002B
:10008000E3000000E3000000E3000000E3000000E4
:10009000E30000000D1A0000000000000000000056
:1000A000E3000000E300000000000000000000008A
:1000B000E300000000000000E3000000E300000097
:1000C0000348854600F028FA00480047DD1C000080
:1000D0008804202003480047FEE7FEE7FEE7FEE72E
:1000E000FEE7FEE7C1000000F8B502464A40D40F23
:1000F00042004B0052085B089A4202D20246084670
:1001000011464A0023D0C30D4A00DDB2120EAD1ACB
:10011000202D35DA49020126490AF6058A19002CF4
:1001200000D0524220214F1B1146B9402A411018DD
:10013000C20D9A4221D0002C17D0012D08DCDA051F
:10014000801AD20F8019D207DBB200F04CF9F8BD4B
:10015000DA05801A012340001B06C01880185A4295
:100160008018CA0F1043490007E04908C20711432D
:10017000DA05801A80194008801800F02CF9F8BDC3
:1001800061000122511A001BF7E70122D2075140FA
:10019000AAE70122D2075040A6E7024670B54A40BE
:1001A000D30FDB0740002DD04A002AD0010E140ED9
:1001B000000212020919400A520A8418E501044695
:1001C0005443000A120A2E045043A4194219200C69
:1001D000C543AA18120C0125AD03521C5219120472
:1001E0007F39240400D0521C104301D44000491E22
:1001F000C2B20C06C0092018401C4008802A02D058
:1002000003E0002070BD40084000002900DA002013
:10021000184370BD70B502464A40D50F40004A00F1
:10022000ED0740085208002814D0002A12D0C40D4F
:10023000D30D41020120C0055202490A520AE41AB4
:10024000091812187D34914201D3641C00E0490062
:10025000002C01DA002070BD0023914201D3891ADD
:100260000343400849000028F7D100290AD09142F1
:1002700002D10121C90705E0914201D2012101E02B
:100280000121C943E005C018401900F0A4F870BD71
:10029000F0B51FB488B00B9909980024484009991B
:1002A000C00F490049080991C0070B990090490007
:1002B00049080B9109990898A64608431CD00B9948
:1002C0000A98084318D0099801244000420D4800BC
:1002D000410D099824050003000B204309900B9859
:1002E0000003000B20430B9050181C4940180022BB
:1002F00001901446104605E0002001460DB0F0BD07
:10030000032801DA034600E003239C46C11A0AAE23
:100310000AE05F0008ADED5B4F00F75B7D4300270F
:10032000AA187C41491C5B1E6145F2DD410004AB0B
:100330005A522104120C0A43240C401C0828DFDB0B
:10034000019802900099704601910090059B049AD3
:100350000799069800F08DF8D0E700000DFCFFFF2C
:10036000C217C10F504010B54018CA07962300218C
:1003700000F039F810BDC20FD207400040080BD082
:10038000C10D0723DB01C91840020905400A1143CA
:10039000C208400711437047002001467047CB0F49
:1003A000DB07490010B5490802460A4307D00A0D89
:1003B00007240903E401090B121B002A01DC0020B9
:1003C00010BDC900440F0C43C100E018D2058018CD
:1003D00000F001F810BD002904DA401C490001D1E9
:1003E00040084000704770B40024050C05D110246B
:1003F000000402D1002921D01124050E01D10002F0
:100400000834050F01D10001241D850F01D18000A2
:10041000A41C002801DB4000641C002908D0202512
:100420002E1B0D46F540A14000D001212943084371
:1004300001061B1B000ADB1D02D5002070BC7047A3
:10044000DB05181880180029F8DA401C4900F5D19E
:1004500070BC40084000704710B5002B08DA00243B
:10046000401C614192185B411A4301D14008400091
:1004700010BDF0B51FB482B005460C0003D008468D
:1004800001F05CFC02E001F059FC203002460090D3
:100490002146284600F058F8049B059A04460F466A
:1004A00018431143084314D0184610431BD000983A
:1004B00040210A1A1846059900F056F805460E46DE
:1004C000009A0599049800F03FF8084305D00120F0
:1004D00004E02046394607B0F0BD0020C1170543AF
:1004E0000E432C43374300990E986305401A790553
:1004F000E40A00220C43FD0A0A3002D5002001461E
:10050000E9E70105101969410C9C0D9D001969412D
:10051000FFF7A2FFDFE700001CB50948009009487B
:10052000019005460126009C05E0E36807CC3343B3
:100530000C3C98471034AC42F7D3FFF7C5FD0000E0
:10054000081E0000281E000010B5202A04DB01460A
:10055000203A9140002010BD914020239C1A034670
:10056000E3401943904010BD10B5202A04DB084633
:10057000203AD040002110BD0B46D340D04020246B
:10058000A21A91400843194610BD000010B58AB068
:1005900001F0C2FA099009987C490968401A0028BC
:1005A00001D5FFE7EFE001F0B7FA143077490860B2
:1005B00000200890FFE70898042800D9E3E0089895
:1005C0001822059242437248069081188058496863
:1005D00000F08EFB059902460698531E9A4107AB20
:1005E0001A70089A51434018007CC007002811D1A6
:1005F000FFE707A80078C00700280BD1FFE708989D
:100600001821414362484018807D0121084001289B
:1006100015D0FFE70898182141435D484018407DF8
:100620000121084001280AD0FFE70898182141431A
:1006300057484018007DC007002809D0FFE70898F8
:100640001821414352484118002048610861FFE7E2
:100650000898182141434E484018007CC0070028E4
:1006600022D1FFE707A80078C00700281CD0FFE7C9
:1006700008991822039210464843454904910B18E3
:1006800001209875089C13466343CB185874089B47
:100690005A438918C87401F03FFA039A0499089BD9
:1006A0005A4389188860FFE7089818214143384861
:1006B0004018007CC007002818D0FFE707A8007882
:1006C000C007002812D1FFE7089818210191414383
:1006D0002F48029041180120887401F01DFA019AF8
:1006E0000299089B5A438918C860FFE708981821A7
:1006F000414327484018807DC007002834D1FFE7D8
:1007000008981821414322484118C86889688842DE
:1007100001D1FFE727E00898182141431C48411800
:10072000C8688968401AC7280ED8FFE708981821BA
:100730000A4642431648831801225A75089A5143C3
:1007400041188868C8600DE0089818210A4642439D
:100750000F48831801221A75089A51434118886876
:10076000C860FFE7FFE7FFE707A8007808991822AD
:100770004A4307498918012210400874FFE7089886
:10078000401C089017E70AB010BDC0461001202099
:100790004800202080B584B000200390FFE7039834
:1007A000012828D8FFE70398242100914143DD4820
:1007B0000190405601F0FCF900990198039A5143C9
:1007C000401801210291405601F0F2F90099019878
:1007D000039A5143405601F029FA009A0198029970
:1007E000039B5A438018405601F020FAFFE7039814
:1007F000401C0390D3E704B080BDC04681B0002008
:100800000090FFE70098012815D8FFE7009818220C
:100810004243864989180301084AD018D2588A6091
:10082000C2684A6182680A614068C860FFE7009850
:10083000401C0090E6E701B07047C046C000202091
:1008400080B592B0024611A8027010AA11800078FB
:10085000022801D3FFE7DEE0002110A8405E012856
:100860002CDBFFE7002110A8405E6C49884225DCA4
:10087000FFE711A80D90007818210E9141436B48B5
:100880000F9041188868C96800F06CFA0D9A0E99AB
:100890000F981278514341180869496900F090F99E
:1008A0000D9A0E990F981278514342184058002320
:1008B00010A9C95E127900F0B7FCACE0002110A8C5
:1008C000405E5749884223DBFFE711A80A90007871
:1008D00018210B91414355480C9041188868C9680C
:1008E00000F040FA0A9A0B990C981278514341187B
:1008F0000869496900F064F90A990B9A0C9809781B
:100900004A43811880580A79454900F08DFC81E0FE
:10091000002110A8405E00282DD5FFE7002110A877
:10092000405E4049884226DBFFE711A80790007827
:100930001821089141433D480990411808694969C7
:1009400000F010FA079A0899099812785143411853
:100950008868C96800F034F9079A089909981278EC
:10096000514342184058002310A9C95E49421279E8
:1009700000F05AFC4DE0002110A8405E2A49884250
:1009800023DCFFE711A8049000781821059141436A
:100990002648069041180869496900F0E3F9049A6D
:1009A000059906981278514341188868C96800F083
:1009B00007F90499059A069809784A4381188058DE
:1009C0000A79174900F030FC22E011A80190007864
:1009D0001821029141431548039041188868C9685D
:1009E00000F0C0F9019A0299039812785143411816
:1009F0000869496900F0B6F90199029A03980978E3
:100A00004A43811880580A79002100F00DFCFFE765
:100A1000FFE7FFE7FFE712B080BDC0460F270000E9
:100A200010270000F1D8FFFFF0D8FFFFE0002020E2
:100A300080B582B00F20019001F0A6F8019801F076
:100A4000E1F802B080BD000010B588B001F064F894
:100A50000790079832490968401A002801D5FFE736
:100A60005CE001F059F832302D4908600020069012
:100A7000FFE70698012851D8FFE706982421039143
:100A800041432848049040184069FFF769FC264913
:100A9000FFF7C0FB2549FFF7BDFB039A0146049809
:100AA00005910599069B5A4380180190C069FFF78C
:100AB0001BFB0199C86105981D49FFF76EFB1D4995
:100AC000FFF7A8FB039A01460498069B5A43801837
:100AD0000290006AFFF708FB029908620598FFF789
:100AE0004AFC154A154BFFF7D3FB01229207144B22
:100AF000FFF7CEFBFFF753FC039902460498069CD0
:100B00000B466343C3189A61069A5143411800206B
:100B10004861FFE70698401C0690AAE708B010BDA0
:100B2000140120200000202000003644CDCC4C3D94
:100B30009A99D9400000C842182D4454FB2109401D
:100B400033331B40811E091F00BFFCD2704784B0A5
:100B50000390029101920398006800900098019917
:100B60008843009000980299019A11400843039924
:100B7000086004B07047000082B001900091009BB3
:100B80000199094A88581843885002B07047C046F6
:100B900082B001900091009B0199034A8858184344
:100BA000885002B07047C0464810000082B00190E3
:100BB00000910098019995225201885002B0704727
:100BC00082B00190009100980199952252018850BD
:100BD00002B0704782B001900091009B0199034AD6
:100BE00088581843885002B07047C046281000004B
:100BF00082B00190009100980199024A885002B099
:100C00007047C046D012000081B0009000990120CA
:100C1000C202EC48885001B07047C04682B00190D3
:100C200000910198024940580099084002B070476D
:100C30003810000010B584B0069C03900291019218
:100C400000930298019908430099084306990843C4
:100C50000349084303998900244A885004B010BD11
:100C60008100040081B00090009881001F4A81201B
:100C7000885001B07047C04610B584B0069C039000
:100C80000291019200930298019908430099084348
:100C9000069908438121084303998900134A885023
:100CA00004B010BD81B00090009881000F4A002070
:100CB000885001B07047C04682B001900091009802
:100CC0000349084301998900084A885002B07047D7
:100CD0008000040082B001900091009880210843B8
:100CE00001998900014A885002B07047048042404F
:100CF00082B00190009101982721C90140580099C4
:100D0000084002B0704782B00190009101982721FD
:100D1000C90140580099084002B0704781B0009066
:100D20000099024A0248885001B070470408000048
:100D3000030000B182B001900091009B0199034A29
:100D400088581843885002B07047C046901300007E
:100D500082B00190009100980199074A885002B032
:100D60007047C04682B00190009100980199024AF4
:100D7000885002B07047C0469012000082B00190C7
:100D80000091009B01999D2042018858184388508A
:100D900002B0704782B00190009100980199024A18
:100DA000885002B07047C046B0120000F0B584B061
:100DB00001242202344B19680392914319606A4955
:100DC0000D686D04FCD5457E25409E69A6437419C7
:100DD0009C612024045D03252C40DE69AE43341958
:100DE000DC611F4C256805262660466A37681F624D
:100DF00076685E6207262E402660C4697F252D0234
:100E0000DE69AE436406640C3419DC61076845682A
:100E100082680092C66802690192426902929A69E8
:100E2000104C14403A07120B2D03ADB2AA183243EE
:100E3000009D2D072D0D1543019A1543029A154368
:100E4000007E2843084A0240101998611868039AE6
:100E50001043186008688005FCD504B0F0BDC0469A
:100E6000001340408D00F0FF72FF0F000649086834
:100E7000012290430860704703490868012212026A
:100E8000904308607047C04608010B4081B001469E
:100E90006846017000780249086001B07047C0469A
:100EA00008030B4080B582B0014601A8018001888B
:100EB0000F2002022B48FFF74AFE02B080BDC04659
:100EC000F0B5124B1D46083D2E680124A6432E6046
:100ED0000326360330401F68B74338181860186877
:100EE000FF26B043C9B24018186028682043286024
:100EF00018682107002A06D0084318601A480168BC
:100F0000C905FCD5F0BD88431860F0BD10010B4049
:100F100080B582B0014601A8017001780248032221
:100F2000FFF715FE02B080BD00010B4080B582B016
:100F3000014601A8017001780A483022FFF707FE38
:100F400002B080BD07498860074802689202FCD55C
:100F5000012212040B6813430B600168C906FCD51B
:100F60007047C04604010B4004020B4082B0019060
:100F7000009100980199024A885002B07047C0461B
:100F80004810000081B000900099024A012088506A
:100F900001B070470811000082B001900091009BE1
:100FA0000199C74A88581843885002B07047C04614
:100FB00081B0009000990120C202C748885001B05A
:100FC0007047C0460100002681B000900098812142
:100FD00049014058C0B201B070470000F0B5AA4ABC
:100FE00082183B4BC31808794E793A4D774C002E46
:100FF00023D0202804D00526F601002803D003E0E2
:10100000354E002800D18826576F2F403743576749
:10101000976F2F4037439767566B26405663966B02
:10102000264096630026566596658F26F6435F68D0
:1010300037405F609F6837409F608E79096820283D
:101040000BD0002819D1491E5160D76E2F4088213E
:101050000F43D7661746703719E0491E5160D16EAD
:1010600029401D4F3943D166116F2940394311671B
:1010700001214907194D174609E049085160D76E0B
:101080002F400521C9010F43D766174670373C68CA
:101090002C400C433C60D16A4C4C2140D162116B16
:1010A000214011630021D16411658F21C943D46FA0
:1010B0000C40D4671C680C401C600643BD203040C7
:1010C0001168074B0B40C018801C1060F0BDC04673
:1010D0008418000024493E0001040000FFFFFFCFF8
:1010E0004000FFCFB0B54A68364BC250664A801800
:1010F0000A78222A58D8930001A4E3589F46C04694
:101100009F110000A91100009F110000A91100000B
:10111000A9110000A9110000A9110000A9110000E7
:10112000A9110000A9110000A9110000A9110000D7
:10113000A9110000A9110000A9110000A9110000C7
:101140008D110000A91100008D110000A9110000EF
:10115000A9110000A9110000A9110000A9110000A7
:10116000A9110000A9110000A9110000A911000097
:10117000A9110000A9110000A9110000A911000087
:101180008D110000A91100008D11000003231B0721
:1011900004689C4301235B07E318036004E0032316
:1011A0001B0704689C4304600B69C360CB68064C52
:1011B0001C40C36A054D1D402B19C362097A1143B7
:1011C0000160B0BD08180000777702008888FDFF35
:1011D00081B000900099614A6148885001B0704721
:1011E00082B001900091009801991122120288505A
:1011F00002B0704710B507239B0419409200801875
:10120000024A84589C436118815010BD3018000078
:1012100010B5029CA400001911431943014A8150E2
:1012200010BDC0465018000092008018014A81503D
:101230007047C0461018000010B501221203831831
:101240000C789C604B7883508978014A815010BD9E
:101250000C11000010B586B001930B4601460198B1
:10126000059104A90B8003AB1A8002AA108005988F
:10127000054C001909881B88194312881143034A39
:10128000FFF765FC06B010BD0418000080FF0000E9
:1012900081B0009000991120020288580123184360
:1012A000885001B07047000082B001900091009B0F
:1012B0000199034A88581843885002B07047C046C5
:1012C0002810000081B0009000990120C20202485D
:1012D000885001B07047C0460100002681B00090E0
:1012E0000098812149014058C0B201B07047000008
:1012F000B0B51122120283580124A34383500B88F6
:101300008C781C438B882343094C1C408358094D1F
:101310001D40631983508B79CC791C43097A214392
:101320007E231940801842689A4351184160B0BD2D
:1013300018670000E798FDFF81B00090009802490F
:101340004058C0B201B070472411000081B0009035
:101350000099024A0248885001B070470408000012
:10136000030000B180B584B003900291019203980C
:101370000B4940180299834AFFF7E9FB0398094992
:10138000401801993F22FFF7E2FB0399064A8818AB
:10139000895801221140FFF7DAFB04B080BDC04636
:1013A00010110000141100000411000010B50122FA
:1013B000120383180C789C604978815010BD80B569
:1013C00082B0019000910198112109024018009902
:1013D0000322D203FFF7BBFB02B080BD034A801893
:1013E00002681206FCD481617047C04608110000F3
:1013F00080B588B000200790FFE70798012800D942
:1014000081E0079824210591414340480690411806
:1014100048688968FFF702FC059A0699079B5A43BA
:1014200089188968084088421FD1FFE7079824215E
:10143000414336484118C8680969FFF764FC002831
:1014400009D1FFE7079824214143304841184869F2
:10145000401C486108E00798242141432B4841186B
:101460004869401E4861FFE734E007982421039152
:101470004143264804904118C8680969FFF7CEFB2C
:10148000039A0499079B5A438918096908408842BE
:101490001FD1FFE70798242141431C4841184868A1
:1014A0008968FFF730FC002809D1FFE7079824215D
:1014B0004143164841184869401E486108E00798B2
:1014C00024214143114841184869401C4861FFE705
:1014D000FFE7FFE707982421019141430B48029061
:1014E000411848688968FFF753FB01990298079AE9
:1014F00051434118C8680969FFF74AFBFFE707989D
:10150000401C079079E708B080BDC046000020204D
:1015100080B5012081058D48FFF73CFC80BDC046A9
:1015200080B584B0144915480390FFF785FE0398F1
:101530001349FFF753FD03980023029319461A46F7
:10154000FFF788FE029B0398009310221946FFF7CD
:101550005FFE029A03981146FFF74CFE029A039829
:101560000849FFF761FE0398FFF70CFD039801217E
:10157000FFF736FE04B080BD961D000000008640D7
:101580009C1D0000FFFF000080B582B00E490F488F
:101590000190FFF70BFF01980D49FFF7A9FE019895
:1015A0000021FFF70CFF0198412189001B22FFF762
:1015B000D9FE019801218902FFF776FE0198FFF715
:1015C00067FE02B080BDC046A41D00000080104030
:1015D000A61D000080B58EB00920FFF763FB0A202E
:1015E000FFF760FB062004210191FFF773FB0199CF
:1015F000E5480990FFF7FCFA252005210291FFF745
:1016000069FB099801210A9109040491FFF7F0FA96
:1016100002992D20FFF75EFB09980A994905FFF70B
:10162000E7FA142002210391FFF754FB03991520D8
:10163000FFF742FB049A00230793009331201946D9
:10164000FFF71AFB07990A98009181060591420459
:101650000692C30408933720FFF7ECFA0599069A1F
:101660000798089B00902320FFF7E4FA0599069A53
:101670000798089B00902420FFF7DCFA0599069A4A
:101680000798089B00902620FFF7D4FA0599069A40
:101690000798089B00903320FFF7CCFA1F20FFF734
:1016A000E1FA2020FFF7DEFA0E20FFF7DBFA0F2029
:1016B000FFF7D8FA079A089B009232201146FFF7ED
:1016C000B9FA079A089B009239201146FFF7B2FA3F
:1016D000079A089B009221201146FFF7ABFA079A60
:1016E000089B009216201146FFF7A4FA09980A9960
:1016F0000906FFF71FFB09980A9909030B91FFF7E9
:101700003BFA09980B99FFF765FA0A9881059F48FB
:101710000C90FFF74BFA0C980D49FFF719FB0C984A
:101720000C49FFF765FA0B990C98FFF703FB0C982F
:101730000949FFF723FB0C9808490D91FFF71CFAA4
:101740000C980D99FFF746FA0EB080BD00200A40B4
:101750000C8001000C8041000040400040008008E7
:1017600080B584B016498A480390FFF765FD039859
:101770001449FFF733FC03980122029251039202AD
:101780008023FFF767FD0299039800911022002340
:1017900001931946FFF73CFD0199029A0398FFF760
:1017A00029FD029A03982249FFF73EFD0398FFF7AF
:1017B000E9FB03980221FFF713FD04B080BDC0468A
:1017C000B01D0000B41D000080B584B016497148FA
:1017D0000390FFF731FD03981449FFF7FFFB0398CF
:1017E00001220292510392028023FFF733FD0299F6
:1017F000039800911022002301931946FFF708FD7A
:101800000199029A0398FFF7F5FC029A0398084998
:10181000FFF70AFD0398FFF7B5FB03980221FFF7D6
:10182000DFFC04B080BDC046BC1D0000C01D000030
:101830001127000080B582B000200190FFF726FB41
:10184000012000904002FFF72DFB0198FFF760FB9D
:10185000FFF70CFBFFF710FB009A032000030A219F
:10186000FFF72EFB0748FFF7A1FA1020FFF75EFBFA
:101870000198FFF767FB0098019900F0EDF902B0BD
:1018800080BDC046C81D000080B5024800F092F837
:1018900080BDC0468038010080B582B00A497248D8
:1018A0000190FFF7C9FC01980849FFF71BFC01985C
:1018B0000121FFF771FB1520002100F0CDF90198FF
:1018C000FFF760FB02B080BDF01D0000F41D0000BA
:1018D00080B500F021F8FFF77DFEFFF7ABFFFFF7C3
:1018E0003FFFFFF771FFFFF71BFEFFF7D5FFFFF785
:1018F0004BFEFFF7C9FF05499C220020885404498C
:10190000B82288540349885480BDC046D4012020A1
:10191000740220201801202080B588B01A48019058
:10192000FFF7FCF919480290FFF7F8F918480390FF
:10193000FFF74EFC17480490FFF74AFC1648059045
:10194000FFF746FC48480690FFF742FC51480790D5
:10195000FFF7FCFC0198FFF757F90298FFF754F9DD
:101960000398FFF725FB0498FFF722FB0598FFF784
:101970001FFB0698FFF71CFB0798FFF7A3FC10203E
:10198000FFF7E0F808B080BD00000A4000200A40E0
:1019900000A08640002086400000864080B582B0CE
:1019A000014601A8017001783A48FFF717FD02B01F
:1019B00080BDC04680B584B002900298401E000EE3
:1019C000002803D0FFE70120039011E00298401E99
:1019D0000949086000200190C043032100F03CF950
:1019E000019806490860064A072111600390FFE745
:1019F000039804B080BDC04614E000E018E000E0A9
:101A000010E000E080B500F08BF880BD80B582B0BA
:101A10001548FFF7D9FA012820D1FFE7FEF7B6FDF8
:101A2000FFF712F81149009114311148019000F0AC
:101A30007FF8009901982A3100F07AF8009901980E
:101A4000413100F075F8009901985C3100F070F8B0
:101A500000990198723100F06BF8FFE7024801210C
:101A6000FFF784FA02B080BD0000874048002020C4
:101A70001115000080B50748FFF730FC0B2806D190
:101A8000FFE70448FFF758FC0349087000E0FFE750
:101A900080BDC046008010403003202080B588B053
:101AA0000790069100200590FFE705980699884267
:101AB0001BDAFFE707980599890040180490002079
:101AC0000390FFE7039803280ADCFFE704980399D3
:101AD000405CFFF763FFFFE70398401C0390F1E7CA
:101AE000FFE70598401C0590DFE7FF20C005029046
:101AF00000200190FFE7019803280ADCFFE7019925
:101B000002A8405CFFF74AFFFFE70198401C0190E4
:101B1000F1E708B080BD0000044800687047C04687
:101B200002490868401C08607047C0463403202002
:101B300080B582B0019000910198002801D1FFE7A3
:101B40000BE000980078C007002806D0FFE7019856
:101B50008047009900200870FFE702B080BD0000B8
:101B600081B001466846017000214056002809D422
:101B7000FFE7684601781F20014001208840164990
:101B80000860FFE701B0704781B001466846017008
:101B900000214056002809D4FFE7684601781F203D
:101BA0000140012088400C490860FFE701B0704700
:101BB00081B001466846017000214056002809D4D2
:101BC000FFE7684601781F20014001208840024954
:101BD0000860FFE701B0704780E200E081B0014695
:101BE0006846017000214056002809D4FFE7684686
:101BF00001781F2001400120884016490860FFE756
:101C000001B0704781B0014668460170002140561E
:101C1000002809D4FFE7684601781F200140012011
:101C200088400C490860FFE701B0704781B0014669
:101C30006846017000214056002809D4FFE7684635
:101C400001781F2001400120884002490860FFE719
:101C500001B0704700E100E070B582B0024601A813
:101C60000270009100214056002816D4FFE700249E
:101C700001A908570322D3431840174A805809572F
:101C80008C07E50EFF24AC40A043009CA401E4B205
:101C9000AC402043194088501AE001A908780F246D
:101CA000204008380322D34318400A4A80580025B0
:101CB00049578D07EE0EFF25B540A843009DAD01A5
:101CC000EDB2B54028432140083919408850FFE75C
:101CD00002B070BD1CED00E000E400E080B584B00F
:101CE00000200390FFF7F4FDFEF7A2FEFEF786FD4D
:101CF000FEF750FD15200290FFF732FF0298FFF724
:101D00006DFFFFE7002101910846FEF799FD01995B
:101D10000120FEF795FD07498A6907480260CA6BF2
:101D200042600A6A8260496CC1600421FFF7B6FE16
:101D3000E8E7C04600002020380320202021020CC4
:101D400001D010211046020A01D0104608390209BC
:101D500001D01046091F820801D01046891E420892
:101D600001D0881E7047081A70470000000000006C
:101D700002E008C8121F08C1002AFAD1704700000B
:101D80007047000000000000002001E001C1121FA8
:101D9000002AFBD17047080000000000FFFF000090
:101DA00000010100080000001800000000300000E1
:101DB00008000000112700000000010008000000DA
:101DC00011270000000001000100000000000000D9
:101DD00000000000000000000000000010000000F3
:101DE0000001000003000000000000003400C441B6
:101DF00008000000020000007F3801000100000020
:101E00000000000000000000281E0000000020204C
:101E100010010000701D0000381F0000100120207C
:101E200078030000881D00000101000000200A4026
:101E30000000000800200A400000800000000000B0
:101E40000000000000000000000000000101000090
:101E500000000A400010000000200A40400000007E
:101E60000000000000000000000000000000000072
:101E700000200A40000000020000000000000000F6
:101E8000000000000000000000000A400080000088
:101E90000000000000000000000000000000000042
:101EA00000000A40004000000000000000000000A8
:101EB000000000000000000000200A4000000001B7
:101EC0000000000000000000000000000000000012
:101ED00000000A40000002000000000000000000B6
:101EE000000000000000000000200A400000010087
:101EF00000200A400080000000200A40040000008A
:101F000000200A400800000000A0864001000000F8
:101F100000000000000000000000000000000000C1
:101F200000208640010000000000000000000000CA
:081F30000000000000000000A9
:04000005000000C136
:00000001FF
