:020000040000FA
:1000000068162020D5000000D9000000DB000000A9
:1000100000000000000000000000000000000000E0
:10002000000000000000000000000000DD000000F3
:100030000000000000000000DF0000008D2600002E
:10004000E3000000611B0000B5270000E300000092
:10005000E3000000E3000000E3000000E300000014
:1000600000000000E3000000E300000000000000CA
:10007000000000006D290000E30000004529000099
:100080009526000031270000E3000000E300000097
:10009000E30000000D270000000000000000000049
:1000A000E3000000E300000000000000000000008A
:1000B000E300000000000000E3000000E300000097
:1000C0000348854600F0B8FA00480047852E000036
:1000D0006816202003480047FEE7FEE7FEE7FEE73C
:1000E000FEE7FEE7C1000000F8B502464A40D40F23
:1000F00042004B0052085B089A4202D20246084670
:1001000011464A0023D0C30D4A00DDB2120EAD1ACB
:10011000202D35DA49020126490AF6058A19002CF4
:1001200000D0524220214F1B1146B9402A411018DD
:10013000C20D9A4221D0002C17D0012D08DCDA051F
:10014000801AD20F8019D207DBB200F0DDF9F8BDBA
:10015000DA05801A012340001B06C01880185A4295
:100160008018CA0F1043490007E04908C20711432D
:10017000DA05801A80194008801800F0BDF9F8BD32
:1001800061000122511A001BF7E70122D2075140FA
:10019000AAE70122D2075040A6E7024670B54A40BE
:1001A000D30FDB0740002DD04A002AD0010E140ED9
:1001B000000212020919400A520A8418E501044695
:1001C0005443000A120A2E045043A4194219200C69
:1001D000C543AA18120C0125AD03521C5219120472
:1001E0007F39240400D0521C104301D44000491E22
:1001F000C2B20C06C0092018401C4008802A02D058
:1002000003E0002070BD40084000002900DA002013
:10021000184370BD70B502464A40D50F40004A00F1
:10022000ED0740085208002814D0002A12D0C40D4F
:10023000D30D41020120C0055202490A520AE41AB4
:10024000091812187D34914201D3641C00E0490062
:10025000002C01DA002070BD0023914201D3891ADD
:100260000343400849000028F7D100290AD09142F1
:1002700002D10121C90705E0914201D2012101E02B
:100280000121C943E005C018401900F035F970BDDF
:10029000F0B51FB488B00B9909980024484009991B
:1002A000C00F490049080991C0070B990090490007
:1002B00049080B9109990898A64608431CD00B9948
:1002C0000A98084318D0099801244000420D4800BC
:1002D000410D099824050003000B204309900B9859
:1002E0000003000B20430B9050181C4940180022BB
:1002F00001901446104605E0002001460DB0F0BD07
:10030000032801DA034600E003239C46C11A0AAE23
:100310000AE05F0008ADED5B4F00F75B7D4300270F
:10032000AA187C41491C5B1E6145F2DD410004AB0B
:100330005A522104120C0A43240C401C0828DFDB0B
:10034000019802900099704601910090059B049AD3
:100350000799069800F01EF9D0E700000DFCFFFF9A
:100360000122D207002800DB101A002900DB511AF5
:10037000814201D801207047002070470122D20736
:10038000002800DB101A002900DB511A814201D23B
:1003900001207047002070470122D207002800DBAF
:1003A000101A002900DB511A814201D30120704745
:1003B000002070470122D207002800DB101A002914
:1003C00000DB511A814201D901207047002070479B
:1003D0000122D207002800DB101A002900DB511A85
:1003E000814201D1012070470020704710B50029DB
:1003F00004DB0C460121C9074042A141002B04DB6C
:100400001C460123DB075242A341801A994101D3C4
:10041000012010BD002010BD10B5002904DB0C46E2
:100420000121C9074042A141002B04DB1C460123E6
:10043000DB075242A341101A8B4101D3012010BDAA
:10044000002010BDC217C10F504010B54018CA0798
:100450009623002100F058F810BDC20F4100400261
:100460000123400ADB05D207090EC0187F2901DAF3
:1004700000207047962903DC9623591AC84001E0F2
:1004800096398840002AF4D040427047C20FD20704
:10049000400040080BD0C10D0723DB01C918400202
:1004A0000905400A1143C208400711437047002064
:1004B00001467047CB0FDB07490010B549080246DB
:1004C0000A4307D00A0D07240903E401090B121B94
:1004D000002A01DC002010BDC900440F0C43C100FC
:1004E000E018D205801800F007F810BD10B5002301
:1004F000036000F0FBF810BD002904DA401C49003D
:1005000001D140084000704770B40024050C05D1AB
:100510001024000402D1002921D01124050E01D19C
:1005200000020834050F01D10001241D850F01D1FF
:100530008000A41C002801DB4000641C002908D0B6
:1005400020252E1B0D46F540A14000D00121294356
:10055000084301061B1B000ADB1D02D5002070BCEE
:100560007047DB05181880180029F8DA401C49008C
:10057000F5D170BC40084000704710B5002B08DA78
:100580000024401C614192185B411A4301D140088C
:10059000400010BDF0B51FB482B005460C0003D07A
:1005A000084602F0B3FC02E002F0B0FC2030024644
:1005B00000902146284600F057F8049B059A04460F
:1005C0000F4618431143084314D0184610431BD05C
:1005D000009840210A1A1846059900F055F805467A
:1005E0000E46009A0599049800F03EF8084305D09D
:1005F000012004E02046394607B0F0BD0020C117B5
:1006000005430E432C43374300990E986305401A67
:100610007905E40A00220C43FD0A0A3002D50020C5
:100620000146E9E70105101969410C9C0D9D00196F
:100630006941FFF7A2FFDFE71CB5094800900948B0
:10064000019005460126009C05E0E36807CC334392
:100650000C3C98471034AC42F7D3FFF735FD00004F
:100660008C300000AC30000010B5202A04DB0146BD
:10067000203A9140002010BD914020239C1A03464F
:10068000E3401943904010BD10B5202A04DB084612
:10069000203AD040002110BD0B46D340D04020244A
:1006A000A21A91400843194610BD00000FB400B5CE
:1006B00089B00A460DA9009100230C99002ACB604D
:1006C000234B0693234B079301D0042300E0002320
:1006D000214A0292214A0892019302466B46002069
:1006E00000F0D5F809B008BC04B01847F0B585B0E3
:1006F00007460020C04301901E46002015460C46C8
:100700000091029104903B466A46314604A8FFF7E7
:10071000CDFF049902466018002D05D0002901D0B4
:10072000034600E023462B6000290ED0002A02DD9C
:100730000099814209D0001B019000943B466A4613
:100740003146029404A8FFF7B1FF05B0F0BD0000E8
:10075000E50A0000050B0000FFFFFF7F61070000B6
:1007600010B50F21C0B2490200F0F6F910BD00002B
:10077000FFB5087889B01546FF2805D0491C2D28FB
:1007800004D00022002407E000240BE00122F9E756
:100790000A235C430419491C0878FF28F8D1002A71
:1007A00000D06442002004902A7801462D2A01D00E
:1007B0002B2A0FD16D1C2D2A02D00022049209E0B1
:1007C0000122FBE700260A2233466D1C00F0ACF93B
:1007D000381871412F78FF2FF4D10C9AA218069285
:1007E00002460A4304D0FF23069A9133DA4205DA1F
:1007F000002109980A4606C00DB0F0BD0024B74A92
:10080000B54D2646079200F031FA02900698039102
:10081000002801DA474200E0074639050020AF4AC8
:10082000001C51410191009012E0F80707D02246C8
:100830002B4630460799FFF72BFD064607912246C7
:100840002B4610461946FFF723FD04460D467F1040
:10085000002FEAD10698019B0028009A039902987C
:1008600006DA00F08BF93246079B00F087F905E0C5
:10087000FFF70EFD3246079BFFF70AFD049A002A98
:1008800002D00122D2075140099A03C2B4E7FFB552
:1008900091B0002009900025ED432E209E685C68F1
:1008A0001F460190B9696D1C129888470090396AFB
:1008B00088470028F6D10098401C0AD00D20C001BE
:1008C0008443002E12DD00982B2809D02D280DD14D
:1008D00003E00020C04315B0F0BD012080020443B6
:1008E000B9696D1C12988847761E009003A96005AF
:1008F00001D52D2000E02B206A461073491C0CA85E
:100900000F9102900AE0B9696D1C12988847009017
:100910000120400204431398761E0560002E02DD7C
:1009200000983028EFD001990098884245D1802066
:10093000044308E00998401E099001204002044346
:100940001399681C0860B9696D1C761E1298884757
:1009500000903028EED030E00199884205D1200681
:1009600003D480200443761E1DE0009802F0FBFAB9
:10097000002825D0012149020C43009807AA0F99AD
:1009800003323038761E914208D208700F98401C0E
:100990000F90200607D50998401E03E0200602D4D8
:1009A0000998401C0990A00502D51399681C08609D
:1009B000B9696D1C129888470090002ECCDC59E074
:1009C000002E57DD0098652801D0452852D1A0059A
:1009D00050D5032000028443B9696D1C761E12981D
:1009E00088470090002E0CDD2B2804D02D2808D13C
:1009F000FF2001300443B9696D1C12988847761EA8
:100A00000090E00501D52D2100E02B210298017016
:100A10000298401C0290019025E00120400204430E
:100A20000EA902980131761E88420ED200980299D2
:100A300030380006000E087003D1029901988142F7
:100A40000AD90298401C029006E0E00501D524482E
:100A500001E0234840420990B9696D1C129888470B
:100A6000009013980560002E04DD009802F07BFAD8
:100A70000028D2D1F969129888470F99FF20087091
:100A8000029903AA087000200A900B900CA90AA8EA
:100A9000099BFFF76DFEA00502D40120C0431AE7B1
:100AA0002420044209D0E00713D138680B9A0A9930
:100AB000031D3B60006806C00BE00B990A98FFF726
:100AC000F9FC0146E00704D13868021D3A6000686D
:100AD00001602846FFE60000000014400000F03FDF
:100AE000F1D8FFFF4268002A08D001680B78491C42
:100AF000002B03D0521E06C0184670470121C1606A
:100B0000881E70474268002A0BD0C3680168002B1A
:100B100007D183688B4204D0491E521C06C00020B6
:100B200070470020C043704730B5434351435C18C1
:100B3000010C130C0D465D432C1980B292B2054690
:100B4000554351430A0C09044D1962415843010CA5
:100B500000044019514130BD7F2801D9002207E02F
:100B6000054B42089A5CC00700D112091207120F08
:100B70000120904008407047882F0000F0B50C46D7
:100B80005C4085B0E40FE40703944C000026640841
:100B900059009446490802460296224321D06246F3
:100BA0000A431ED06200570D4A000E032303550D61
:100BB000012402462C492405781B1B0B360B4018D8
:100BC00023432643614600901C46501AB44103D388
:100BD0000098401C009002E0921800985B410028A9
:100BE00003DA0020014605B0F0BD0020012109050F
:100BF0000746864611E064461D46141BB54106D3E0
:100C00006546521BB341744607430C43A646CD07C5
:100C100040084908284392185B4105460D43EAD134
:100C20001046184313D0604619465040714008439F
:100C300006D06046101AB34106D20122002306E016
:100C400000220123DB0702E00122D2435310009867
:100C500074460105381C6141029C039D00196941DD
:100C6000FFF78BFCBFE70000FD0300000EB5054A4F
:100C700002920022009213460192FFF78BFC03B010
:100C800000BD00003304000070B58C180578401CCE
:100C90006B075B0F01D10378401C2A1106D1027843
:100CA000401C03E006780E70401C491C5B1EF9D105
:100CB0002B0705D40023521E0DD40B70491CFAE7F4
:100CC0000378401CCB1A921C03E01D780D70491C60
:100CD0005B1C521EF9D5A142D8D3002070BD80B54F
:100CE00082B01020019001F061FF019801F0B0FF87
:100CF00002B080BD10B588B000200790FFE70798CC
:100D0000042800D9E4E0079818220492424371486D
:100D1000059081188058496800F08EFB04990246BE
:100D20000598531E9A4106AB1A70079A5143401812
:100D3000007CC007002811D1FFE706A80078C00793
:100D400000280BD1FFE7079818214143614840185C
:100D5000807D01210840012815D0FFE70798182160
:100D600041435C484018407D0121084001280AD0D9
:100D7000FFE707981821414356484018007DC007F7
:100D8000002809D0FFE7079818214143514841182E
:100D9000002048610861FFE70798182141434D484A
:100DA0004018007CC007002822D1FFE706A8007881
:100DB000C00700281CD0FFE70799182202921046AE
:100DC0004843444903910B1801209875079C13462A
:100DD0006343CB185874079B5A438918C87401F0B1
:100DE00085FE029A0399079B5A4389188860FFE79A
:100DF00007981821414337484018007CC007002855
:100E000018D0FFE706A80078C007002812D1FFE736
:100E100007981821009141432E4801904118012064
:100E2000887401F063FE009A0199079B5A43891860
:100E3000C860FFE707981821414326484018807D85
:100E4000C007002835D1FFE7079818214143214802
:100E50004118C8688968884201D1FFE728E00798EF
:100E6000182141431B484118C8688968401A800806
:100E70004A280ED8FFE7079818210A46424315482A
:100E8000831801225A75079A514341188868C8602F
:100E90000DE0079818210A4642430E4883180122A4
:100EA0001A75079A514341188868C860FFE7FFE741
:100EB000FFE706A80078079918224A4305498918D0
:100EC000012210400874FFE70798401C079016E7BE
:100ED00008B010BDB000202080B584B00020039081
:100EE000FFE70398012828D8FFE703982421009101
:100EF0004143DD480190405601F044FE00990198BD
:100F0000039A5143401801210291405601F03AFEE4
:100F100000990198039A5143405601F085FE009ACA
:100F200001980299039B5A438018405601F07CFEB9
:100F3000FFE70398401C0390D3E704B080BDC04690
:100F400080B582B01520019001F0F4FD019801F008
:100F500043FE02B080BD000081B000200090FFE79A
:100F60000098012815D8FFE70098182242438649C7
:100F700089180301084AD018D2588A60C2684A61A9
:100F800082680A614068C860FFE70098401C0090D2
:100F9000E6E701B07047C0466401202080B592B0FA
:100FA000024611A8027010AA11800078022801D30D
:100FB000FFE7DEE0002110A8405E01282CDBFFE700
:100FC000002110A8405E6C49884225DCFFE711A88B
:100FD0000D90007818210E9141436B480F904118F5
:100FE0008868C96800F06EFA0D9A0E990F98127809
:100FF000514341180869496900F084F90D9A0E9926
:101000000F981278514342184058002310A9C95E26
:10101000127900F0BFFCACE0002110A8405E5749F7
:10102000884223DBFFE711A80A90007818210B9172
:10103000414355480C9041188868C96800F042FA4D
:101040000A9A0B990C98127851434118086949691A
:1010500000F058F90A990B9A0C9809784A438118BC
:1010600080580A79454900F095FC81E0002110A8DC
:10107000405E00282DD5FFE7002110A8405E4049C2
:10108000884226DBFFE711A8079000781821089115
:1010900041433D48099041180869496900F012FA36
:1010A000079A089909981278514341188868C968C5
:1010B00000F028F9079A08990998127851434218C4
:1010C0004058002310A9C95E4942127900F062FC21
:1010D0004DE0002110A8405E2A49884223DCFFE74A
:1010E00011A80490007818210591414326480690E4
:1010F00041180869496900F0E5F9049A05990698CC
:101100001278514341188868C96800F0FBF80499C7
:10111000059A069809784A43811880580A79174930
:1011200000F038FC22E011A801900078182102910B
:1011300041431548039041188868C96800F0C2F916
:10114000019A029903981278514341180869496934
:1011500000F0B8F90199029A039809784A43811876
:1011600080580A79002100F015FCFFE7FFE7FFE750
:10117000FFE712B080BDC0460F2700001027000017
:10118000F1D8FFFFF0D8FFFF8401202080B582B0A6
:101190000F20009001F0E2FC009801F031FD0D20DD
:1011A000019001F0DBFC019801F02AFD02B080BD46
:1011B00010B586B000200590FFE70598012851D8AA
:1011C000FFE70598242102914143274803904018E6
:1011D0004069FFF737F92549FFF71CF82449FFF765
:1011E00019F8029A0146039804910499059B5A4301
:1011F00080180090C069FEF777FF0099C8610498D5
:101200001C49FEF7CAFF1C49FFF704F8029A014681
:101210000398059B5A4380180190006AFEF764FF0B
:10122000019908620498FFF731F9144A144BFFF74B
:101230002FF801229207134BFFF72AF8FFF73AF92C
:10124000029902460398059C0B466343C3189A61B2
:10125000059A5143411800204861FFE70598401C5A
:101260000590AAE706B010BD6800202000003644B3
:101270008FC2F53C9A99D9400000C842182D4454B9
:10128000FB21094033331B40811E091F00BFFCD2E4
:10129000704784B003900291019203980068009017
:1012A000009801998843009000980299019A114092
:1012B00008430399086004B07047000082B00190B1
:1012C0000091009B0199094A88581843885002B040
:1012D0007047C04682B001900091009B0199034A7B
:1012E00088581843885002B07047C0464810000024
:1012F00082B0019000910098019995225201885086
:1013000002B0704782B00190009100980199952237
:101310005201885002B0704782B001900091009B4A
:101320000199034A88581843885002B07047C04654
:101330002810000082B00190009100980199024AA3
:10134000885002B07047C046D012000081B00090B3
:1013500000990120C2020248885001B07047C0467F
:101360000100002682B00190009101980249405886
:101370000099084002B070473810000010B584B0E2
:10138000069C0390029101920093029801990843F0
:1013900000990843069908430349084303998900C3
:1013A000244A885004B010BD8100040081B0009030
:1013B000009881001F4A8120885001B07047C046C4
:1013C00010B584B0069C039002910192009302989C
:1013D000019908430099084306990843812108436D
:1013E00003998900134A885004B010BD81B0009061
:1013F000009881000F4A0020885001B07047C04615
:1014000082B0019000910098034908430199890036
:10141000084A885002B070478000040082B00190F2
:10142000009100988021084301998900014A885061
:1014300002B070470480424082B001900091019850
:101440002721C90140580099084002B0704782B076
:101450000190009101982721C90140580099084046
:1014600002B0704782B00190009101982721C90114
:1014700040580099084002B07047000081B00090C9
:101480000099024A0248885001B0704704080000E1
:10149000030000B182B001900091009B0199034AC2
:1014A00088581843885002B07047C0469013000017
:1014B00082B00190009100980199074A885002B0CB
:1014C0007047C04682B00190009100980199024A8D
:1014D000885002B07047C0469012000082B0019060
:1014E0000091009B01999D20420188581843885023
:1014F00002B0704782B00190009100980199024AB1
:10150000885002B07047C046B0120000F0B584B0F9
:1015100001242202344B19680392914319606A49ED
:101520000D686D04FCD5457E25409E69A64374195F
:101530009C612024045D03252C40DE69AE433419F0
:10154000DC611F4C256805262660466A37681F62E5
:1015500076685E6207262E402660C4697F252D02CC
:10156000DE69AE436406640C3419DC6107684568C3
:1015700082680092C66802690192426902929A6981
:10158000104C14403A07120B2D03ADB2AA18324387
:10159000009D2D072D0D1543019A1543029A154301
:1015A000007E2843084A0240101998611868039A7F
:1015B0001043186008688005FCD504B0F0BDC04633
:1015C000001340408D00F0FF72FF0F0006490868CD
:1015D0000122904308607047034908680122120203
:1015E000904308607047C04608010B4081B0014637
:1015F0006846017000780249086001B07047C04633
:1016000008030B4080B582B0014601A80180018823
:101610000F2002022B48FFF73CFE02B080BDC046FF
:10162000F0B5124B1D46083D2E680124A6432E60DE
:101630000326360330401F68B7433818186018680F
:10164000FF26B043C9B240181860286820432860BC
:1016500018682107002A06D0084318601A48016854
:10166000C905FCD5F0BD88431860F0BD10010B40E2
:1016700080B582B0014601A80170017802480322BA
:10168000FFF707FE02B080BD00010B4080B582B0BD
:10169000014601A8017001780A483022FFF7F9FDE0
:1016A00002B080BD07498860074802689202FCD5F5
:1016B000012212040B6813430B600168C906FCD5B4
:1016C0007047C04604010B4004020B4082B00190F9
:1016D000009100980199024A885002B07047C046B4
:1016E0004810000081B000900099024A0120885003
:1016F00001B070470811000082B001900091009B7A
:101700000199CA4A88581843885002B07047C046A9
:1017100081B0009000990120C202CA48885001B0EF
:101720007047C04681B0009000988121490140581F
:10173000C0B201B0704781B000900098812149018A
:101740004058C0B201B07047F0B5AA4A82183B4B6E
:10175000C31808794E793A4D774C002E23D02028B3
:1017600004D00526F601002803D003E0354E0028FA
:1017700000D18826576F2F4037435767976F2F4008
:1017800037439767566B26405663966B26409663A1
:101790000026566596658F26F6435F6837405F6082
:1017A0009F6837409F608E79096820280BD00028F9
:1017B00019D1491E5160D76E2F4088210F43D7663B
:1017C0001746703719E0491E5160D16E29401D4FF0
:1017D0003943D166116F2940394311670121490707
:1017E000194D174609E049085160D76E2F40052171
:1017F000C9010F43D766174670373C682C400C432D
:101800003C60D16A4C4C2140D162116B2140116384
:101810000021D16411658F21C943D46F0C40D46776
:101820001C680C401C600643BD2030401168074B0B
:101830000B40C018801C1060F0BDC046841800002A
:1018400024493E0001040000FFFFFFCF4000FFCF0E
:10185000B0B54A68364BC250664A80180A78222AC8
:1018600058D8930001A4E3589F46C0460B190000C6
:10187000151900000B1900001519000015190000BA
:1018800015190000151900001519000015190000A0
:101890001519000015190000151900001519000090
:1018A000151900001519000015190000F91800009D
:1018B00015190000F918000015190000151900008D
:1018C0001519000015190000151900001519000060
:1018D0001519000015190000151900001519000050
:1018E000151900001519000015190000F91800005D
:1018F00015190000F918000003231B0704689C4316
:1019000001235B07E318036004E003231B0704685B
:101910009C4304600B69C360CB68064C1C40C36ADF
:10192000054D1D402B19C362097A11430160B0BDFA
:1019300008180000777702008888FDFF81B00090CA
:101940000099614A6148885001B0704782B00190A7
:1019500000910098019911221202885002B070473C
:1019600010B507239B04194092008018024A84583E
:101970009C436118815010BD3018000010B5029CC6
:10198000A400001911431943014A815010BDC046FB
:101990005018000092008018014A81507047C046DC
:1019A0001018000010B50122120383180C789C60F7
:1019B0004B7883508978014A815010BD0C1100008A
:1019C00010B586B001930B4601460198059104A914
:1019D0000B8003AB1A8002AA10800598054C0019F1
:1019E00009881B88194312881143034AFFF751FCE9
:1019F00006B010BD0418000080FF000081B0009008
:101A0000009911200202885801231843885001B020
:101A10007047000082B001900091009B0199034A39
:101A200088581843885002B07047C04628100000FC
:101A300081B0009000990120C2020248885001B094
:101A40007047C0460100002681B0009000988121B7
:101A500049014058C0B201B070470000B0B5112232
:101A6000120283580124A34383500B888C781C43B3
:101A70008B882343094C1C408358094D1D40631932
:101A800083508B79CC791C43097A21437E231940FA
:101A9000801842689A4351184160B0BD1867000031
:101AA000E798FDFF81B00090009802494058C0B20D
:101AB00001B070472411000081B000900099024AE3
:101AC0000248885001B0704704080000030000B1CC
:101AD00080B584B003900291019203980B4940189D
:101AE00002990B4AFFF7D5FB03980A494018019960
:101AF0003F22FFF7CEFB0399074A88188958012235
:101B00001140FFF7C6FB04B080BDC04610110000B5
:101B1000FFFF0000141100000411000010B50122A5
:101B2000120383180C789C604978815010BD80B5F1
:101B300082B001900091019811210902401800998A
:101B40000322D203FFF7A5FB02B080BD034A801831
:101B500002681206FCD481617047C046081100007B
:101B600080B588B000200790FFE70798012800D9CA
:101B700081E007982421059141434048069041188F
:101B800048688968FFF7EEFB059A0699079B5A4358
:101B900089188968084088421FD1FFE707982421E7
:101BA000414336484118C8680969FFF750FC0028CE
:101BB00009D1FFE70798242141433048411848697B
:101BC000401C486108E00798242141432B484118F4
:101BD0004869401E4861FFE734E0079824210391DB
:101BE0004143264804904118C8680969FFF7BAFBC9
:101BF000039A0499079B5A43891809690840884247
:101C00001FD1FFE70798242141431C484118486829
:101C10008968FFF71CFC002809D1FFE707982421F9
:101C20004143164841184869401E486108E007983A
:101C300024214143114841184869401C4861FFE78D
:101C4000FFE7FFE707982421019141430B480290E9
:101C5000411848688968FFF73DFB01990298079A87
:101C600051434118C8680969FFF734FBFFE707983B
:101C7000401C079079E708B080BDC046680020206E
:101C800080B5012081050248FFF734FC80BDC046C5
:101C900000200A4010B5B0B02E902D912C922B93BD
:101CA0002B980021FEF786FB002803D1FFE70020D8
:101CB0002F905DE12E98C0682C99FEF766FA2D9959
:101CC00088612D98C0680021FEF74AFB00281DD1CD
:101CD000FFE72D9825908069FEF7D8FB02462598EE
:101CE00026920122D20791432791C068FEF7CEFBCE
:101CF000024626980B462799FEF78EFB002804D152
:101D0000FFE72D9900208861FFE7FFE72D982490D9
:101D100081690069FEF7E8F9249908612D98006847
:101D20000021FEF71DFB002824D1FFE72D991F910C
:101D3000086822900122D30702465A40209209697E
:101D40002191FEF71BFB014622980029239001D127
:101D500021982390209823991D91FEF72BFB014693
:101D6000209800291E9001D11D981E901F991E9841
:101D70000861FFE72D998869C969FEF706FA2B9972
:101D8000FEF748FA2A902D981690406914902A98E8
:101D90007949FEF702FA0146149815917749FEF742
:101DA000FCF91599FEF7A0F9169948612E981B9039
:101DB000016818912D991A918A69179240680969EA
:101DC000FEF7EBF91799024618981992FEF7E5F914
:101DD0001999FEF789F91A9902461B981C92806896
:101DE0004969FEF7DAF91C99FEF77EF929902D98DA
:101DF00040680021FEF7B4FA002800D0B2E029982C
:101E000028902E98C0680021FEF7AAFA002827D152
:101E1000FFE72D9880680021FEF7A2FA00281FD165
:101E2000FFE72D98816810914068129029991191CF
:101E3000FEF7A4FA014612980029139001D11198D7
:101E40001390109813990E91FEF7B4FA014610986A
:101E500000290F9001D10E980F900F98299055E00E
:101E60002E98C0680021FEF797FA00282BD1FFE7D3
:101E70002D9880680021FEF773FA002823D1FFE730
:101E80002D9882680121C9074A400A92406848405B
:101E90000C9029990B91FEF78DFA01460C980029B8
:101EA0000D9001D10B980D900A980D990891FEF7AD
:101EB00065FA01460A980029099001D1089809900D
:101EC0000998299021E02D98406806900121CA07C1
:101ED00001465140049129990591FEF74FFA0146B8
:101EE00006980029079001D1059807900498079952
:101EF0000291FEF75FFA014604980029039001D190
:101F00000298039003982990FFE7FFE72998289902
:101F1000FEF73BF9FEF7BAFA0122D2079143184BBC
:101F2000FEF764FA00281CD1FFE72E984068154997
:101F3000FEF716FA002814D1FFE728992998FEF732
:101F400024F92B99FEF729F92E994968FEF762F9D1
:101F500001462D9801900069FEF7C6F801990861C5
:101F6000FFE7FFE72D998869C86129982F90FFE75F
:101F70002F9830B010BDC046CDCC4C3FCDCC4C3EA0
:101F8000B5F8E43EBD37863580B584B014491548B0
:101F90000390FFF707FD03981349FFF7D5FB03985C
:101FA0000023029319461A46FFF70AFD029B039885
:101FB000009310221946FFF7E1FC029A039811469C
:101FC000FFF7CEFC029A03980849FFF7E3FC039859
:101FD000FFF788FB03980121FFF7B8FC04B080BD30
:101FE000C82F000000008640CC2F0000FFFF00003B
:101FF00080B582B00E490F480190FFF78FFD019820
:102000000D49FFF72BFD01980021FFF790FD019886
:10201000412189001B22FFF75BFD01980121890204
:10202000FFF7F8FC0198FFF7E9FC02B080BDC0465D
:10203000D42F000000801040D62F000080B58EB055
:102040000920FFF7D3F90A20FFF7D0F90620042171
:102050000191FFF7E3F9019971480990FFF76AF9D7
:10206000252005210291FFF7D9F9099801210A914C
:1020700009040691FFF75EF902992D20FFF7CEF9CA
:1020800009980A994905FFF755F91420022103918F
:10209000FFF7C4F903991520FFF7B2F9039913204C
:1020A000FFF7AEF9069A00230793009331201946F3
:1020B000FFF786F907990A98009181060491420476
:1020C0000592C30408933720FFF758F90499059A3D
:1020D0000798089B00902320FFF750F90499059A70
:1020E0000798089B00902420FFF748F90499059A67
:1020F0000798089B00902620FFF740F90499059A5D
:102100000798089B00903320FFF738F91F20FFF74E
:102110004DF92020FFF74AF90E20FFF747F90F206D
:10212000FFF744F9079A089B009232201146FFF707
:1021300025F9079A089B009239201146FFF71EF9EE
:10214000079A089B009221201146FFF717F9079A7A
:10215000089B009216201146FFF710F9059A07997F
:10216000089B00911020FFF709F9059A0799089B31
:1021700000911C20FFF702F9059A0799089B00912E
:102180002A20FFF7FBF8059A0799089B0091112078
:10219000FFF7F4F8059A0799089B00911D20FFF7B7
:1021A000EDF8069A0799089B00912C20FFF7E6F8B6
:1021B000079A089B009230201146FFF7DFF8099834
:1021C0000A990906FFF766F909980A9909030B911C
:1021D000FFF774F809980B99FFF79EF80A988105A4
:1021E000F3480C90FFF784F80C980E49FFF760F95C
:1021F0000C980D49FFF79EF80B990C98FFF74AF9D8
:102200000C980A49FFF76AF90C9809490D91FFF7F4
:1022100055F80C980D99FFF77FF80EB080BDC046B9
:1022200000000A400C8001000C804100004040008A
:102230004000800880B582B00A49E1480190FFF76C
:10224000B1FB01980849FFF703FB01980121FFF753
:1022500053FA1520032100F011FD0198FFF742FA0F
:1022600002B080BDE02F0000E42F000080B584B0F4
:102270001649D0480390FFF795FB03981449FFF7E0
:1022800063FA039801220292510392028023FFF71E
:1022900097FB02990398009110220023019319469D
:1022A000FFF76CFB0199029A0398FFF759FB029A1A
:1022B00003982249FFF76EFB0398FFF713FA039880
:1022C0000221FFF743FB04B080BDC046F82F000099
:1022D000FC2F000080B584B01649B7480390FFF783
:1022E00061FB03981449FFF72FFA03980122029229
:1022F000510392028023FFF763FB02990398009138
:102300001022002301931946FFF738FB0199029A26
:102310000398FFF725FB029A03980849FFF73AFB59
:102320000398FFF7DFF903980221FFF70FFB04B0D2
:1023300080BDC046043000000830000011270000B6
:1023400080B582B00B49ED480190FFF72BFB019857
:102350000949FFF77DFA019801210091FFF7CCF9B7
:102360000099102000F08AFC0198FFF7BBF902B039
:1023700080BDC046103000001430000080B582B02F
:102380000B4990480190FFF70DFB01980949FFF7B1
:102390005FFA019801210091FFF7AEF90099022040
:1023A00000F06CFC0198FFF79DF902B080BDC046BB
:1023B000283000002C30000080B582B00B49F7486F
:1023C0000190FFF7EFFA01980949FFF741FA0198E8
:1023D00001210091FFF790F90099112000F04EFCC7
:1023E0000198FFF77FF902B080BDC0464030000081
:1023F0004430000080B582B00F4973480190FFF768
:102400008DFB01980D49FFF729FB01980021FFF78B
:102410008EFB019815212D22FFF75AFB019801210F
:102420008902FFF7F7FA0D20022100F027FC01983E
:10243000FFF7E4FA02B080BD583000005A300000C7
:1024400080B582B000200190FFF7D0F80120009005
:102450004002FFF7D7F80198FFF70AF9FFF7B6F83F
:10246000FFF7BAF8009A032000030A21FFF7D8F813
:102470000748FFF74BF81020FFF708F90198FFF71E
:1024800011F90098019900F0F9FB02B080BDC04637
:102490006430000080B5024800F0D0F880BDC0462E
:1024A0008038010080B500F02DF8FFF7C7FDFFF779
:1024B000C7FFFFF7DBFEFFF70DFFFFF765FDFFF737
:1024C000B9FEFFF75BFFFFF777FFFFF739FFFFF775
:1024D0008FFDFFF78FFFFFF7DDFF06499C220020ED
:1024E00088540549B823C8540449C8540449885439
:1024F00080BDC046E4022020840320202802202042
:102500004004202080B58CB028480190FEF7B6FF2B
:1025100027480290FEF7B2FF26480390FFF70EFA15
:1025200025480490FFF70AFA24480590FFF706FAB9
:102530007E480690FFF702FAB9480790FFF7FEF9C8
:1025400096480890FFF7FAF96C480990FFF7F6F9FA
:1025500024480A90FFF7B0FA1B480B90FFF7ACFA3B
:102560000198FEF7F3FE0298FEF7F0FE0398FFF7DE
:10257000CFF80498FFF7CCF80598FFF7C9F806984C
:10258000FFF7C6F80798FFF7C3F80898FFF7C0F8F9
:102590000998FFF7BDF80A98FFF74AFA0B98FFF77A
:1025A00047FA1020FEF770FE0CB080BD00000A4014
:1025B00000200A4000A0864000208640000086409F
:1025C00000008740000009400000104080B582B044
:1025D000014601A801700178E248FFF7B7FA02B09E
:1025E00080BDC0460080104080B582B0024601A880
:1025F000027000910078002806D1FFE70098FDF7EF
:1026000021FF8949C8600BE001A80078012806D1A4
:10261000FFE70098FDF716FF8749C860FFE7FFE76F
:1026200002B080BD80B582B00220019000F0BEFAF9
:10263000019800F00DFB02B080BD000080B584B0B1
:1026400002900298401E000E002803D0FFE70120F0
:10265000039011E00298401E094908600020019093
:10266000C043032100F00AFB019806490860064AAE
:10267000072111600390FFE7039804B080BDC046B6
:1026800014E000E018E000E010E000E080B500F0A9
:1026900031FA80BD80B582B01848FFF74CF80128A8
:1026A00029D1FFE700F056FBA44800681449896966
:1026B000FDF773FD1349019108601348009000680D
:1026C000FDF7C0FE01990968FDF70EFDFDF7C5FE97
:1026D00001460020FFF788FF00980068FDF7B2FE72
:1026E00001990968FDF751FDFDF7B7FE014601208C
:1026F000FFF77AFF00E0FFE702B080BD004008402E
:1027000000002020200220206000202080B5074803
:10271000FFF708F8012807D1FFE7FEF7EBFA0348B7
:102720000121FEF7D3FF00E0FFE780BD00008740F6
:1027300080B582B01948FEF7FEFF01282AD1FFE7D5
:1027400000F08CF87348026815481649164BFFF7DD
:10275000A1FA164901910860154800900068FDF73C
:1027600071FE01990968FDF7BFFCFDF776FE014691
:102770000020FFF739FF00980068FDF763FE01991C
:102780000968FDF702FDFDF768FE01460120FFF72D
:102790002BFF00E0FFE702B080BDC046008086400E
:1027A00050002020F8012020CDCC4C3D0C052020ED
:1027B0006400202080B584B01948FEF7BCFF0128D2
:1027C0002BD1FFE7FEF7F4FC16480190826916480A
:1027D0001649174B0093FFF75DFA009B01460198DD
:1027E000144A02921160C26B13481449FFF752FA5F
:1027F00001460298124A039211600068FDF72DFE0F
:1028000001460020FEF7CAFB03980068FDF725FE8D
:1028100001460120FEF7C2FB00E0FFE704B080BDE7
:10282000000009406800202040002020D80120201E
:102830000AD7A33CEC04202030002020B80120203F
:10284000E804202080B582B01120019000F0AEF99C
:10285000019800F0FDF902B080BD000080B584B0A1
:102860002B490020086003900290FFE70298062899
:1028700032D8FFE70298C20028488118805849687A
:10288000FEF7F0FD00280FD0FFE7029882002449F0
:10289000012088501E48019000687F21C905FDF77E
:1028A00023FC0199086005E0029882001C49002081
:1028B0008850FFE70298820019498958401C484314
:1028C000FDF7C0FD01460398FDF70EFC0390FFE7FE
:1028D0000298401C0290C9E70D4800680021FDF7EE
:1028E00077FD002805D0FFE70B480068094908601C
:1028F0000BE0039806490968FDF78CFC0146054882
:102900000160006804490860FFE704B080BDC0466C
:10291000E004202024022020600120202801202023
:10292000F004202080B582B004480190C0680449BA
:10293000FDF7DAFB0199C86002B080BD20002020BD
:102940000000B44280B50748FFF77EF80B2806D197
:10295000FFE70448FFF7A6F80349087000E0FFE727
:1029600080BDC04600801040E404202080B582B0C5
:102970002448FFF769F80B2842D1FFE72148FFF709
:1029800091F8014601A801701F4909786A46117043
:1029900000780D2805D0FFE701A800780A2819D192
:1029A000FFE768460078012813DBFFE768460278F6
:1029B000164800218154E64900F036FA002804D078
:1029C000FFE7134901200870FFE7694600200870FF
:1029D000FFE711E0684600781E2808DCFFE7019851
:1029E0006B461A78511C19700849885403E06946EF
:1029F00000200870FFE7FFE7009803490870FFE731
:102A000002B080BD000010401006202010052020DC
:102A10001802202080B588B00690059106980028FD
:102A200004D0FFE70598002804DCFFE707A9002091
:102A300008703AE000200490FFE704980599884266
:102A40001BDAFFE7069804998900401803900020DC
:102A50000290FFE7029803280ADCFFE70398029937
:102A6000405CFFF7B3FDFFE70298401C0290F1E7DE
:102A7000FFE70498401C0490DFE7FF20C0050190A9
:102A800000200090FFE7009803280ADCFFE7009988
:102A900001A8405CFFF79AFDFFE70098401C0090FA
:102AA000F1E707A901200870FFE707A8007808B040
:102AB00080BD80B584B0039000F018F802900398B0
:102AC00001900198401C002804D0FFE70198401CA9
:102AD0000190FFE7FFE700F009F80299401A019919
:102AE000884201D2FFE7F6E704B080BD04480068E1
:102AF0007047C04602490868401C08607047C046DD
:102B00001406202080B582B0019000910198002821
:102B100001D1FFE70BE000980078C007002806D03D
:102B2000FFE701988047009900200870FFE702B096
:102B300080BD000081B0014668460170002140560A
:102B4000002809D4FFE7684601781F2001400120D2
:102B5000884020490860FFE701B0704781B0014616
:102B60006846017000214056002809D4FFE76846F6
:102B700001781F2001400120884016490860FFE7C6
:102B800001B0704781B0014668460170002140568F
:102B9000002809D4FFE7684601781F200140012082
:102BA00088400C490860FFE701B0704781B00146DA
:102BB0006846017000214056002809D4FFE76846A6
:102BC00001781F2001400120884002490860FFE78A
:102BD00001B0704780E200E081B0014668460170B4
:102BE00000214056002809D4FFE7684601781F20DD
:102BF00001400120884020490860FFE701B070478C
:102C000081B001466846017000214056002809D471
:102C1000FFE7684601781F200140012088401649DF
:102C20000860FFE701B0704781B001466846017057
:102C300000214056002809D4FFE7684601781F208C
:102C40000140012088400C490860FFE701B070474F
:102C500081B001466846017000214056002809D421
:102C6000FFE7684601781F200140012088400249A3
:102C70000860FFE701B0704700E100E070B582B086
:102C8000024601A80270009100214056002816D487
:102C9000FFE7002401A908570322D3431840174A2D
:102CA000805809578C07E50EFF24AC40A043009CD8
:102CB000A401E4B2AC402043194088501AE001A9B5
:102CC00008780F24204008380322D34318400A4ACA
:102CD0008058002549578D07EE0EFF25B540A843C3
:102CE000009DAD01EDB2B54028432140083919409F
:102CF0008850FFE702B070BD1CED00E000E400E08A
:102D000080B584B000200390FFE70398FF21F431E1
:102D1000884211DCFFE7424801683C480290C068E5
:102D2000FDF7E2F90299C8600120FFF7C2FEFFE754
:102D30000398401C0390E8E734480190C0680349B9
:102D4000FDF768FA0199C86004B080BD0000FA433D
:102D50001C02202080B584B02C48C0682C49FDF7A7
:102D6000FFFA002807D1FFE72848C0682B49FDF784
:102D7000BBF9039015E02548C0682649FDF70CFB18
:102D8000002807D1FFE72148C0682349FDF7ACF9C7
:102D9000029003E01D48C0680290FFE7029803908C
:102DA000FFE703991948C160C0681D490968FDF72C
:102DB000ECF901461B48816180691549FDF7DEFA8F
:102DC000002807D1FFE7174880691449FDF78CF9FF
:102DD000019015E0134880690E49FDF7EBFA0028D1
:102DE00007D1FFE70F4880690B49FDF77DF9009097
:102DF00003E00C4880690090FFE700980190FFE72E
:102E000001980849886104B080BDC0462000202098
:102E100000003443000034C30000B4430000B4C3D6
:102E20001C0220200000202080B586B00490039171
:102E30000498002804D0FFE70398002804D1FFE796
:102E400005A90020087018E0049802A900F092F883
:102E5000039908600299049A00209142019006D0DB
:102E6000FFE702980078414248410190FFE701984E
:102E70000121084005A90870FFE705A8007806B001
:102E800080BD000080B584B000200390FFF70AFBEE
:102E9000FEF756F8FEF77AF9FEF71EF8FEF75CF833
:102EA000FFF72EFFFFF7BEFBFFE712490191143138
:102EB0001148FFF727FE019915311048FFF722FE50
:102EC000019941310E48FFF71DFE01992A310D4845
:102ED0000290FFF717FE019902985C31FFF712FE8E
:102EE000019902987231FFF70DFE07480421FFF7A0
:102EF00091FDDAE7B000202045280000DF0C00003B
:102F000025290000811C0000180620202021020C29
:102F100001D010211046020A01D0104608390209DA
:102F200001D01046091F820801D01046891E4208B0
:102F300001D0881E7047081A70470000000000008A
:102F400002E008C8121F08C1002AFAD17047000029
:102F50007047000000000000002001E001C1121FC6
:102F6000002AFBD1704730380A2801D2012070476F
:102F70000020704708B50A460021009101466846C6
:102F8000FDF7B4FA009808BDDDDDDDDDDCBBBBDD9F
:102F9000DDDDDDDDDDDDDDDD9888888888888888F9
:102FA0007777777777888888855555566666666619
:102FB00066666666666888888333333222222222F8
:102FC000222222222228888D08000000FFFF000014
:102FD000000101000800000018000000003000009F
:102FE00008070000020000003F0D03000100000080
:102FF0000000000000000000080000001127000091
:10300000000001000800000011270000000001007E
:1030100008070900020000008713000001000000FB
:10302000000000000000000008076300020000002C
:10303000E7030000010000000000000000000000A5
:1030400008070900020000004FC300000100000053
:103050000000000000000000080000000800000060
:10306000003000000100000000000000000000002F
:10307000000000000000000010000000000100003F
:1030800003000000000000003400C441B030000024
:1030900000002020B8010000880C0000383100003A
:1030A000B8012020B0140000582F000000000000DC
:1030B000E10310803FDCCDCC4C14975E43B81ED5A5
:1030C00040BBC0A6108CF628FC1C1134804023297C
:1030D000043301012B200A1C4A08080211803924FC
:1030E00011191C4A102C9949A149440212021918BD
:1030F000091053491809124949483972F93009121F
:103100005F19302997393859A0392819086A2018C9
:10311000290939185A080829111A8018290C196B1D
:10312000290829A419085A0434192A210C11A08647
:0831300040891920091518312E
:04000005000000C136
:00000001FF
