:020000040000FA
:1000000038072020D5000000D9000000DB000000E8
:1000100000000000000000000000000000000000E0
:10002000000000000000000000000000DD000000F3
:100030000000000000000000DF0000007926000042
:10004000E3000000511B00003D270000E30000001A
:10005000E3000000E3000000E3000000E300000014
:1000600000000000E3000000E300000000000000CA
:1000700000000000D5280000E3000000AD280000CB
:1000800081260000BD260000E3000000E300000020
:10009000E3000000992600000000000000000000BE
:1000A000E3000000E300000000000000000000008A
:1000B000E300000000000000E3000000E300000097
:1000C0000348854600F00CFB00480047452C000023
:1000D0003807202003480047FEE7FEE7FEE7FEE77B
:1000E000FEE7FEE7C1000000F8B502464A40D40F23
:1000F00042004B0052085B089A4202D20246084670
:1001000011464A0023D0C30D4A00DDB2120EAD1ACB
:10011000202D35DA49020126490AF6058A19002CF4
:1001200000D0524220214F1B1146B9402A411018DD
:10013000C20D9A4221D0002C17D0012D08DCDA051F
:10014000801AD20F8019D207DBB200F031FAF8BD65
:10015000DA05801A012340001B06C01880185A4295
:100160008018CA0F1043490007E04908C20711432D
:10017000DA05801A80194008801800F011FAF8BDDD
:1001800061000122511A001BF7E70122D2075140FA
:10019000AAE70122D2075040A6E7024670B54A40BE
:1001A000D30FDB0740002DD04A002AD0010E140ED9
:1001B000000212020919400A520A8418E501044695
:1001C0005443000A120A2E045043A4194219200C69
:1001D000C543AA18120C0125AD03521C5219120472
:1001E0007F39240400D0521C104301D44000491E22
:1001F000C2B20C06C0092018401C4008802A02D058
:1002000003E0002070BD40084000002900DA002013
:10021000184370BD70B502464A40D50F40004A00F1
:10022000ED0740085208002814D0002A12D0C40D4F
:10023000D30D41020120C0055202490A520AE41AB4
:10024000091812187D34914201D3641C00E0490062
:10025000002C01DA002070BD0023914201D3891ADD
:100260000343400849000028F7D100290AD09142F1
:1002700002D10121C90705E0914201D2012101E02B
:100280000121C943E005C018401900F089F970BD8B
:10029000F0B51FB488B00B9909980024484009991B
:1002A000C00F490049080991C0070B990090490007
:1002B00049080B9109990898A64608431CD00B9948
:1002C0000A98084318D0099801244000420D4800BC
:1002D000410D099824050003000B204309900B9859
:1002E0000003000B20430B9050181C4940180022BB
:1002F00001901446104605E0002001460DB0F0BD07
:10030000032801DA034600E003239C46C11A0AAE23
:100310000AE05F0008ADED5B4F00F75B7D4300270F
:10032000AA187C41491C5B1E6145F2DD410004AB0B
:100330005A522104120C0A43240C401C0828DFDB0B
:10034000019802900099704601910090059B049AD3
:100350000799069800F072F9D0E700000DFCFFFF46
:100360000122D207002800DB101A002900DB511AF5
:10037000814201D801207047002070470122D20736
:10038000002800DB101A002900DB511A814201D23B
:1003900001207047002070470122D207002800DBAF
:1003A000101A002900DB511A814201D30120704745
:1003B000002070470122D207002800DB101A002914
:1003C00000DB511A814201D901207047002070479B
:1003D0000122D207002800DB101A002900DB511A85
:1003E000814201D1012070470020704710B50029DB
:1003F00004DB0C460121C9074042A141002B04DB6C
:100400001C460123DB075242A341801A994101D3C4
:10041000012010BD002010BD10B5002904DB0C46E2
:100420000121C9074042A141002B04DB1C460123E6
:10043000DB075242A341101A8B4101D3012010BDAA
:10044000002010BDC217C10F504010B54018CA0798
:100450009623002100F0ACF810BDC20F410040020D
:100460000123400ADB05D207090EC0187F2901DAF3
:1004700000207047962903DC9623591AC84001E0F2
:1004800096398840002AF4D040427047C20FD20704
:10049000400040080BD0C10D0723DB01C918400202
:1004A0000905400A1143C208400711437047002064
:1004B00001467047CB0FDB07490010B549080246DB
:1004C0000A4307D00A0D07240903E401090B121B94
:1004D000002A01DC002010BDC900440F0C43C100FC
:1004E000E018D205801800F05BF810BD0FB400B51D
:1004F00089B00A460DA9009100230C99002ACB600F
:10050000234B0693234B079301D0042300E00023E1
:10051000214A0292214A0892019302466B4600202A
:1005200000F0ADF909B008BC04B01847F0B585B0CB
:1005300007460020C04301901E46002015460C4689
:100540000091029104903B466A46314604A8FFF7A9
:10055000CDFF049902466018002D05D0002901D076
:10056000034600E023462B6000290ED0002A02DD5E
:100570000099814209D0001B019000943B466A46D5
:100580003146029404A8FFF7B1FF05B0F0BD0000AA
:10059000D50A0000F50A0000FFFFFF7F53070000A7
:1005A000002904DA401C490001D14008400070478E
:1005B00070B40024050C05D11024000402D10029D8
:1005C00021D01124050E01D100020834050F01D1FC
:1005D0000001241D850F01D18000A41C002801DB2F
:1005E0004000641C002908D020252E1B0D46F54034
:1005F000A14000D001212943084301061B1B000A2A
:10060000DB1D02D5002070BC7047DB051818801870
:100610000029F8DA401C4900F5D170BC40084000C0
:10062000704710B5002B08DA0024401C6141921875
:100630005B411A4301D14008400010BDF0B51FB422
:1006400082B005460C0003D0084602F03BFB02E0F6
:1006500002F038FB2030024600902146284600F088
:1006600057F8049B059A04460F4618431143084364
:1006700014D0184610431BD0009840210A1A18467F
:10068000059900F055F805460E46009A059904981C
:1006900000F03EF8084305D0012004E0204639462A
:1006A00007B0F0BD0020C11705430E432C4337436C
:1006B00000990E986305401A7905E40A00220C435C
:1006C000FD0A0A3002D500200146E9E701051019AC
:1006D00069410C9C0D9D00196941FFF7A2FFDFE7FE
:1006E0001CB5094800900948019005460126009C68
:1006F00005E0E36807CC33430C3C98471034AC4228
:10070000F7D3FFF7E1FC0000742E0000942E0000E8
:1007100010B5202A04DB0146203A9140002010BD8C
:10072000914020239C1A0346E3401943904010BD9A
:1007300010B5202A04DB0846203AD040002110BD25
:100740000B46D340D0402024A21A914008431946BA
:1007500010BD10B50F21C0B2490200F0F5F910BD6F
:10076000FFB5087889B01546FF2805D0491C2D280B
:1007700004D00022002407E000240BE00122F9E766
:100780000A235C430419491C0878FF28F8D1002A81
:1007900000D06442002004902A7801462D2A01D01E
:1007A0002B2A0FD16D1C2D2A02D00022049209E0C1
:1007B0000122FBE700260A2233466D1C00F0ACF94B
:1007C000381871412F78FF2FF4D10C9AA218069295
:1007D00002460A4304D0FF23069A9133DA4205DA2F
:1007E000002109980A4606C00DB0F0BD0024B74AA2
:1007F000B54D2646079200F031FA02900698039113
:10080000002801DA474200E0074639050020AF4AD8
:10081000001C51410191009012E0F80707D02246D8
:100820002B4630460799FFF733FD064607912246CF
:100830002B4610461946FFF72BFD04460D467F1048
:10084000002FEAD10698019B0028009A039902988C
:1008500006DA00F08BF93246079B00F087F905E0D5
:10086000FFF716FD3246079BFFF712FD049A002A98
:1008700002D00122D2075140099A03C2B4E7FFB562
:1008800091B0002009900025ED432E209E685C6801
:100890001F460190B9696D1C129888470090396A0B
:1008A00088470028F6D10098401C0AD00D20C001CE
:1008B0008443002E12DD00982B2809D02D280DD15D
:1008C00003E00020C04315B0F0BD012080020443C6
:1008D000B9696D1C12988847761E009003A96005BF
:1008E00001D52D2000E02B206A461073491C0CA86E
:1008F0000F9102900AE0B9696D1C12988847009028
:100900000120400204431398761E0560002E02DD8C
:1009100000983028EFD001990098884245D1802076
:10092000044308E00998401E099001204002044356
:100930001399681C0860B9696D1C761E1298884767
:1009400000903028EED030E00199884205D1200691
:1009500003D480200443761E1DE0009802F0EAF9DB
:10096000002825D0012149020C43009807AA0F99BD
:1009700003323038761E914208D208700F98401C1E
:100980000F90200607D50998401E03E0200602D4E8
:100990000998401C0990A00502D51399681C0860AD
:1009A000B9696D1C129888470090002ECCDC59E084
:1009B000002E57DD0098652801D0452852D1A005AA
:1009C00050D5032000028443B9696D1C761E12982D
:1009D00088470090002E0CDD2B2804D02D2808D14C
:1009E000FF2001300443B9696D1C12988847761EB8
:1009F0000090E00501D52D2100E02B210298017027
:100A00000298401C0290019025E00120400204431E
:100A10000EA902980131761E88420ED200980299E2
:100A200030380006000E087003D102990198814207
:100A30000AD90298401C029006E0E00501D524483E
:100A400001E0234840420990B9696D1C129888471B
:100A5000009013980560002E04DD009802F06AF9FA
:100A60000028D2D1F969129888470F99FF200870A1
:100A7000029903AA087000200A900B900CA90AA8FA
:100A8000099BFFF76DFEA00502D40120C0431AE7C1
:100A90002420044209D0E00713D138680B9A0A9940
:100AA000031D3B60006806C00BE00B990A98FFF736
:100AB00001FD0146E00704D13868021D3A60006874
:100AC00001602846FFE60000000014400000F03FEF
:100AD000F1D8FFFF4268002A08D001680B78491C52
:100AE000002B03D0521E06C0184670470121C1607A
:100AF000881E70474268002A0BD0C3680168002B2B
:100B000007D183688B4204D0491E521C06C00020C6
:100B100070470020C043704730B5434351435C18D1
:100B2000010C130C0D465D432C1980B292B20546A0
:100B3000554351430A0C09044D1962415843010CB5
:100B400000044019514130BD7F2801D9002207E03F
:100B5000054B42089A5CC00700D112091207120F18
:100B600001209040084070476E2D0000F0B50C4603
:100B70005C4085B0E40FE40703944C000026640851
:100B800059009446490802460296224321D0624603
:100B90000A431ED06200570D4A000E032303550D71
:100BA000012402462C492405781B1B0B360B4018E8
:100BB00023432643614600901C46501AB44103D398
:100BC0000098401C009002E0921800985B410028B9
:100BD00003DA0020014605B0F0BD0020012109051F
:100BE0000746864611E064461D46141BB54106D3F0
:100BF0006546521BB341744607430C43A646CD07D6
:100C000040084908284392185B4105460D43EAD144
:100C10001046184313D060461946504071400843AF
:100C200006D06046101AB34106D20122002306E026
:100C300000220123DB0702E00122D2435310009877
:100C400074460105381C6141029C039D00196941ED
:100C5000FFF7E7FCBFE70000FD0300000EB5054A03
:100C600002920022009213460192FFF7E7FC03B0C4
:100C700000BD00003304000070B58C180578401CDE
:100C80006B075B0F01D10378401C2A1106D1027853
:100C9000401C03E006780E70401C491C5B1EF9D115
:100CA0002B0705D40023521E0DD40B70491CFAE704
:100CB0000378401CCB1A921C03E01D780D70491C70
:100CC0005B1C521EF9D5A142D8D3002070BD000094
:100CD00010B588B000200790FFE70798042800D9D6
:100CE000E3E0079818220492424371480590811866
:100CF0008058496800F08EFB049902460598531EFF
:100D00009A4106AB1A70079A51434018007CC007FD
:100D1000002811D1FFE706A80078C00700280BD1F2
:100D2000FFE707981821414361484018807D012161
:100D30000840012815D0FFE70798182141435C4877
:100D40004018407D0121084001280AD0FFE707989C
:100D50001821414356484018007DC007002809D09B
:100D6000FFE7079818214143514841180020486186
:100D70000861FFE70798182141434D484018007C5F
:100D8000C007002822D1FFE706A80078C007002886
:100D90001CD0FFE7079918220292104648434449A5
:100DA00003910B1801209875079C13466343CB18D9
:100DB0005874079B5A438918C87401F039FE029A87
:100DC0000399079B5A4389188860FFE70798182101
:100DD000414337484018007CC007002818D0FFE77F
:100DE00006A80078C007002812D1FFE7079818214D
:100DF000009141432E48019041180120887401F070
:100E000017FE009A0199079B5A438918C860FFE7AB
:100E100007981821414326484018807DC0070028C4
:100E200034D1FFE707981821414321484118C86889
:100E30008968884201D1FFE727E0079818214143DC
:100E40001B484118C8688968401AC7280ED8FFE7B0
:100E5000079818210A4642431548831801225A75FB
:100E6000079A514341188868C8600DE00798182117
:100E70000A4642430E48831801221A75079A5143C5
:100E800041188868C860FFE7FFE7FFE706A8007819
:100E9000079918224A43064989180122104008740C
:100EA000FFE70798401C079017E708B010BDC04641
:100EB0008000202080B584B000200390FFE70398D5
:100EC000012828D8FFE70398242100914143DD48F9
:100ED0000190405601F0F8FD00990198039A5143A2
:100EE000401801210291405601F0EEFD0099019851
:100EF000039A5143405601F039FE009A0198029935
:100F0000039B5A438018405601F030FEFFE70398D8
:100F1000401C0390D3E704B080BDC04680B582B0CA
:100F20001520019001F0A8FD019801F0F7FD02B035
:100F300080BD000081B000200090FFE700980128EC
:100F400015D8FFE700981822424386498918030103
:100F5000084AD018D2588A60C2684A6182680A6119
:100F60004068C860FFE70098401C0090E6E701B0C9
:100F70007047C0463401202080B592B0024611A8C7
:100F8000027010AA11800078022801D3FFE7DEE08A
:100F9000002110A8405E01282CDBFFE7002110A8EB
:100FA000405E6C49884225DCFFE711A80D9000786F
:100FB00018210E9141436B480F9041188868C96809
:100FC00000F06EFA0D9A0E990F981278514341185D
:100FD0000869496900F084F90D9A0E990F98127802
:100FE000514342184058002310A9C95E127900F0FD
:100FF000BDFCACE0002110A8405E5749884223DBCD
:10100000FFE711A80A90007818210B914143554839
:101010000C9041188868C96800F042FA0A9A0B9946
:101020000C981278514341180869496900F058F941
:101030000A990B9A0C9809784A43811880580A79C2
:10104000454900F093FC81E0002110A8405E002893
:101050002DD5FFE7002110A8405E4049884226DBDD
:10106000FFE711A8079000781821089141433D48F7
:10107000099041180869496900F012FA079A08991D
:1010800009981278514341188868C96800F028F916
:10109000079A08990998127851434218405800233A
:1010A00010A9C95E4942127900F060FC4DE00021B0
:1010B00010A8405E2A49884223DCFFE711A804906B
:1010C0000078182105914143264806904118086987
:1010D000496900F0E5F9049A059906981278514398
:1010E00041188868C96800F0FBF80499059A0698C9
:1010F00009784A43811880580A79174900F036FC6C
:1011000022E011A80190007818210291414315486E
:10111000039041188868C96800F0C2F9019A0299E1
:1011200003981278514341180869496900F0B8F9E9
:101130000199029A039809784A43811880580A79DC
:10114000002100F013FCFFE7FFE7FFE7FFE712B025
:1011500080BDC0460F27000010270000F1D8FFFF18
:10116000F0D8FFFF5401202080B582B00F200090FE
:1011700001F096FC009801F0E5FC0D20019001F0D3
:101180008FFC019801F0DEFC02B080BD10B586B086
:1011900000200590FFE70598012851D8FFE7059842
:1011A0002421029141432748039040184069FFF7EA
:1011B00049F92549FFF72EF82449FFF72BF8029A41
:1011C0000146039804910499059B5A4380180090A6
:1011D000C069FEF789FF0099C86104981C49FEF7B1
:1011E000DCFF1C49FFF716F8029A01460398059B9D
:1011F0005A4380180190006AFEF776FF0199086251
:101200000498FFF743F9144A144BFFF741F8012201
:101210009207134BFFF73CF8FFF74CF9029902468F
:101220000398059C0B466343C3189A61059A514382
:10123000411800204861FFE70598401C0590AAE787
:1012400006B010BD38002020000036448FC2F53CA7
:101250009A99D9400000C842182D4454FB210940F6
:1012600033331B40811E091F00BFFCD2704784B07E
:1012700003900291019203980068009000980199F0
:101280008843009000980299019A114008430399FD
:10129000086004B07047000082B001900091009B8C
:1012A0000199094A88581843885002B07047C046CF
:1012B00082B001900091009B0199034A885818431D
:1012C000885002B07047C0464810000082B00190BC
:1012D00000910098019995225201885002B0704700
:1012E00082B0019000910098019995225201885096
:1012F00002B0704782B001900091009B0199034AAF
:1013000088581843885002B07047C0462810000023
:1013100082B00190009100980199024A885002B071
:101320007047C046D012000081B0009000990120A3
:10133000C2020248885001B07047C0460100002632
:1013400082B00190009101980249405800990840EC
:1013500002B070473810000010B584B0069C0390AE
:101360000291019200930298019908430099084361
:10137000069908430349084303998900244A885081
:1013800004B010BD8100040081B00090009881007D
:101390001F4A8120885001B07047C04610B584B004
:1013A000069C0390029101920093029801990843D0
:1013B000009908430699084381210843039989004D
:1013C000134A885004B010BD81B00090009881008D
:1013D0000F4A0020885001B07047C04682B001908B
:1013E000009100980349084301998900084A8850F0
:1013F00002B070478000040082B001900091009814
:101400008021084301998900014A885002B0704741
:101410000480424082B00190009101982721C901C7
:1014200040580099084002B0704782B00190009186
:1014300001982721C90140580099084002B070471F
:1014400082B00190009101982721C901405800996C
:10145000084002B07047000081B000900099024A35
:101460000248885001B0704704080000030000B132
:1014700082B001900091009B0199034A885818435B
:10148000885002B07047C0469013000082B00190AF
:10149000009100980199074A885002B07047C046F1
:1014A00082B00190009100980199024A885002B0E0
:1014B0007047C0469012000082B001900091009BDE
:1014C00001999D20420188581843885002B0704706
:1014D00082B00190009100980199024A885002B0B0
:1014E0007047C046B0120000F0B584B0012422025B
:1014F000344B19680392914319606A490D686D0471
:10150000FCD5457E25409E69A64374199C61202424
:10151000045D03252C40DE69AE433419DC611F4CA9
:10152000256805262660466A37681F6276685E620F
:1015300007262E402660C4697F252D02DE69AE4352
:101540006406640C3419DC6107684568826800929F
:10155000C66802690192426902929A69104C14406D
:101560003A07120B2D03ADB2AA183243009D2D0786
:101570002D0D1543019A1543029A1543007E284309
:10158000084A0240101998611868039A10431860BD
:1015900008688005FCD504B0F0BDC046001340408B
:1015A0008D00F0FF72FF0F0006490868012290438A
:1015B00008607047034908680122120290430860DE
:1015C0007047C04608010B4081B001466846017073
:1015D00000780249086001B07047C04608030B401C
:1015E00080B582B0014601A8018001880F20020267
:1015F0002B48FFF73CFE02B080BDC046F0B5124B51
:101600001D46083D2E680124A6432E60032636039E
:1016100030401F68B743381818601868FF26B04379
:10162000C9B240181860286820432860186821074C
:10163000002A06D0084318601A480168C905FCD57D
:10164000F0BD88431860F0BD10010B4080B582B03A
:10165000014601A80170017802480322FFF707FE46
:1016600002B080BD00010B4080B582B0014601A8E8
:10167000017001780A483022FFF7F9FD02B080BD01
:1016800007498860074802689202FCD501221204CB
:101690000B6813430B600168C906FCD57047C04650
:1016A00004010B4004020B4082B0019000910098AD
:1016B0000199CD4A885002B07047C04681B0009071
:1016C0000099024A0120885001B0704708110000BB
:1016D00082B001900091009B0199D04A885818432C
:1016E000885002B07047C04681B000900099012038
:1016F000C202D048885001B07047C04681B0009007
:101700000098812149014058C0B201B0704781B0B2
:1017100000900098812149014058C0B201B0704743
:10172000F0B5AA4A82183B4BC31808794E793A4D56
:10173000774C002E23D0202804D00526F60100285F
:1017400003D003E0354E002800D18826576F2F4084
:1017500037435767976F2F4037439767566B26403D
:101760005663966B264096630026566596658F26CF
:10177000F6435F6837405F609F6837409F608E79AF
:10178000096820280BD0002819D1491E5160D76E56
:101790002F4088210F43D7661746703719E0491E3E
:1017A0005160D16E29401D4F3943D166116F2940D8
:1017B0003943116701214907194D174609E04908C6
:1017C0005160D76E2F400521C9010F43D7661746D8
:1017D00070373C682C400C433C60D16A4C4C214033
:1017E000D162116B214011630021D16411658F21F9
:1017F000C943D46F0C40D4671C680C401C6006437E
:10180000BD2030401168074B0B40C018801C106091
:10181000F0BDC0468418000024493E0001040000C9
:10182000FFFFFFCF4000FFCFB0B54A68364BC25034
:10183000664A80180A78222A58D8930001A4E358EF
:101840009F46C046E3180000ED180000E3180000B2
:10185000ED180000ED180000ED180000ED18000074
:10186000ED180000ED180000ED180000ED18000064
:10187000ED180000ED180000ED180000ED18000054
:10188000ED180000D1180000ED180000D11800007C
:10189000ED180000ED180000ED180000ED18000034
:1018A000ED180000ED180000ED180000ED18000024
:1018B000ED180000ED180000ED180000ED18000014
:1018C000ED180000D1180000ED180000D11800003C
:1018D00003231B0704689C4301235B07E318036091
:1018E00004E003231B0704689C4304600B69C36086
:1018F000CB68064C1C40C36A054D1D402B19C362C2
:10190000097A11430160B0BD081800007777020022
:101910008888FDFF81B000900099674A6748885029
:1019200001B0704782B00190009100980199112296
:101930001202885002B0704710B507239B0419406B
:1019400092008018024A84589C436118815010BD4F
:101950003018000010B5029CA4000019114319436F
:10196000014A815010BDC0465018000092008018F6
:10197000014A81507047C0461018000010B501227E
:10198000120383180C789C604B7883508978014A45
:10199000815010BD0C11000010B586B001930B46AC
:1019A00001460198059104A90B8003AB1A8002AA95
:1019B00010800598054C001909881B881943128866
:1019C0001143034AFFF753FC06B010BD0418000092
:1019D00080FF000082B00190009100980199024AB6
:1019E000885002B07047C0464810000081B0009097
:1019F000009911200202885801231843885001B031
:101A00007047000082B001900091009B0199034A49
:101A100088581843885002B07047C046281000000C
:101A200081B0009000990120C2020248885001B0A4
:101A30007047C0460100002681B0009000988121C7
:101A400049014058C0B201B070470000B0B5112242
:101A5000120283580124A34383500B888C781C43C3
:101A60008B882343094C1C408358094D1D40631942
:101A700083508B79CC791C43097A21437E2319400A
:101A8000801842689A4351184160B0BD1867000041
:101A9000E798FDFF81B00090009802494058C0B21D
:101AA00001B070472411000081B000900099024AF3
:101AB0000248885001B0704704080000030000B1DC
:101AC00080B584B003900291019203980B494018AD
:101AD00002990B4AFFF7CBFB03980A49401801997A
:101AE0003F22FFF7C4FB0399074A8818895801224F
:101AF0001140FFF7BCFB04B080BDC04610110000D0
:101B0000FFFF0000141100000411000010B50122B5
:101B1000120383180C789C604978815010BD80B501
:101B200082B001900091019811210902401800999A
:101B30000322D203FFF79BFB02B080BD034A80184B
:101B400002681206FCD481617047C046081100008B
:101B500080B588B000200790FFE70798012800D9DA
:101B600081E007982421059141434048069041189F
:101B700048688968FFF7E4FB059A0699079B5A4372
:101B800089188968084088421FD1FFE707982421F7
:101B9000414336484118C8680969FFF746FC0028E8
:101BA00009D1FFE70798242141433048411848698B
:101BB000401C486108E00798242141432B48411804
:101BC0004869401E4861FFE734E0079824210391EB
:101BD0004143264804904118C8680969FFF7B0FBE3
:101BE000039A0499079B5A43891809690840884257
:101BF0001FD1FFE70798242141431C48411848683A
:101C00008968FFF712FC002809D1FFE70798242113
:101C10004143164841184869401E486108E007984A
:101C200024214143114841184869401C4861FFE79D
:101C3000FFE7FFE707982421019141430B480290F9
:101C4000411848688968FFF733FB01990298079AA1
:101C500051434118C8680969FFF72AFBFFE7079855
:101C6000401C079079E708B080BDC04638002020AE
:101C700080B5012081050248FFF72AFC80BDC046DF
:101C800000200A4010B5B0B02E902D912C922B93CD
:101C90002B980021FEF78EFB002803D1FFE70020E0
:101CA0002F905DE12E98C0682C99FEF76EFA2D9961
:101CB00088612D98C0680021FEF752FB00281DD1D5
:101CC000FFE72D9825908069FEF7E0FB02462598F6
:101CD00026920122D20791432791C068FEF7D6FBD6
:101CE000024626980B462799FEF796FB002804D15A
:101CF000FFE72D9900208861FFE7FFE72D982490EA
:101D000081690069FEF7F0F9249908612D9800684F
:101D10000021FEF725FB002824D1FFE72D991F9114
:101D2000086822900122D30702465A40209209698E
:101D30002191FEF723FB014622980029239001D12F
:101D400021982390209823991D91FEF733FB01469B
:101D5000209800291E9001D11D981E901F991E9851
:101D60000861FFE72D998869C969FEF70EFA2B997A
:101D7000FEF750FA2A902D981690406914902A98F0
:101D80007949FEF70AFA0146149815917749FEF74A
:101D900004FA1599FEF7A8F9169948612E981B9038
:101DA000016818912D991A918A69179240680969FA
:101DB000FEF7F3F91799024618981992FEF7EDF914
:101DC0001999FEF791F91A9902461B981C9280689E
:101DD0004969FEF7E2F91C99FEF786F929902D98DA
:101DE00040680021FEF7BCFA002800D0B2E0299834
:101DF00028902E98C0680021FEF7B2FA002827D15B
:101E0000FFE72D9880680021FEF7AAFA00281FD16D
:101E1000FFE72D98816810914068129029991191DF
:101E2000FEF7ACFA014612980029139001D11198DF
:101E30001390109813990E91FEF7BCFA0146109872
:101E400000290F9001D10E980F900F98299055E01E
:101E50002E98C0680021FEF79FFA00282BD1FFE7DB
:101E60002D9880680021FEF77BFA002823D1FFE738
:101E70002D9882680121C9074A400A92406848406B
:101E80000C9029990B91FEF795FA01460C980029C0
:101E90000D9001D10B980D900A980D990891FEF7BD
:101EA0006DFA01460A980029099001D10898099015
:101EB0000998299021E02D98406806900121CA07D1
:101EC00001465140049129990591FEF757FA0146C0
:101ED00006980029079001D1059807900498079962
:101EE0000291FEF767FA014604980029039001D198
:101EF0000298039003982990FFE7FFE72998289913
:101F0000FEF743F9FEF7C2FA0122D2079143184BBC
:101F1000FEF76CFA00281CD1FFE72E98406815499F
:101F2000FEF71EFA002814D1FFE728992998FEF73A
:101F30002CF92B99FEF731F92E994968FEF76AF9C9
:101F400001462D9801900069FEF7CEF801990861CD
:101F5000FFE7FFE72D998869C86129982F90FFE76F
:101F60002F9830B010BDC046CDCC4C3FCDCC4C3EB0
:101F7000B5F8E43EBD37863580B584B014491548C0
:101F80000390FFF7FBFC03981349FFF7C9FB039885
:101F90000023029319461A46FFF7FEFC029B0398A2
:101FA000009310221946FFF7D5FC029A03981146B8
:101FB000FFF7C2FC029A03980849FFF7D7FC039881
:101FC000FFF77CFB03980121FFF7ACFC04B080BD58
:101FD000AE2D000000008640B42D0000FFFF000081
:101FE00080B582B00E490F480190FFF78FFD019830
:101FF0000D49FFF72BFD01980021FFF790FD019897
:10200000412189001B22FFF75BFD01980121890214
:10201000FFF7F8FC0198FFF7E9FC02B080BDC0466D
:10202000BC2D000000801040BE2D000080B58EB099
:102030000920FFF7C9F90A20FFF7C6F90620042195
:102040000191FFF7D9F9019971480990FFF760F9FB
:10205000252005210291FFF7CFF9099801210A9166
:1020600009040691FFF754F902992D20FFF7C4F9EE
:1020700009980A994905FFF74BF9142002210391A9
:10208000FFF7BAF903991520FFF7A8F90399132070
:10209000FFF7A4F9069A002307930093312019460D
:1020A000FFF77CF907990A98009181060491420490
:1020B0000592C30408933720FFF74EF90499059A57
:1020C0000798089B00902320FFF746F90499059A8A
:1020D0000798089B00902420FFF73EF90499059A81
:1020E0000798089B00902620FFF736F90499059A77
:1020F0000798089B00903320FFF72EF91F20FFF769
:1021000043F92020FFF740F90E20FFF73DF90F209B
:10211000FFF73AF9079A089B009232201146FFF721
:102120001BF9079A089B009239201146FFF714F912
:10213000079A089B009221201146FFF70DF9079A94
:10214000089B009216201146FFF706F9059A079999
:10215000089B00911020FFF7FFF8059A0799089B4C
:1021600000911C20FFF7F8F8059A0799089B009149
:102170002A20FFF7F1F8059A0799089B0091112092
:10218000FFF7EAF8059A0799089B00911D20FFF7D1
:10219000E3F8069A0799089B00912C20FFF7DCF8DA
:1021A000079A089B009230201146FFF7D5F809984E
:1021B0000A990906FFF75CF909980A9909030B9136
:1021C000FFF76AF809980B99FFF794F80A988105C8
:1021D000F3480C90FFF77AF80C980E49FFF756F980
:1021E0000C980D49FFF794F80B990C98FFF740F9FC
:1021F0000C980A49FFF760F90C9809490D91FFF70F
:102200004BF80C980D99FFF775F80EB080BDC046DD
:1022100000000A400C8001000C804100004040009A
:102220004000800880B582B00A49E1480190FFF77C
:10223000A5FB01980849FFF7F7FA01980121FFF77C
:1022400047FA1520032100F0BBFC0198FFF736FA8E
:1022500002B080BDC82D0000CC2D000080B584B038
:102260001649D0480390FFF789FB03981449FFF7FC
:1022700057FA039801220292510392028023FFF73A
:102280008BFB0299039800911022002301931946B9
:10229000FFF760FB0199029A0398FFF74DFB029A42
:1022A00003982249FFF762FB0398FFF707FA0398A8
:1022B0000221FFF737FB04B080BDC046E02D0000CF
:1022C000E42D000080B584B01649B7480390FFF7AD
:1022D00055FB03981449FFF723FA03980122029251
:1022E000510392028023FFF757FB02990398009154
:1022F0001022002301931946FFF72CFB0199029A43
:102300000398FFF719FB029A03980849FFF72EFB81
:102310000398FFF7D3F903980221FFF703FB04B0FA
:1023200080BDC046EC2D0000F02D000011270000FC
:1023300080B582B00B49D7480190FFF71FFB019889
:102340000949FFF771FA019801210091FFF7C0F9DF
:102350000099102000F034FC0198FFF7AFF902B0AB
:1023600080BDC046F82D0000FC2D000080B582B075
:102370000B4990480190FFF701FB01980949FFF7CD
:1023800053FA019801210091FFF7A2F90099022068
:1023900000F016FC0198FFF791F902B080BDC0462D
:1023A000102E0000142E000080B582B00B49DD48CD
:1023B0000190FFF7E3FA01980949FFF735FA019810
:1023C00001210091FFF784F90099112000F0F8FB3A
:1023D0000198FFF773F902B080BDC046282E0000B7
:1023E0002C2E000080B582B00F4973480190FFF792
:1023F0008DFB01980D49FFF729FB01980021FFF79C
:102400008EFB019815212D22FFF75AFB019801211F
:102410008902FFF7F7FA0D20022100F0D1FB0198A5
:10242000FFF7E4FA02B080BD402E0000422E00000B
:1024300080B582B000200190FFF7C6F8012000901F
:102440004002FFF7CDF80198FFF700F9FFF7ACF86D
:10245000FFF7B0F8009A032000030A21FFF7CEF837
:102460000748FFF741F81020FFF7FEF80198FFF743
:1024700007F90098019900F0A3FB02B080BDC046A7
:102480004C2E000080B5024800F0CEF880BDC0465A
:102490008038010080B500F02DF8FFF7C7FDFFF789
:1024A000C7FFFFF7DBFEFFF70DFFFFF765FDFFF747
:1024B000B9FEFFF75BFFFFF777FFFFF739FFFFF785
:1024C0008FFDFFF78FFFFFF7DDFF06499C220020FD
:1024D00088540549B823C8540449C8540449885449
:1024E00080BDC046B002202050032020F4012020EF
:1024F0000C04202080B58CB028480190FEF7ACFF7A
:1025000027480290FEF7A8FF26480390FFF702FA3B
:1025100025480490FFF7FEF924480590FFF7FAF9E3
:1025200065480690FFF7F6F99F480790FFF7F2F924
:102530007C480890FFF7EEF956480990FFF7EAF952
:10254000E2480A90FFF7B0FA1B480B90FFF7ACFA8D
:102550000198FEF7E9FE0298FEF7E6FE0398FFF702
:10256000C3F80498FFF7C0F80598FFF7BDF8069880
:10257000FFF7BAF80798FFF7B7F80898FFF7B4F82D
:102580000998FFF7B1F80A98FFF74AFA0B98FFF796
:1025900047FA1020FEF766FE0CB080BD00000A402E
:1025A00000200A4000A086400020864000008640AF
:1025B00000008740000009400000104080B582B054
:1025C000014601A801700178C048FFF7B7FA02B0D0
:1025D00080BDC04680B582B0024601A8027000915D
:1025E0000078002806D1FFE70098FDF72BFF70491F
:1025F000C8600BE001A80078012806D1FFE7009829
:10260000FDF720FF6E49C860FFE7FFE702B080BD1D
:1026100080B582B00220019000F06AFA019800F0C3
:10262000B9FA02B080BD000080B584B00290029873
:10263000401E000E002803D0FFE70120039011E0A8
:102640000298401E0949086000200190C043032100
:1026500000F0B6FA019806490860064A07211160A1
:102660000390FFE7039804B080BDC04614E000E08B
:1026700018E000E010E000E080B500F0DDF980BD7A
:1026800080B50448FFF743F8012801D1FFE7FFE7D1
:1026900080BDC0460040084080B50748FFF72EF8CF
:1026A000012807D1FFE7FEF713FB03480121FEF7DE
:1026B000FBFF00E0FFE780BD0000874080B582B0EF
:1026C0001848FFF724F8012828D1FFE7734802686B
:1026D00015481649164BFFF7D5FA164901910860BF
:1026E000154800900068FDF7ADFE01990968FDF7F7
:1026F000FBFCFDF7B2FE01460020FFF76BFF0098E0
:102700000068FDF79FFE01990968FDF73EFDFDF7A2
:10271000A4FE01460120FFF75DFF00E0FFE702B0E5
:1027200080BDC0460080864024002020C8012020B3
:10273000CDCC4C3DD80420203400202080B584B07E
:102740001948FEF7E4FF01282BD1FFE7FEF71EFD35
:1027500016480190826916481649174B0093FFF7F7
:1027600091FA009B01460198144A02921160C26BD3
:1027700013481449FFF786FA01460298124A039259
:1027800011600068FDF769FE01460020FEF7F4FBCA
:1027900003980068FDF761FE01460120FEF7ECFB9F
:1027A00000E0FFE704B080BD0000094038002020B1
:1027B00014002020A80120200AD7A33CB804202020
:1027C0000400202088012020B404202080B582B09D
:1027D0001120019000F08CF9019800F0DBF902B0B3
:1027E00080BD000080B584B02B49002008600390B4
:1027F0000290FFE70298062832D8FFE70298C2004D
:102800002848811880584968FEF71AFE00280FD022
:10281000FFE7029882002449012088501E48019059
:1028200000687F21C905FDF75FFC0199086005E09C
:10283000029882001C4900208850FFE7029882001D
:1028400019498958401C4843FDF7FCFD014603988F
:10285000FDF74AFC0390FFE70298401C0290C9E78D
:102860000D4800680021FDF7B3FD002805D0FFE703
:102870000B480068094908600BE00398064909689D
:10288000FDF7C8FC0146054801600068044908607E
:10289000FFE704B080BDC046AC042020F00120203A
:1028A00030012020F8002020BC04202080B50748FB
:1028B000FFF7C2F80B2806D1FFE70448FFF7EAF854
:1028C0000349087000E0FFE780BDC046008010406B
:1028D000B004202080B586B02948FFF7ADF80590F8
:1028E00005980B2844D1FFE725480290FFF7D2F85E
:1028F0000146029804AA039211700B21FFF76AF8AF
:10290000039800780D2805D0FFE704A800780A286E
:102910001BD1FFE71B480078012815DBFFE71948AA
:1029200000900278184800210191815400F009FAC2
:10293000FDF7C0FD009902460198E04B1A60134B69
:1029400001221A700870FFE711E00E4800787E2817
:1029500008DCFFE704980B4B1A78511C19700A49E0
:10296000885403E0074900200870FFE7FFE704E010
:1029700005990348FFF72EF8FFE706B080BDC04673
:1029800000001040DC052020DC042020E80120208D
:1029900080B588B0069005910698002804D0FFE71E
:1029A0000598002804DCFFE707A9002008703AE03A
:1029B00000200490FFE70498059988421BDAFFE79E
:1029C0000698049989004018039000200290FFE7C0
:1029D000029803280ADCFFE703980299405CFFF79E
:1029E000EDFDFFE70298401C0290F1E7FFE7049835
:1029F000401C0490DFE7FF20C005019000200090FC
:102A0000FFE7009803280ADCFFE7009901A8405C73
:102A1000FFF7D4FDFFE70098401C0090F1E707A9FD
:102A200001200870FFE707A8007808B080BD00000B
:102A3000044800687047C04602490868401C0860A6
:102A40007047C046E005202080B582B0019000911B
:102A50000198002801D1FFE70BE000980078C0073B
:102A6000002806D0FFE701988047009900200870F1
:102A7000FFE702B080BD000081B0014668460170EA
:102A800000214056002809D4FFE7684601781F203E
:102A900001400120884020490860FFE701B07047ED
:102AA00081B001466846017000214056002809D4D3
:102AB000FFE7684601781F20014001208840164941
:102AC0000860FFE701B0704781B0014668460170B9
:102AD00000214056002809D4FFE7684601781F20EE
:102AE0000140012088400C490860FFE701B07047B1
:102AF00081B001466846017000214056002809D483
:102B0000FFE7684601781F20014001208840024904
:102B10000860FFE701B0704780E200E081B0014645
:102B20006846017000214056002809D4FFE7684636
:102B300001781F2001400120884020490860FFE7FC
:102B400001B0704781B001466846017000214056CF
:102B5000002809D4FFE7684601781F2001400120C2
:102B6000884016490860FFE701B0704781B0014610
:102B70006846017000214056002809D4FFE76846E6
:102B800001781F200140012088400C490860FFE7C0
:102B900001B0704781B0014668460170002140567F
:102BA000002809D4FFE7684601781F200140012072
:102BB000884002490860FFE701B0704700E100E08B
:102BC00070B582B0024601A8027000910021405603
:102BD000002816D4FFE7002401A908570322D34395
:102BE0001840174A805809578C07E50EFF24AC405F
:102BF000A043009CA401E4B2AC402043194088509B
:102C00001AE001A908780F24204008380322D34392
:102C100018400A4A8058002549578D07EE0EFF25B7
:102C2000B540A843009DAD01EDB2B5402843214019
:102C3000083919408850FFE702B070BD1CED00E074
:102C400000E400E080B584B000200390FFF722FC90
:102C5000FEF764F9FEF788FAFEF72CF9FEF76AF939
:102C6000FFF7D6FCFFE7FFF7BDFD114901911431D5
:102C70001048FFF7E9FE01992A310F480290FFF74B
:102C8000E3FE019902984131FFF7DEFE01990298B7
:102C90005C31FFF7D9FE019902987231FFF7D4FE3B
:102CA00006480168064801600121FFF771FEDAE776
:102CB00080002020CD270000711C0000EC012020A6
:102CC000E40520202021020C01D010211046020A28
:102CD00001D010460839020901D01046091F8208A8
:102CE00001D01046891E420801D0881E7047081A7C
:102CF0007047000001480068704700000000202075
:102D000002E008C8121F08C1002AFAD1704700006B
:102D10007047000000000000002001E001C1121F08
:102D2000002AFBD17047000001490860704700008D
:102D30000000202030380A2801D2012070470020EE
:102D4000704730B583B00446FFF7D4FF0546002036
:102D5000009002460190012321466846FDF7E6FBFC
:102D60002846FFF7E1FF0199009803B030BDDDDD93
:102D7000DDDDDCBBBBDDDDDDDDDDDDDDDDDD988862
:102D8000888888888888777777777788888885554E
:102D900055566666666666666666666888888333C4
:102DA000333222222222222222222228888D080047
:102DB00000000000FFFF000000010100080000000B
:102DC00018000000003000000807000002000000AA
:102DD0003F0D0300010000000000000000000000A3
:102DE000080000001127000000000100080000009A
:102DF0001127000000000100080709000200000080
:102E00008713000001000000000000000000000027
:102E10000807630002000000E70300000100000053
:102E20000000000000000000080709000200000088
:102E30004FC300000100000000000000000000007F
:102E40000800000008000000003000000100000041
:102E50000000000000000000000000000000000072
:102E6000100000000001000003000000000000004E
:102E70003400C441982E000000002020880100008A
:102E8000780C0000182F000088012020B0050000F9
:102E9000182D00000000000061975E43B81ED54069
:102EA000BBC0A6108C9A99F91C113480401B3301C9
:102EB000012B200A184A0808021180392411191C14
:102EC0004A102C9945A149440212021918091053BD
:102ED000491809124949483972F93009125F193005
:102EE0002997393859A0392819086A201829093929
:102EF000185A080829111A8018290C196B29082951
:102F0000A419085A0434192A210C11A086408919E1
:082F1000200915183100000032
:04000005000000C136
:00000001FF
