:020000040000FA
:1000000020012020D5000000D9000000DB00000006
:1000100000000000000000000000000000000000E0
:10002000000000000000000000000000DD000000F3
:100030000000000000000000DF0000006907000071
:10004000E3000000E3000000E3000000E300000024
:10005000E3000000E3000000E3000000E300000014
:1000600000000000E3000000E300000000000000CA
:1000700000000000E3000000E3000000E3000000D7
:10008000E3000000E3000000E3000000E3000000E4
:10009000E3000000E300000000000000000000009A
:1000A000E3000000E300000000000000000000008A
:1000B000E300000000000000E3000000E300000097
:1000C0000348854600F010F8004800473D0800004E
:1000D0002001202003480047FEE7FEE7FEE7FEE799
:1000E000FEE7FEE7C10000001CB509480090094882
:1000F000019005460126009C05E0E36807CC3343E8
:100100000C3C98471034AC42F7D3FFF7DDFF0000FA
:10011000B8080000D808000010B58AB000F028FB2D
:10012000099000F025FB7C490968401A002801D598
:10013000FFE7EFE009981430774908600020089045
:10014000FFE70898002800D0E4E0089818220592FC
:1001500042437248069081188058496800F056F969
:10016000059902460698531E9A4107AB1A70089AE1
:1001700051434018007CC007002811D1FFE707A8B1
:100180000078C00700280BD1FFE7089818214143E9
:1001900062484018807D01210840012815D0FFE702
:1001A0000898182141435D484018407D01210840CE
:1001B00001280AD0FFE70898182141435748401802
:1001C000007DC007002809D0FFE7089818214143A7
:1001D00052484118002048610861FFE7089818213B
:1001E00041434E484018007CC007002822D1FFE759
:1001F00007A80078C00700281CD0FFE7089918223C
:10020000039210464843454904910B180120987504
:10021000089C13466343CB185874089B5A438918AB
:10022000C87400F0A5FA039A0499089B5A438918E8
:100230008860FFE708981821414338484018007C3F
:10024000C007002818D0FFE707A80078C0070028DB
:1002500012D1FFE708981821019141432F480290DD
:1002600041180120887400F083FA019A0299089BD2
:100270005A438918C860FFE7089818214143274866
:100280004018807DC007002835D1FFE70898182165
:10029000414322484118C8688968884201D1FFE774
:1002A00028E00898182141431C484118C86889680B
:1002B000401A80084A280ED8FFE7089818210A46F5
:1002C00042431648831801225A75089A514341182F
:1002D0008868C8600DE0089818210A4642430F4814
:1002E000831801221A75089A514341188868C8601A
:1002F000FFE7FFE7FFE707A80078089918224A43BD
:1003000006498918012210400874FFE70898401C2C
:10031000089016E70AB010BD180020200000202029
:10032000811E091F00BFFCD2704784B00390029168
:10033000019203980068009000980199884300900A
:1003400000980299019A114008430399086004B08B
:10035000704782B001900091009801999522520156
:10036000885002B07047000082B001900091009860
:100370000199024A885002B07047C046D01200006E
:1003800081B0009000990120C2020248885001B05B
:100390007047C0460100002610B584B0069C03904B
:1003A0000291019200930298019908430099084331
:1003B000069908430349084303998900124A885063
:1003C00004B010BD8100040010B584B0069C0390F9
:1003D0000291019200930298019908430099084301
:1003E000069908438121084303998900064A8850E9
:1003F00004B010BD81B0009000988100024A002036
:10040000885001B07047C0460480424082B00190DD
:10041000009101982721C90140580099084002B075
:100420007047000081B000900099024A024888504D
:1004300001B0704704080000030000B182B00190D1
:10044000009100980199024A885002B07047C04656
:10045000B0120000F0B584B001242202344B1968B8
:100460000392914319606A490D686D04FCD5457E7D
:1004700025409E69A64374199C612024045D0325D0
:100480002C40DE69AE433419DC611F4C256805261B
:100490002660466A37681F6276685E6207262E40CD
:1004A0002660C4697F252D02DE69AE436406640CB4
:1004B0003419DC610768456882680092C668026981
:1004C0000192426902929A69104C14403A07120B49
:1004D0002D03ADB2AA183243009D2D072D0D1543F3
:1004E000019A1543029A1543007E2843084A0240A8
:1004F000101998611868039A1043186008688005FD
:10050000FCD504B0F0BDC046001340408D00F0FFA4
:1005100072FF0F0006490868012290430860704787
:100520000349086801221202904308607047C046E0
:1005300008010B4081B0014668460170007802490D
:10054000086001B07047C04608030B4080B582B018
:10055000014601A8018001880F2002022B48FFF705
:10056000E4FE02B080BDC046F0B5124B1D46083D0A
:100570002E680124A6432E600326360330401F68F0
:10058000B743381818601868FF26B043C9B240183E
:10059000186028682043286018682107002A06D0C0
:1005A000084318601A480168C905FCD5F0BD8843A6
:1005B0001860F0BD10010B4080B582B0014601A863
:1005C0000170017802480322FFF7AFFE02B080BD40
:1005D00000010B4080B582B0014601A8017001788E
:1005E0000A483022FFF7A1FE02B080BD07498860AB
:1005F000074802689202FCD5012212040B681343DB
:100600000B600168C906FCD57047C04604010B4069
:1006100004020B4080B5012081053E48FFF70EFF24
:1006200080BDC04680B586B00920FFF7E3FE0A20F2
:10063000FFF7E0FE002302930093012003900204E1
:1006400031201946FFF7C0FE0299039800918106F8
:100650004204C3043020FFF79FFE039881050591F3
:100660002C480490FFF775FE04980599FFF77CFE6F
:1006700006B080BD80B582B000200190FFF75AFF20
:10068000012000904002FFF761FF0198FFF794FFFF
:10069000FFF740FFFFF744FF009A032000030A2101
:1006A000FFF762FF0548FFF7D5FE1020FFF792FF26
:1006B0000198FFF79BFF02B080BDC0469008000084
:1006C00080B5024800F028F880BDC046803801009F
:1006D00080B500F007F8FFF7A5FFFFF7CBFFFFF7A6
:1006E000EFFF80BD80B582B009480090FFF79AFE09
:1006F00008480190FFF796FE0098FFF741FE019829
:10070000FFF73EFE1020FFF70BFE02B080BDC04693
:1007100000000A4000200A4080B584B00290029890
:10072000401E000E002803D0FFE70120039011E0D7
:100730000298401E0949086000200190C04303212F
:1007400000F03AF8019806490860064A072111604E
:100750000390FFE7039804B080BDC04614E000E0BA
:1007600018E000E010E000E080B500F005F880BD82
:10077000044800687047C04602490868401C086089
:100780007047C0461C00202080B582B001900091C7
:100790000198002801D1FFE70BE000980078C0071E
:1007A000002806D0FFE701988047009900200870D4
:1007B000FFE702B080BD000070B582B0024601A81C
:1007C0000270009100214056002816D4FFE7002453
:1007D00001A908570322D3431840174A80580957E4
:1007E0008C07E50EFF24AC40A043009CA401E4B2BA
:1007F000AC402043194088501AE001A908780F2422
:10080000204008380322D34318400A4A8058002564
:1008100049578D07EE0EFF25B540A843009DAD0159
:10082000EDB2B54028432140083919408850FFE710
:1008300002B070BD1CED00E000E400E080B582B0C5
:1008400000200190FFF744FFFFE7FFF765FC034935
:1008500014310348FFF798FFF7E7C0460000202057
:10086000150600000000000002E008C8121F08C1C1
:10087000002AFAD170470000704700000000000015
:10088000002001E001C1121F002AFBD170470000C7
:100890000100000000000000000000000000000057
:1008A0000000000010000000000100000300000034
:1008B000000000003400C441D808000000002020DF
:1008C0001800000068080000F00800001800202050
:1008D000080100008008000000200A4000002000FD
:1008E0000000000000000000000000000000000008
:04000005000000C136
:00000001FF
