:020000040000FA
:1000000080052020D5000000D9000000DB000000A2
:1000100000000000000000000000000000000000E0
:10002000000000000000000000000000DD000000F3
:100030000000000000000000DF0000005921000067
:10004000E3000000711A0000E3000000E30000007C
:10005000E3000000E3000000E3000000E300000014
:1000600000000000E3000000E300000000000000CA
:1000700000000000E1220000E3000000B9220000BF
:10008000E3000000E3000000E3000000E3000000E4
:10009000E3000000612100000000000000000000FB
:1000A000E3000000E300000000000000000000008A
:1000B000E300000000000000E3000000E300000097
:1000C0000348854600F03CFA00480047252600001A
:1000D0008005202003480047FEE7FEE7FEE7FEE735
:1000E000FEE7FEE7C1000000F8B502464A40D40F23
:1000F00042004B0052085B089A4202D20246084670
:1001000011464A0023D0C30D4A00DDB2120EAD1ACB
:10011000202D35DA49020126490AF6058A19002CF4
:1001200000D0524220214F1B1146B9402A411018DD
:10013000C20D9A4221D0002C17D0012D08DCDA051F
:10014000801AD20F8019D207DBB200F060F9F8BD37
:10015000DA05801A012340001B06C01880185A4295
:100160008018CA0F1043490007E04908C20711432D
:10017000DA05801A80194008801800F040F9F8BDAF
:1001800061000122511A001BF7E70122D2075140FA
:10019000AAE70122D2075040A6E7024670B54A40BE
:1001A000D30FDB0740002DD04A002AD0010E140ED9
:1001B000000212020919400A520A8418E501044695
:1001C0005443000A120A2E045043A4194219200C69
:1001D000C543AA18120C0125AD03521C5219120472
:1001E0007F39240400D0521C104301D44000491E22
:1001F000C2B20C06C0092018401C4008802A02D058
:1002000003E0002070BD40084000002900DA002013
:10021000184370BD70B502464A40D50F40004A00F1
:10022000ED0740085208002814D0002A12D0C40D4F
:10023000D30D41020120C0055202490A520AE41AB4
:10024000091812187D34914201D3641C00E0490062
:10025000002C01DA002070BD0023914201D3891ADD
:100260000343400849000028F7D100290AD09142F1
:1002700002D10121C90705E0914201D2012101E02B
:100280000121C943E005C018401900F0B8F870BD5D
:10029000F0B51FB488B00B9909980024484009991B
:1002A000C00F490049080991C0070B990090490007
:1002B00049080B9109990898A64608431CD00B9948
:1002C0000A98084318D0099801244000420D4800BC
:1002D000410D099824050003000B204309900B9859
:1002E0000003000B20430B9050181C4940180022BB
:1002F00001901446104605E0002001460DB0F0BD07
:10030000032801DA034600E003239C46C11A0AAE23
:100310000AE05F0008ADED5B4F00F75B7D4300270F
:10032000AA187C41491C5B1E6145F2DD410004AB0B
:100330005A522104120C0A43240C401C0828DFDB0B
:10034000019802900099704601910090059B049AD3
:100350000799069800F0A1F8D0E700000DFCFFFF18
:100360000122D207002800DB101A002900DB511AF5
:10037000814201D10120704700207047C217C10F90
:10038000504010B54018CA079623002100F03FF8EE
:1003900010BDC20FD207400040080BD0C10D07238B
:1003A000DB01C91840020905400A1143C208400791
:1003B00011437047002001467047CB0FDB0749000F
:1003C00010B5490802460A4307D00A0D072409035D
:1003D000E401090B121B002A01DC002010BDC9003A
:1003E000440F0C43C100E018D205801800F007F854
:1003F00010BD10B50023036000F0FCF810BD00290B
:1004000004DA401C490001D140084000704770B434
:100410000024050C05D11024000402D1002921D0AC
:100420001124050E01D100020834050F01D100018D
:10043000241D850F01D18000A41C002801DB400091
:10044000641C002908D020252E1B0D46F540A14034
:1004500000D001212943084301061B1B000ADB1DB4
:1004600002D5002070BC7047DB05181880180029E1
:10047000F8DA401C4900F5D170BC400840007047D4
:1004800010B5002B08DA0024401C614192185B4132
:100490001A4301D14008400010BDF0B51FB482B02E
:1004A00005460C0003D0084602F0F0F802E002F026
:1004B000EDF82030024600902146284600F058F81A
:1004C000049B059A04460F4618431143084314D071
:1004D000184610431BD0009840210A1A1846059967
:1004E00000F056F805460E46009A0599049800F06B
:1004F0003FF8084305D0012004E02046394607B004
:10050000F0BD0020C11705430E432C43374300992B
:100510000E986305401A7905E40A00220C43FD0A8F
:100520000A3002D500200146E9E7010510196941AA
:100530000C9C0D9D00196941FFF7A2FFDFE7000049
:100540001CB5094800900948019005460126009C09
:1005500005E0E36807CC33430C3C98471034AC42C9
:10056000F7D3FFF7B1FD0000C4270000E427000027
:1005700010B5202A04DB0146203A9140002010BD2E
:10058000914020239C1A0346E3401943904010BD3C
:1005900010B5202A04DB0846203AD040002110BDC7
:1005A0000B46D340D0402024A21A9140084319465C
:1005B00010BD00000FB400B589B00A460DA9009126
:1005C00000230C99002ACB60234B0693234B0793FF
:1005D00001D0042300E00023214A0292214A08921C
:1005E000019302466B46002000F0D5F809B008BC24
:1005F00004B01847F0B585B007460020C04301900D
:100600001E46002015460C460091029104903B4680
:100610006A46314604A8FFF7CDFF049902466018E8
:10062000002D05D0002901D0034600E023462B60B1
:1006300000290ED0002A02DD0099814209D0001B5A
:10064000019000943B466A463146029404A8FFF7A5
:10065000B1FF05B0F0BD0000ED0900000D0A00007B
:10066000FFFFFF7F6906000010B50F21C0B24902ED
:1006700000F0F6F910BD0000FFB5087889B0154606
:10068000FF2805D0491C2D2804D00022002407E0B3
:1006900000240BE00122F9E70A235C430419491CFA
:1006A0000878FF28F8D1002A00D064420020049086
:1006B0002A7801462D2A01D02B2A0FD16D1C2D2A14
:1006C00002D00022049209E00122FBE700260A2260
:1006D00033466D1C00F0ACF9381871412F78FF2FAC
:1006E000F4D10C9AA218069202460A4304D0FF23C2
:1006F000069A9133DA4205DA002109980A4606C0C3
:100700000DB0F0BD0024B74AB54D2646079200F063
:1007100031FA029006980391002801DA474200E07E
:10072000074639050020AF4A001C51410191009055
:1007300012E0F80707D022462B4630460799FFF70C
:10074000A7FD0646079122462B4610461946FFF79D
:100750009FFD04460D467F10002FEAD10698019BAD
:100760000028009A0399029806DA00F08BF93246C5
:10077000079B00F087F905E0FFF78AFD3246079BEB
:10078000FFF786FD049A002A02D00122D2075140C9
:10079000099A03C2B4E7FFB591B000200990002583
:1007A000ED432E209E685C681F460190B9696D1C60
:1007B000129888470090396A88470028F6D1009837
:1007C000401C0AD00D20C0018443002E12DD009889
:1007D0002B2809D02D280DD103E00020C04315B0EF
:1007E000F0BD012080020443B9696D1C129888474E
:1007F000761E009003A9600501D52D2000E02B2076
:100800006A461073491C0CA80F9102900AE0B9695E
:100810006D1C1298884700900120400204431398F1
:10082000761E0560002E02DD00983028EFD0019979
:100830000098884245D18020044308E00998401E72
:1008400009900120400204431399681C0860B969AB
:100850006D1C761E1298884700903028EED030E04C
:100860000199884205D1200603D480200443761ED6
:100870001DE0009801F037FF002825D00121490232
:100880000C43009807AA0F9903323038761E914224
:1008900008D208700F98401C0F90200607D50998C1
:1008A000401E03E0200602D40998401C0990A005D0
:1008B00002D51399681C0860B9696D1C12988847A5
:1008C0000090002ECCDC59E0002E57DD0098652802
:1008D00001D0452852D1A00550D503200002844301
:1008E000B9696D1C761E129888470090002E0CDDA9
:1008F0002B2804D02D2808D1FF2001300443B969EA
:100900006D1C12988847761E0090E00501D52D21B8
:1009100000E02B21029801700298401C0290019087
:1009200025E00120400204430EA902980131761E01
:1009300088420ED20098029930380006000E0870E6
:1009400003D10299019881420AD90298401C029071
:1009500006E0E00501D5244801E023484042099023
:10096000B9696D1C12988847009013980560002E95
:1009700004DD009801F0B7FE0028D2D1F969129881
:1009800088470F99FF200870029903AA0870002079
:100990000A900B900CA90AA8099BFFF76DFEA00511
:1009A00002D40120C0431AE72420044209D0E00702
:1009B00013D138680B9A0A99031D3B60006806C082
:1009C0000BE00B990A98FFF7F8FC0146E00704D109
:1009D0003868021D3A60006801602846FFE60000A2
:1009E000000014400000F03FF1D8FFFF4268002AE9
:1009F00008D001680B78491C002B03D0521E06C09A
:100A0000184670470121C160881E70474268002A5D
:100A10000BD0C3680168002B07D183688B4204D0D8
:100A2000491E521C06C0002070470020C04370477A
:100A300030B5434351435C18010C130C0D465D4324
:100A40002C1980B292B20546554351430A0C090451
:100A50004D1962415843010C00044019514130BD09
:100A60007F2801D9002207E0054B42089A5CC007A5
:100A700000D112091207120F012090400840704760
:100A800008270000F0B50C465C4085B0E40FE40791
:100A900003944C0000266408590094464908024615
:100AA0000296224321D062460A431ED06200570DAF
:100AB0004A000E032303550D012402462C49240548
:100AC000781B1B0B360B40182343264361460090CE
:100AD0001C46501AB44103D30098401C009002E019
:100AE000921800985B41002803DA0020014605B007
:100AF000F0BD0020012109050746864611E0644645
:100B00001D46141BB54106D36546521BB3417446BE
:100B100007430C43A646CD074008490828439218CE
:100B20005B4105460D43EAD11046184313D0604699
:100B3000194650407140084306D06046101AB34130
:100B400006D20122002306E000220123DB0702E097
:100B50000122D2435310009874460105381C6141AC
:100B6000029C039D00196941FFF78AFCBFE7000062
:100B7000FD0300000EB5054A0292002200921346C2
:100B80000192FFF78AFC03B000BD000033040000AF
:100B900070B58C180578401C6B075B0F01D103788A
:100BA000401C2A1106D10278401C03E006780E7022
:100BB000401C491C5B1EF9D12B0705D40023521E93
:100BC0000DD40B70491CFAE70378401CCB1A921C19
:100BD00003E01D780D70491C5B1C521EF9D5A14223
:100BE000D8D3002070BD000010B58AB001F00AFC17
:100BF000099009987C490968401A002801D5FFE747
:100C0000EFE001F0FFFB1430774908600020089006
:100C1000FFE70898042800D9E3E008981822059215
:100C200042437248069081188058496800F096FB4C
:100C3000059902460698531E9A4107AB1A70089A06
:100C400051434018007CC007002811D1FFE707A8D6
:100C50000078C00700280BD1FFE70898182141430E
:100C600062484018807D01210840012815D0FFE727
:100C70000898182141435D484018407D01210840F3
:100C800001280AD0FFE70898182141435748401827
:100C9000007DC007002809D0FFE7089818214143CC
:100CA00052484118002048610861FFE70898182160
:100CB00041434E484018007CC007002822D1FFE77E
:100CC00007A80078C00700281CD0FFE70899182261
:100CD000039210464843454904910B18012098752A
:100CE000089C13466343CB185874089B5A438918D1
:100CF000C87401F087FB039A0499089B5A4389182A
:100D00008860FFE708981821414338484018007C64
:100D1000C007002818D0FFE707A80078C007002800
:100D200012D1FFE708981821019141432F48029002
:100D300041180120887401F065FB019A0299089B13
:100D40005A438918C860FFE708981821414327488B
:100D50004018807DC007002834D1FFE7089818218B
:100D6000414322484118C8688968884201D1FFE799
:100D700027E00898182141431C484118C868896831
:100D8000401AC7280ED8FFE7089818210A464243A0
:100D90001648831801225A75089A514341188868E9
:100DA000C8600DE0089818210A4642430F4883188E
:100DB00001221A75089A514341188868C860FFE7F4
:100DC000FFE7FFE707A80078089918224A43074978
:100DD0008918012210400874FFE70898401C089009
:100DE00017E70AB010BDC04650012020480020205F
:100DF00080B584B000200390FFE70398012828D82D
:100E0000FFE70398242100914143E04801904056B8
:100E100001F044FB00990198039A514340180121C5
:100E20000291405601F03AFB00990198039A514310
:100E3000405601F071FB009A01980299039B5A43B6
:100E40008018405601F068FBFFE70398401C0390B0
:100E5000D3E704B080BDC04681B000200090FFE71A
:100E60000098012815D8FFE70098182242438649C8
:100E700089180301084AD018D2588A60C2684A61AA
:100E800082680A614068C860FFE70098401C0090D3
:100E9000E6E701B07047C046FC00202080B592B064
:100EA000024611A8027010AA11800078022801D30E
:100EB000FFE7DEE0002110A8405E01282CDBFFE701
:100EC000002110A8405E6C49884225DCFFE711A88C
:100ED0000D90007818210E9141436B480F904118F6
:100EE0008868C96800F080FA0D9A0E990F981278F8
:100EF000514341180869496900F096F90D9A0E9915
:100F00000F981278514342184058002310A9C95E27
:100F1000127900F0C9FCACE0002110A8405E5749EE
:100F2000884223DBFFE711A80A90007818210B9173
:100F3000414355480C9041188868C96800F054FA3C
:100F40000A9A0B990C98127851434118086949691B
:100F500000F06AF90A990B9A0C9809784A438118AB
:100F600080580A79454900F09FFC81E0002110A8D3
:100F7000405E00282DD5FFE7002110A8405E4049C3
:100F8000884226DBFFE711A8079000781821089116
:100F900041433D48099041180869496900F024FA25
:100FA000079A089909981278514341188868C968C6
:100FB00000F03AF9079A08990998127851434218B3
:100FC0004058002310A9C95E4942127900F06CFC18
:100FD0004DE0002110A8405E2A49884223DCFFE74B
:100FE00011A80490007818210591414326480690E5
:100FF00041180869496900F0F7F9049A05990698BB
:101000001278514341188868C96800F00DF90499B5
:10101000059A069809784A43811880580A79174931
:1010200000F042FC22E011A8019000781821029102
:1010300041431548039041188868C96800F0D4F905
:10104000019A029903981278514341180869496935
:1010500000F0CAF90199029A039809784A43811865
:1010600080580A79002100F01FFCFFE7FFE7FFE747
:10107000FFE712B080BDC0460F2700001027000018
:10108000F1D8FFFFF0D8FFFF1C01202080B582B00F
:101090000F20009001F0EEF9009801F029FA0D20E0
:1010A000019001F0E7F9019801F022FA02B080BD49
:1010B00010B588B001F0A6F9079007983249096881
:1010C000401A002801D5FFE75CE001F09BF93230BF
:1010D0002D49086000200690FFE70698012851D8A6
:1010E000FFE70698242103914143284804904018C3
:1010F0004069FFF743F92649FFF78CF82549FFF7C8
:1011000089F8039A0146049805910599069B5A436C
:1011100080180190C069FEF7E7FF0199C861059842
:101120001D49FFF73AF81D49FFF774F8039A014685
:101130000498069B5A4380180290006AFEF7D4FF79
:10114000029908620598FFF724F9154A154BFFF735
:101150009FF801229207144BFFF79AF8FFF72DF939
:10116000039902460498069C0B466343C3189A6190
:10117000069A5143411800204861FFE70698401C39
:101180000690AAE708B010BD5401202000002020DE
:1011900000003644CDCC4C3D9A99D9400000C8425D
:1011A000182D4454FB21094033331B40811E091F75
:1011B00000BFFCD2704784B0039002910192039863
:1011C0000068009000980199884300900098029967
:1011D000019A114008430399086004B07047000069
:1011E00082B001900091009B0199094A88581843E8
:1011F000885002B07047C04682B001900091009BB9
:101200000199034A88581843885002B07047C04675
:101210004810000082B00190009100980199952239
:101220005201885002B0704782B00190009100983E
:10123000019995225201885002B0704782B0019006
:101240000091009B0199034A88581843885002B0C6
:101250007047C0462810000082B0019000910098AD
:101260000199024A885002B07047C046D01200006F
:1012700081B0009000990120C2020248885001B05C
:101280007047C0460100002682B00190009101988D
:10129000024940580099084002B0704738100000D9
:1012A00010B584B0069C03900291019200930298BD
:1012B00001990843009908430699084303490843E4
:1012C00003998900244A885004B010BD81000400AD
:1012D00081B00090009881001F4A8120885001B0A1
:1012E0007047C04610B584B0069C039002910192ED
:1012F000009302980199084300990843069908430E
:101300008121084303998900134A885004B010BD15
:1013100081B00090009881000F4A0020885001B0F1
:101320007047C04682B0019000910098034908437D
:1013300001998900084A885002B070478000040073
:1013400082B00190009100988021084301998900A2
:10135000014A885002B070470480424082B0019038
:10136000009101982721C90140580099084002B016
:10137000704782B00190009101982721C90140581F
:101380000099084002B0704782B001900091019826
:101390002721C90140580099084002B07047000059
:1013A00081B000900099024A0248885001B070470D
:1013B00004080000030000B182B001900091009B7E
:1013C0000199034A88581843885002B07047C046B4
:1013D0009013000082B00190009100980199074A93
:1013E000885002B07047C04682B0019000910098CA
:1013F0000199024A885002B07047C046901200001E
:1014000082B001900091009B01999D204201885873
:101410001843885002B0704782B001900091009844
:101420000199024A885002B07047C046B0120000CD
:10143000F0B584B001242202344B19680392914321
:1014400019606A490D686D04FCD5457E25409E698A
:10145000A64374199C612024045D03252C40DE6999
:10146000AE433419DC611F4C256805262660466AA8
:1014700037681F6276685E6207262E402660C46960
:101480007F252D02DE69AE436406640C3419DC61ED
:101490000768456882680092C668026901924269DD
:1014A00002929A69104C14403A07120B2D03ADB208
:1014B000AA183243009D2D072D0D1543019A15439F
:1014C000029A1543007E2843084A02401019986189
:1014D0001868039A1043186008688005FCD504B0AA
:1014E000F0BDC046001340408D00F0FF72FF0F00BA
:1014F000064908680122904308607047034908685C
:1015000001221202904308607047C04608010B4058
:1015100081B001466846017000780249086001B058
:101520007047C04608030B4080B582B0014601A851
:10153000018001880F2002022B48FFF73CFE02B019
:1015400080BDC046F0B5124B1D46083D2E680124F3
:10155000A6432E600326360330401F68B743381871
:1015600018601868FF26B043C9B240181860286890
:101570002043286018682107002A06D00843186015
:101580001A480168C905FCD5F0BD88431860F0BD54
:1015900010010B4080B582B0014601A801700178AE
:1015A00002480322FFF707FE02B080BD00010B4096
:1015B00080B582B0014601A8017001780A48302246
:1015C000FFF7F9FD02B080BD07498860074802684F
:1015D0009202FCD5012212040B6813430B600168D0
:1015E000C906FCD57047C04604010B4004020B40FD
:1015F00082B00190009100980199024A885002B08F
:101600007047C0464810000081B000900099024A1F
:101610000120885001B070470811000082B001908D
:101620000091009B0199C64A88581843885002B01F
:101630007047C04681B0009000990120C202C648A0
:10164000885001B07047C04681B000900098812159
:1016500049014058C0B201B070470000F0B5AA4A35
:1016600082183B4BC31808794E793A4D774C002EBF
:1016700023D0202804D00526F601002803D003E05B
:10168000354E002800D18826576F2F4037435767C3
:10169000976F2F4037439767566B26405663966B7C
:1016A000264096630026566596658F26F6435F684A
:1016B00037405F609F6837409F608E7909682028B7
:1016C0000BD0002819D1491E5160D76E2F408821B8
:1016D0000F43D7661746703719E0491E5160D16E27
:1016E00029401D4F3943D166116F29403943116795
:1016F00001214907194D174609E049085160D76E85
:101700002F400521C9010F43D766174670373C6843
:101710002C400C433C60D16A4C4C2140D162116B8F
:10172000214011630021D16411658F21C943D46F19
:101730000C40D4671C680C401C600643BD20304040
:101740001168074B0B40C018801C1060F0BDC046EC
:101750008418000024493E0001040000FFFFFFCF71
:101760004000FFCFB0B54A68364BC250664A801879
:101770000A78222A58D8930001A4E3589F46C0460D
:101780001F180000291800001F1800002918000069
:101790002918000029180000291800002918000045
:1017A0002918000029180000291800002918000035
:1017B0002918000029180000291800002918000025
:1017C0000D180000291800000D180000291800004D
:1017D0002918000029180000291800002918000005
:1017E00029180000291800002918000029180000F5
:1017F00029180000291800002918000029180000E5
:101800000D180000291800000D18000003231B0705
:1018100004689C4301235B07E318036004E003238F
:101820001B0704689C4304600B69C360CB68064CCB
:101830001C40C36A054D1D402B19C362097A114330
:101840000160B0BD08180000777702008888FDFFAE
:1018500081B000900099614A6148885001B070479A
:1018600082B00190009100980199112212028850D3
:1018700002B0704710B507239B04194092008018EE
:10188000024A84589C436118815010BD30180000F2
:1018900010B5029CA400001911431943014A81505C
:1018A00010BDC0465018000092008018014A8150B7
:1018B0007047C0461018000010B5012212038318AB
:1018C0000C789C604B7883508978014A815010BD18
:1018D0000C11000010B586B001930B46014601982B
:1018E000059104A90B8003AB1A8002AA1080059809
:1018F000054C001909881B88194312881143034AB3
:10190000FFF759FC06B010BD0418000080FF00006E
:1019100081B00090009911200202885801231843D9
:10192000885001B07047000082B001900091009B88
:101930000199034A88581843885002B07047C0463E
:101940002810000081B0009000990120C2020248D6
:10195000885001B07047C0460100002681B0009059
:101960000098812149014058C0B201B07047000081
:10197000B0B51122120283580124A34383500B886F
:101980008C781C438B882343094C1C408358094D99
:101990001D40631983508B79CC791C43097A21430C
:1019A0007E231940801842689A4351184160B0BDA7
:1019B00018670000E798FDFF81B000900098024989
:1019C0004058C0B201B070472411000081B00090AF
:1019D0000099024A0248885001B07047040800008C
:1019E000030000B180B584B0039002910192039886
:1019F0000B4940180299834AFFF7DDFB0398094918
:101A0000401801993F22FFF7D6FB0399064A881830
:101A1000895801221140FFF7CEFB04B080BDC046BB
:101A200010110000141100000411000010B5012273
:101A3000120383180C789C604978815010BD80B5E2
:101A400082B001900091019811210902401800997B
:101A50000322D203FFF7AFFB02B080BD034A801818
:101A600002681206FCD481617047C046081100006C
:101A700080B588B000200790FFE70798012800D9BB
:101A800081E0079824210591414340480690411880
:101A900048688968FFF7F8FB059A0699079B5A433F
:101AA00089188968084088421FD1FFE707982421D8
:101AB000414336484118C8680969FFF75AFC0028B5
:101AC00009D1FFE70798242141433048411848696C
:101AD000401C486108E00798242141432B484118E5
:101AE0004869401E4861FFE734E0079824210391CC
:101AF0004143264804904118C8680969FFF7C4FBB0
:101B0000039A0499079B5A43891809690840884237
:101B10001FD1FFE70798242141431C48411848681A
:101B20008968FFF726FC002809D1FFE707982421E0
:101B30004143164841184869401E486108E007982B
:101B400024214143114841184869401C4861FFE77E
:101B5000FFE7FFE707982421019141430B480290DA
:101B6000411848688968FFF747FB01990298079A6E
:101B700051434118C8680969FFF73EFBFFE7079822
:101B8000401C079079E708B080BDC04600002020C7
:101B900080B501208105A948FFF73EFC80BDC04605
:101BA00080B584B0144915480390FFF785FE03986B
:101BB0001349FFF753FD03980023029319461A4671
:101BC000FFF788FE029B0398009310221946FFF747
:101BD0005FFE029A03981146FFF74CFE029A0398A3
:101BE0000849FFF761FE0398FFF70EFD03980121F6
:101BF000FFF736FE04B080BD482700000000864095
:101C00004C270000FFFF000080B582B00E490F484E
:101C10000190FFF70BFF01980D49FFF7A9FE01980E
:101C20000021FFF70CFF0198412189001B22FFF7DB
:101C3000D9FE019801218902FFF776FE0198FFF78E
:101C400067FE02B080BDC0465427000000801040EF
:101C50005627000080B58EB00920FFF759FB0A20F7
:101C6000FFF756FB062004210191FFF769FB01995C
:101C700071480990FFF7F0FA252005210291FFF73E
:101C80005FFB099801210A9109040691FFF7E4FA24
:101C900002992D20FFF754FB09980A994905FFF78F
:101CA000DBFA142002210391FFF74AFB0399152068
:101CB000FFF738FB03991320FFF734FB069A002344
:101CC0000793009331201946FFF70CFB07990A98F8
:101CD00000918106049142040592C30408933720C1
:101CE000FFF7DEFA0499059A0798089B00902320D5
:101CF000FFF7D6FA0499059A0798089B00902420CC
:101D0000FFF7CEFA0499059A0798089B00902620C1
:101D1000FFF7C6FA0499059A0798089B00903320AC
:101D2000FFF7BEFA1F20FFF7D3FA2020FFF7D0FA03
:101D30000E20FFF7CDFA0F20FFF7CAFA079A089B8B
:101D4000009232201146FFF7ABFA079A089B0092E7
:101D500039201146FFF7A4FA079A089B0092212028
:101D60001146FFF79DFA079A089B0092162011462C
:101D7000FFF796FA059A0799089B00911020FFF744
:101D80008FFA059A0799089B00911C20FFF788FAA3
:101D9000059A0799089B00912A20FFF781FA059A76
:101DA0000799089B00911120FFF77AFA059A079985
:101DB000089B00911D20FFF773FA069A0799089B6C
:101DC00000912C20FFF76CFA079A089B00923020B4
:101DD0001146FFF765FA09980A990906FFF7ECFA28
:101DE00009980A9909030B91FFF7FAF909980B99D9
:101DF000FFF724FA0A988105B8480C90FFF70AFA11
:101E00000C980F49FFF7E6FA0C980E49FFF724FAF1
:101E10000B990C98FFF7D0FA0C980B49FFF7F0FAE2
:101E20000C980A490D91FFF7DBF90C980D99FFF713
:101E300005FA0EB080BDC04600000A4000200A40EE
:101E40000C8001000C8041000040400040008008F0
:101E500080B584B01649A2480390FFF72DFD039882
:101E60001449FFF7FBFB03980122029251039202EF
:101E70008023FFF72FFD0299039800911022002381
:101E800001931946FFF704FD0199029A0398FFF7A1
:101E9000F1FC029A03982249FFF706FD0398FFF729
:101EA000B3FB03980221FFF7DBFC04B080BDC04602
:101EB000602700006427000080B584B01649894877
:101EC0000390FFF7F9FC03981449FFF7C7FB039849
:101ED00001220292510392028023FFF7FBFC029938
:101EE000039800911022002301931946FFF7D0FCBC
:101EF0000199029A0398FFF7BDFC029A03980849DA
:101F0000FFF7D2FC0398FFF77FFB03980221FFF74E
:101F1000A7FC04B080BDC0466C27000070270000FD
:101F20001127000080B582B00F4970480190FFF77B
:101F30007DFD01980D49FFF71BFD01980021FFF77A
:101F40007EFD019815212D22FFF74CFD01980121FE
:101F50008902FFF7E9FC0D20022100F0F3FA019855
:101F6000FFF7D6FC02B080BD782700007A2700007A
:101F700080B582B000200190FFF7CAFA01200090DE
:101F80004002FFF7D1FA0198FFF704FBFFF7B0FA20
:101F9000FFF7B4FA009A032000030A21FFF7D2FAF0
:101FA0000748FFF745FA1020FFF702FB0198FFF7FB
:101FB0000BFB0098019900F0C5FA02B080BDC04645
:101FC0008427000080B5024800F09EF880BDC0461E
:101FD0008038010080B582B00A4979480190FFF746
:101FE0006BFC01980849FFF7BDFB01980121FFF741
:101FF00015FB1520002100F0A5FA0198FFF704FB5E
:1020000002B080BDAC270000B027000080B500F012
:1020100023F8FFF71FFEFFF7ABFFFFF719FFFFF7EE
:102020004BFFFFF7BDFDFFF7D5FFFFF7EDFDFFF716
:1020300079FFFFF7C7FF05499C2200208854044917
:10204000B82288540349885480BDC0462402202009
:10205000C40220206801202080B588B01E4800906E
:10206000FFF79EF91D480190FFF79AF91C4802906E
:10207000FFF7EEFB1B480390FFF7EAFB1A480490BA
:10208000FFF7E6FB4E480590FFF7E2FB924806900B
:10209000FFF79CFCB8480790FFF798FC0098FFF703
:1020A000E7F80198FFF7E4F80298FFF7C3FA0398FE
:1020B000FFF7C0FA0498FFF7BDFA0598FFF7BAFAE0
:1020C0000698FFF73FFC0798FFF73CFC1020FFF74E
:1020D0006DF808B080BDC04600000A4000200A40EC
:1020E00000A086400020864000008640000010408E
:1020F00080B582B0014601A8017001787648FFF7EB
:10210000ADFC02B080BDC04680B584B0029002989C
:10211000401E000E002803D0FFE70120039011E0CD
:102120000298401E0949086000200190C043032125
:1021300000F008FA019806490860064A0721116074
:102140000390FFE7039804B080BDC04614E000E0B0
:1021500018E000E010E000E080B500F057F980BD25
:1021600080B582B01648FFF76FFA012822D1FFE749
:1021700000F02CF8FEF738FDFEF79AFF11490091A8
:1021800014311148019000F049F9009901982A3161
:1021900000F044F900990198413100F03FF90099AD
:1021A00001985C3100F03AF900990198723100F021
:1021B00035F9FFE702480121FFF71AFA02B080BDA6
:1021C0000000874048002020911B000080B584B0AB
:1021D00000F018F90390039831490968401A002863
:1021E00001D5FFE759E000F00DF9401D2C490860CA
:1021F0002C490020086002900190FFE70198062812
:1022000032D8FFE70198C2002948811880584968F0
:10221000FFF7BAF800280FD0FFE7019882002549A0
:10222000012088501F48009000687F21C905FDF7F4
:102230005BFF0099086005E0019882001D490020BD
:102240008850FFE7019882001A498958401C48438A
:10225000FEF794F801460298FDF746FF0290FFE76B
:102260000198401C0190C9E70E4800680021FEF764
:1022700077F8002805D0FFE70C4800680A49086095
:102280000BE0029807490968FDF7C4FF01460648BC
:102290000160006805490860FFE704B080BDC046E2
:1022A000580120208003202064012020F8002020F5
:1022B000C00020208803202080B50748FFF74EFB90
:1022C0000B2806D1FFE70448FFF776FB03490870A7
:1022D00000E0FFE780BDC04600801040840320205E
:1022E00080B582B02448FFF739FB0B2842D1FFE7C5
:1022F0002148FFF761FB014601A801701F490978D9
:102300006A46117000780D2805D0FFE701A8007813
:102310000A2819D1FFE768460078012813DBFFE798
:1023200068460278164800218154D44900F04CF9DF
:10233000002804D0FFE7134901200870FFE7694631
:1023400000200870FFE711E0684600781E2808DCCE
:10235000FFE701986B461A78511C19700849885498
:1023600003E0694600200870FFE7FFE70098034993
:102370000870FFE702B080BD000010402404202058
:10238000A40320205C01202080B588B0079006912E
:1023900000200590FFE70598069988421BDAFFE7C1
:1023A0000798059989004018049000200390FFE7E2
:1023B000039803280ADCFFE704980399405CFFF7C1
:1023C00097FEFFE70398401C0390F1E7FFE70598AD
:1023D000401C0590DFE7FF20C0050290002001901F
:1023E000FFE7019803280ADCFFE7019902A8405C97
:1023F000FFF77EFEFFE70198401C0190F1E708B06F
:1024000080BD0000044800687047C0460249086863
:10241000401C08607047C0462804202080B582B068
:10242000019000910198002801D1FFE70BE000988E
:102430000078C007002806D0FFE701988047009980
:1024400000200870FFE702B080BD000081B00146A7
:102450006846017000214056002809D4FFE768460D
:1024600001781F2001400120884016490860FFE7DD
:1024700001B0704781B001466846017000214056A6
:10248000002809D4FFE7684601781F200140012099
:1024900088400C490860FFE701B0704781B00146F1
:1024A0006846017000214056002809D4FFE76846BD
:1024B00001781F2001400120884002490860FFE7A1
:1024C00001B0704780E200E081B0014668460170CB
:1024D00000214056002809D4FFE7684601781F20F4
:1024E00001400120884016490860FFE701B07047AD
:1024F00081B001466846017000214056002809D489
:10250000FFE7684601781F200140012088400C4900
:102510000860FFE701B0704781B00146684601706E
:1025200000214056002809D4FFE7684601781F20A3
:1025300001400120884002490860FFE701B0704770
:1025400000E100E070B582B0024601A8027000917F
:1025500000214056002816D4FFE7002401A908579F
:102560000322D3431840174A805809578C07E50EB9
:10257000FF24AC40A043009CA401E4B2AC40204343
:10258000194088501AE001A908780F242040083823
:102590000322D34318400A4A8058002549578D0723
:1025A000EE0EFF25B540A843009DAD01EDB2B5404C
:1025B00028432140083919408850FFE702B070BD18
:1025C0001CED00E000E400E080B586B004900391CB
:1025D0000498002804D0FFE70398002804D1FFE7FF
:1025E00005A90020087018E0049802A900F082F8FC
:1025F000039908600299049A00209142019006D044
:10260000FFE702980078414248410190FFE70198B6
:102610000121084005A90870FFE705A8007806B069
:1026200080BD000080B584B000200390FFF7EEFC71
:10263000FEF72CFDFEF710FCFEF7DAFB15200290EA
:10264000FFF704FF0298FFF73FFFFFE7002101912A
:102650000846FEF723FC01990120FEF71FFC0748FE
:10266000016807480160074909684160064909682F
:1026700081600321FFF788FEE8E7C0466001202063
:102680002C04202064012020F80020202021020CAE
:1026900001D010211046020A01D010460839020963
:1026A00001D01046091F820801D01046891E420839
:1026B00001D0881E7047081A704700000000000013
:1026C00002E008C8121F08C1002AFAD170470000B2
:1026D0007047000000000000002001E001C1121F4F
:1026E000002AFBD1704730380A2801D201207047F8
:1026F0000020704708B50A4600210091014668464F
:10270000FDF777FE009808BDDDDDDDDDDCBBBBDD60
:10271000DDDDDDDDDDDDDDDD988888888888888881
:1027200077777777778888888555555666666666A1
:102730006666666666688888833333322222222280
:10274000222222222228888D08000000FFFF00009C
:102750000001010008000000180000000030000027
:102760000800000011270000000001000800000020
:102770001127000000000100080000000800000010
:102780000030000001000000000000000000000018
:102790000000000000000000100000000001000028
:1027A00003000000000000003400C44108000000E5
:1027B000020000007F38010001000000000000005E
:1027C00000000000E8270000000020205001000069
:1027D000900B000050280000500120203004000021
:1027E000D82600000000000033010134200A404ACE
:1027F0000808021180392411191C4A102C292D01B6
:1028000011494402120219180910534918091249B2
:1028100049483972F93009125F1930299739385906
:10282000A0392819086A2018290939185A080829CE
:10283000111A8018290C196B290829A419085A049F
:1028400034192A210C11A086408919200915183144
:04000005000000C136
:00000001FF
