:020000040000FA
:1000000088162020D5000000D9000000DB00000089
:1000100000000000000000000000000000000000E0
:10002000000000000000000000000000DD000000F3
:100030000000000000000000DF0000008127000039
:10004000E3000000611C0000A1280000E3000000A4
:10005000E3000000E3000000E3000000E300000014
:1000600000000000E3000000E300000000000000CA
:1000700000000000AD320000E30000008532000007
:10008000892700001D280000E3000000E3000000B5
:10009000E3000000F927000000000000000000005D
:1000A000E3000000E300000000000000000000008A
:1000B000E300000000000000E3000000E300000097
:1000C0000348854600F0B8FA004800472138000090
:1000D0008816202003480047FEE7FEE7FEE7FEE71C
:1000E000FEE7FEE7C1000000F8B502464A40D40F23
:1000F00042004B0052085B089A4202D20246084670
:1001000011464A0023D0C30D4A00DDB2120EAD1ACB
:10011000202D35DA49020126490AF6058A19002CF4
:1001200000D0524220214F1B1146B9402A411018DD
:10013000C20D9A4221D0002C17D0012D08DCDA051F
:10014000801AD20F8019D207DBB200F0DDF9F8BDBA
:10015000DA05801A012340001B06C01880185A4295
:100160008018CA0F1043490007E04908C20711432D
:10017000DA05801A80194008801800F0BDF9F8BD32
:1001800061000122511A001BF7E70122D2075140FA
:10019000AAE70122D2075040A6E7024670B54A40BE
:1001A000D30FDB0740002DD04A002AD0010E140ED9
:1001B000000212020919400A520A8418E501044695
:1001C0005443000A120A2E045043A4194219200C69
:1001D000C543AA18120C0125AD03521C5219120472
:1001E0007F39240400D0521C104301D44000491E22
:1001F000C2B20C06C0092018401C4008802A02D058
:1002000003E0002070BD40084000002900DA002013
:10021000184370BD70B502464A40D50F40004A00F1
:10022000ED0740085208002814D0002A12D0C40D4F
:10023000D30D41020120C0055202490A520AE41AB4
:10024000091812187D34914201D3641C00E0490062
:10025000002C01DA002070BD0023914201D3891ADD
:100260000343400849000028F7D100290AD09142F1
:1002700002D10121C90705E0914201D2012101E02B
:100280000121C943E005C018401900F035F970BDDF
:10029000F0B51FB488B00B9909980024484009991B
:1002A000C00F490049080991C0070B990090490007
:1002B00049080B9109990898A64608431CD00B9948
:1002C0000A98084318D0099801244000420D4800BC
:1002D000410D099824050003000B204309900B9859
:1002E0000003000B20430B9050181C4940180022BB
:1002F00001901446104605E0002001460DB0F0BD07
:10030000032801DA034600E003239C46C11A0AAE23
:100310000AE05F0008ADED5B4F00F75B7D4300270F
:10032000AA187C41491C5B1E6145F2DD410004AB0B
:100330005A522104120C0A43240C401C0828DFDB0B
:10034000019802900099704601910090059B049AD3
:100350000799069800F01EF9D0E700000DFCFFFF9A
:100360000122D207002800DB101A002900DB511AF5
:10037000814201D801207047002070470122D20736
:10038000002800DB101A002900DB511A814201D23B
:1003900001207047002070470122D207002800DBAF
:1003A000101A002900DB511A814201D30120704745
:1003B000002070470122D207002800DB101A002914
:1003C00000DB511A814201D901207047002070479B
:1003D0000122D207002800DB101A002900DB511A85
:1003E000814201D1012070470020704710B50029DB
:1003F00004DB0C460121C9074042A141002B04DB6C
:100400001C460123DB075242A341801A994101D3C4
:10041000012010BD002010BD10B5002904DB0C46E2
:100420000121C9074042A141002B04DB1C460123E6
:10043000DB075242A341101A8B4101D3012010BDAA
:10044000002010BDC217C10F504010B54018CA0798
:100450009623002100F058F810BDC20F4100400261
:100460000123400ADB05D207090EC0187F2901DAF3
:1004700000207047962903DC9623591AC84001E0F2
:1004800096398840002AF4D040427047C20FD20704
:10049000400040080BD0C10D0723DB01C918400202
:1004A0000905400A1143C208400711437047002064
:1004B00001467047CB0FDB07490010B549080246DB
:1004C0000A4307D00A0D07240903E401090B121B94
:1004D000002A01DC002010BDC900440F0C43C100FC
:1004E000E018D205801800F007F810BD10B5002301
:1004F000036000F0FBF810BD002904DA401C49003D
:1005000001D140084000704770B40024050C05D1AB
:100510001024000402D1002921D01124050E01D19C
:1005200000020834050F01D10001241D850F01D1FF
:100530008000A41C002801DB4000641C002908D0B6
:1005400020252E1B0D46F540A14000D00121294356
:10055000084301061B1B000ADB1D02D5002070BCEE
:100560007047DB05181880180029F8DA401C49008C
:10057000F5D170BC40084000704710B5002B08DA78
:100580000024401C614192185B411A4301D140088C
:10059000400010BDF0B51FB482B005460C0003D07A
:1005A000084603F079F902E003F076F920300246BC
:1005B00000902146284600F057F8049B059A04460F
:1005C0000F4618431143084314D0184610431BD05C
:1005D000009840210A1A1846059900F055F805467A
:1005E0000E46009A0599049800F03EF8084305D09D
:1005F000012004E02046394607B0F0BD0020C117B5
:1006000005430E432C43374300990E986305401A67
:100610007905E40A00220C43FD0A0A3002D50020C5
:100620000146E9E70105101969410C9C0D9D00196F
:100630006941FFF7A2FFDFE71CB5094800900948B0
:10064000019005460126009C05E0E36807CC334392
:100650000C3C98471034AC42F7D3FFF735FD00004F
:10066000143A0000343A000010B5202A04DB014699
:10067000203A9140002010BD914020239C1A03464F
:10068000E3401943904010BD10B5202A04DB084612
:10069000203AD040002110BD0B46D340D04020244A
:1006A000A21A91400843194610BD00000FB400B5CE
:1006B00089B00A460DA9009100230C99002ACB604D
:1006C000234B0693234B079301D0042300E0002320
:1006D000214A0292214A0892019302466B46002069
:1006E00000F0D5F809B008BC04B01847F0B585B0E3
:1006F00007460020C04301901E46002015460C46C8
:100700000091029104903B466A46314604A8FFF7E7
:10071000CDFF049902466018002D05D0002901D0B4
:10072000034600E023462B6000290ED0002A02DD9C
:100730000099814209D0001B019000943B466A4613
:100740003146029404A8FFF7B1FF05B0F0BD0000E8
:10075000E50A0000050B0000FFFFFF7F61070000B6
:1007600010B50F21C0B2490200F0F6F910BD00002B
:10077000FFB5087889B01546FF2805D0491C2D28FB
:1007800004D00022002407E000240BE00122F9E756
:100790000A235C430419491C0878FF28F8D1002A71
:1007A00000D06442002004902A7801462D2A01D00E
:1007B0002B2A0FD16D1C2D2A02D00022049209E0B1
:1007C0000122FBE700260A2233466D1C00F0ACF93B
:1007D000381871412F78FF2FF4D10C9AA218069285
:1007E00002460A4304D0FF23069A9133DA4205DA1F
:1007F000002109980A4606C00DB0F0BD0024B74A92
:10080000B54D2646079200F031FA02900698039102
:10081000002801DA474200E0074639050020AF4AC8
:10082000001C51410191009012E0F80707D02246C8
:100830002B4630460799FFF72BFD064607912246C7
:100840002B4610461946FFF723FD04460D467F1040
:10085000002FEAD10698019B0028009A039902987C
:1008600006DA00F08BF93246079B00F087F905E0C5
:10087000FFF70EFD3246079BFFF70AFD049A002A98
:1008800002D00122D2075140099A03C2B4E7FFB552
:1008900091B0002009900025ED432E209E685C68F1
:1008A0001F460190B9696D1C129888470090396AFB
:1008B00088470028F6D10098401C0AD00D20C001BE
:1008C0008443002E12DD00982B2809D02D280DD14D
:1008D00003E00020C04315B0F0BD012080020443B6
:1008E000B9696D1C12988847761E009003A96005AF
:1008F00001D52D2000E02B206A461073491C0CA85E
:100900000F9102900AE0B9696D1C12988847009017
:100910000120400204431398761E0560002E02DD7C
:1009200000983028EFD001990098884245D1802066
:10093000044308E00998401E099001204002044346
:100940001399681C0860B9696D1C761E1298884757
:1009500000903028EED030E00199884205D1200681
:1009600003D480200443761E1DE0009802F0BFFFF0
:10097000002825D0012149020C43009807AA0F99AD
:1009800003323038761E914208D208700F98401C0E
:100990000F90200607D50998401E03E0200602D4D8
:1009A0000998401C0990A00502D51399681C08609D
:1009B000B9696D1C129888470090002ECCDC59E074
:1009C000002E57DD0098652801D0452852D1A0059A
:1009D00050D5032000028443B9696D1C761E12981D
:1009E00088470090002E0CDD2B2804D02D2808D13C
:1009F000FF2001300443B9696D1C12988847761EA8
:100A00000090E00501D52D2100E02B210298017016
:100A10000298401C0290019025E00120400204430E
:100A20000EA902980131761E88420ED200980299D2
:100A300030380006000E087003D1029901988142F7
:100A40000AD90298401C029006E0E00501D524482E
:100A500001E0234840420990B9696D1C129888470B
:100A6000009013980560002E04DD009802F03FFF0F
:100A70000028D2D1F969129888470F99FF20087091
:100A8000029903AA087000200A900B900CA90AA8EA
:100A9000099BFFF76DFEA00502D40120C0431AE7B1
:100AA0002420044209D0E00713D138680B9A0A9930
:100AB000031D3B60006806C00BE00B990A98FFF726
:100AC000F9FC0146E00704D13868021D3A6000686D
:100AD00001602846FFE60000000014400000F03FDF
:100AE000F1D8FFFF4268002A08D001680B78491C42
:100AF000002B03D0521E06C0184670470121C1606A
:100B0000881E70474268002A0BD0C3680168002B1A
:100B100007D183688B4204D0491E521C06C00020B6
:100B200070470020C043704730B5434351435C18C1
:100B3000010C130C0D465D432C1980B292B2054690
:100B4000554351430A0C09044D1962415843010CA5
:100B500000044019514130BD7F2801D9002207E02F
:100B6000054B42089A5CC00700D112091207120F08
:100B7000012090400840704710390000F0B50C4645
:100B80005C4085B0E40FE40703944C000026640841
:100B900059009446490802460296224321D06246F3
:100BA0000A431ED06200570D4A000E032303550D61
:100BB000012402462C492405781B1B0B360B4018D8
:100BC00023432643614600901C46501AB44103D388
:100BD0000098401C009002E0921800985B410028A9
:100BE00003DA0020014605B0F0BD0020012109050F
:100BF0000746864611E064461D46141BB54106D3E0
:100C00006546521BB341744607430C43A646CD07C5
:100C100040084908284392185B4105460D43EAD134
:100C20001046184313D0604619465040714008439F
:100C300006D06046101AB34106D20122002306E016
:100C400000220123DB0702E00122D2435310009867
:100C500074460105381C6141029C039D00196941DD
:100C6000FFF78BFCBFE70000FD0300000EB5054A4F
:100C700002920022009213460192FFF78BFC03B010
:100C800000BD00003304000070B58C180578401CCE
:100C90006B075B0F01D10378401C2A1106D1027843
:100CA000401C03E006780E70401C491C5B1EF9D105
:100CB0002B0705D40023521E0DD40B70491CFAE7F4
:100CC0000378401CCB1A921C03E01D780D70491C60
:100CD0005B1C521EF9D5A142D8D3002070BD000084
:100CE00080B582B002F0A4FB019001982249096806
:100CF000401A002801D5FFE73BE002F099FB643081
:100D00001D4908601D480078012832D1FFE71C48C2
:100D10000078002805D1FFE702F08AFB1949086036
:100D2000FFE716480078164908700120810416482C
:100D300000F060FC00F03AF902F07AFB1149096812
:100D4000401AFF21F631884212D3FFE700F026F95E
:100D5000012081040C4800F04BFB02F069FB0949BB
:100D60000860064800210170007805490870FFE717
:100D7000FFE702B080BDC046BC0120202D0220202C
:100D80002C022020B801202000200A4080B582B02B
:100D90001020019002F0C4FB019802F0D7FB02B0D2
:100DA00080BD80B582B01020019002F0B9FB01989F
:100DB00002F022FC02B080BD10B588B00020079080
:100DC000FFE70798042800D9E4E007981822049266
:100DD00042437148059081188058496800F0ACFB87
:100DE000049902460598531E9A4106AB1A70079A59
:100DF00051434018007CC007002811D1FFE706A826
:100E00000078C00700280BD1FFE70798182141435D
:100E100061484018807D01210840012815D0FFE776
:100E20000798182141435C484018407D0121084043
:100E300001280AD0FFE70798182141435648401877
:100E4000007DC007002809D0FFE70798182141431B
:100E500051484118002048610861FFE707981821B0
:100E600041434D484018007CC007002822D1FFE7CD
:100E700006A80078C00700281CD0FFE707991822B1
:100E8000029210464843444903910B18012098757B
:100E9000079C13466343CB185874079B5A43891821
:100EA000C87402F0C5FA029A0399079B5A4389183D
:100EB0008860FFE707981821414337484018007CB5
:100EC000C007002818D0FFE706A80078C007002850
:100ED00012D1FFE707981821009141432E48019055
:100EE00041180120887402F0A3FA009A0199079B27
:100EF0005A438918C860FFE70798182141432648DC
:100F00004018807DC007002835D1FFE707981821D9
:100F1000414321484118C8688968884201D1FFE7E8
:100F200028E00798182141431B484118C868896880
:100F3000401A80084A280ED8FFE7079818210A4669
:100F400042431548831801225A75079A51434118A4
:100F50008868C8600DE0079818210A4642430E4889
:100F6000831801221A75079A514341188868C8608E
:100F7000FFE7FFE7FFE706A80078079918224A4332
:100F800005498918012210400874FFE70798401CA2
:100F9000079016E708B010BDB000202080B50748C4
:100FA0000022114600F076FD80BDC04680B50348A2
:100FB0000349002200F06EFD80BDC046000086405F
:100FC00050C3000080B584B000200390FFE7039871
:100FD000012828D8FFE70398242100914143DD48E8
:100FE0000190405602F088FA00990198039A514303
:100FF000401801210291405602F07EFA00990198B2
:10100000039A5143405602F0E3FA009A019802997C
:10101000039B5A438018405602F0DAFAFFE7039820
:10102000401C0390D3E704B080BDC04680B582B0B9
:101030001520019002F038FA019802F0A1FA02B0EE
:1010400080BD000081B000200090FFE700980128DB
:1010500015D8FFE7009818224243864989180301F2
:10106000084AD018D2588A60C2684A6182680A6108
:101070004068C860FFE70098401C0090E6E701B0B8
:101080007047C0466401202080B592B0024611A886
:10109000027010AA11800078022801D3FFE7DEE079
:1010A000002110A8405E01282CDBFFE7002110A8DA
:1010B000405E6C49884225DCFFE711A80D9000785E
:1010C00018210E9141436B480F9041188868C968F8
:1010D00000F078FA0D9A0E990F9812785143411842
:1010E0000869496900F08EF90D9A0E990F981278E7
:1010F000514342184058002310A9C95E127900F0EC
:10110000C9FCACE0002110A8405E5749884223DBAF
:10111000FFE711A80A90007818210B914143554828
:101120000C9041188868C96800F04CFA0A9A0B992B
:101130000C981278514341180869496900F062F926
:101140000A990B9A0C9809784A43811880580A79B1
:10115000454900F09FFC81E0002110A8405E002876
:101160002DD5FFE7002110A8405E4049884226DBCC
:10117000FFE711A8079000781821089141433D48E6
:10118000099041180869496900F01CFA079A089902
:1011900009981278514341188868C96800F032F9FB
:1011A000079A089909981278514342184058002329
:1011B00010A9C95E4942127900F06CFC4DE0002193
:1011C00010A8405E2A49884223DCFFE711A804905A
:1011D0000078182105914143264806904118086976
:1011E000496900F0EFF9049A05990698127851437D
:1011F00041188868C96800F005F90499059A0698AD
:1012000009784A43811880580A79174900F042FC4E
:1012100022E011A80190007818210291414315485D
:10122000039041188868C96800F0CCF9019A0299C6
:1012300003981278514341180869496900F0C2F9CE
:101240000199029A039809784A43811880580A79CB
:10125000002100F01FFCFFE7FFE7FFE7FFE712B008
:1012600080BDC0460F27000010270000F1D8FFFF07
:10127000F0D8FFFF8401202080B582B00F200090BD
:1012800002F026F9009802F08FF90D20019002F08B
:101290001FF9019802F088F902B080BD10B586B040
:1012A00000200590FFE70598012851D8FFE7059831
:1012B0002421029141432748039040184069FFF7D9
:1012C000C1F82549FEF7A6FF2449FEF7A3FF029ABD
:1012D0000146039804910499059B5A438018009095
:1012E000C069FEF701FF0099C86104981C49FEF728
:1012F00054FF1C49FEF78EFF029A01460398059B96
:101300005A4380180190006AFEF7EEFE01990862C8
:101310000498FFF7BBF8144A144BFEF7B9FF0122FB
:101320009207134BFEF7B4FFFFF7C4F80299024689
:101330000398059C0B466343C3189A61059A514371
:10134000411800204861FFE70598401C0590AAE776
:1013500006B010BD68002020000036448FC2F53C66
:101360009A99D9400000C842182D4454FB210940E5
:1013700033331B40811E091F00BFFCD2704784B06D
:1013800003900291019203980068009000980199DF
:101390008843009000980299019A114008430399EC
:1013A000086004B07047000082B001900091009B7B
:1013B0000199094A88581843885002B07047C046BE
:1013C00082B001900091009B0199034A885818430C
:1013D000885002B07047C0464810000082B00190AB
:1013E00000910098019995225201885002B07047EF
:1013F00082B0019000910098019995225201885085
:1014000002B0704782B00190009100980199952236
:101410005201885002B0704782B001900091009B49
:101420000199034A88581843885002B07047C04653
:101430002810000082B00190009100980199024AA2
:10144000885002B07047C046D012000081B00090B2
:1014500000990120C2020248885001B07047C0467E
:101460000100002682B00190009101980249405885
:101470000099084002B070473810000010B584B0E1
:10148000069C0390029101920093029801990843EF
:1014900000990843069908430349084303998900C2
:1014A000244A885004B010BD8100040081B000902F
:1014B000009881001F4A8120885001B07047C046C3
:1014C00010B584B0069C039002910192009302989B
:1014D000019908430099084306990843812108436C
:1014E00003998900134A885004B010BD81B0009060
:1014F000009881000F4A0020885001B07047C04614
:1015000082B0019000910098034908430199890035
:10151000084A885002B070478000040082B00190F1
:10152000009100988021084301998900014A885060
:1015300002B070470480424082B00190009101984F
:101540002721C90140580099084002B0704782B075
:101550000190009101982721C90140580099084045
:1015600002B0704782B00190009101982721C90113
:1015700040580099084002B07047000081B00090C8
:101580000099024A0248885001B0704704080000E0
:10159000030000B182B001900091009B0199034AC1
:1015A00088581843885002B07047C0469013000016
:1015B00082B00190009100980199074A885002B0CA
:1015C0007047C04682B00190009100980199024A8C
:1015D000885002B07047C0469012000082B001905F
:1015E0000091009B01999D20420188581843885022
:1015F00002B0704782B00190009100980199024AB0
:10160000885002B07047C046B0120000F0B584B0F8
:1016100001242202344B19680392914319606A49EC
:101620000D686D04FCD5457E25409E69A64374195E
:101630009C612024045D03252C40DE69AE433419EF
:10164000DC611F4C256805262660466A37681F62E4
:1016500076685E6207262E402660C4697F252D02CB
:10166000DE69AE436406640C3419DC6107684568C2
:1016700082680092C66802690192426902929A6980
:10168000104C14403A07120B2D03ADB2AA18324386
:10169000009D2D072D0D1543019A1543029A154300
:1016A000007E2843084A0240101998611868039A7E
:1016B0001043186008688005FCD504B0F0BDC04632
:1016C000001340408D00F0FF72FF0F0006490868CC
:1016D0000122904308607047034908680122120202
:1016E000904308607047C04608010B4081B0014636
:1016F0006846017000780249086001B07047C04632
:1017000008030B4080B582B0014601A80180018822
:101710000F2002022B48FFF732FE02B080BDC04608
:10172000F0B5124B1D46083D2E680124A6432E60DD
:101730000326360330401F68B7433818186018680E
:10174000FF26B043C9B240181860286820432860BB
:1017500018682107002A06D0084318601A48016853
:10176000C905FCD5F0BD88431860F0BD10010B40E1
:1017700080B582B0014601A80170017802480322B9
:10178000FFF7FDFD02B080BD00010B4080B582B0C7
:10179000014601A8017001780A483022FFF7EFFDE9
:1017A00002B080BD07498860074802689202FCD5F4
:1017B000012212040B6813430B600168C906FCD5B3
:1017C0007047C04604010B4004020B4082B00190F8
:1017D000009100980199024A885002B07047C046B3
:1017E0004810000081B000900099024A0120885002
:1017F00001B070470811000082B001900091009B79
:101800000199CA4A88581843885002B07047C046A8
:1018100081B0009000990120C202CA48885001B0EE
:101820007047C04681B0009000988121490140581E
:10183000C0B201B0704781B0009000988121490189
:101840004058C0B201B07047F0B5AA4A82183B4B6D
:10185000C31808794E793A4D774C002E23D02028B2
:1018600004D00526F601002803D003E0354E0028F9
:1018700000D18826576F2F4037435767976F2F4007
:1018800037439767566B26405663966B26409663A0
:101890000026566596658F26F6435F6837405F6081
:1018A0009F6837409F608E79096820280BD00028F8
:1018B00019D1491E5160D76E2F4088210F43D7663A
:1018C0001746703719E0491E5160D16E29401D4FEF
:1018D0003943D166116F2940394311670121490706
:1018E000194D174609E049085160D76E2F40052170
:1018F000C9010F43D766174670373C682C400C432C
:101900003C60D16A4C4C2140D162116B2140116383
:101910000021D16411658F21C943D46F0C40D46775
:101920001C680C401C600643BD2030401168074B0A
:101930000B40C018801C1060F0BDC0468418000029
:1019400024493E0001040000FFFFFFCF4000FFCF0D
:10195000B0B54A68364BC250664A80180A78222AC7
:1019600058D8930001A4E3589F46C0460B1A0000C4
:10197000151A00000B1A0000151A0000151A0000B5
:10198000151A0000151A0000151A0000151A00009B
:10199000151A0000151A0000151A0000151A00008B
:1019A000151A0000151A0000151A0000F919000098
:1019B000151A0000F9190000151A0000151A000088
:1019C000151A0000151A0000151A0000151A00005B
:1019D000151A0000151A0000151A0000151A00004B
:1019E000151A0000151A0000151A0000F919000058
:1019F000151A0000F919000003231B0704689C4313
:101A000001235B07E318036004E003231B0704685A
:101A10009C4304600B69C360CB68064C1C40C36ADE
:101A2000054D1D402B19C362097A11430160B0BDF9
:101A300008180000777702008888FDFF81B00090C9
:101A40000099614A6148885001B0704782B00190A6
:101A500000910098019911221202885002B070473B
:101A600010B507239B04194092008018024A84583D
:101A70009C436118815010BD3018000010B5029CC5
:101A8000A400001911431943014A815010BDC046FA
:101A90005018000092008018014A81507047C046DB
:101AA0001018000010B50122120383180C789C60F6
:101AB0004B7883508978014A815010BD0C11000089
:101AC00010B586B001930B4601460198059104A913
:101AD0000B8003AB1A8002AA10800598054C0019F0
:101AE00009881B88194312881143034AFFF747FCF2
:101AF00006B010BD0418000080FF000081B0009007
:101B0000009911200202885801231843885001B01F
:101B10007047000082B001900091009B0199034A38
:101B200088581843885002B07047C04628100000FB
:101B300081B0009000990120C2020248885001B093
:101B40007047C0460100002681B0009000988121B6
:101B500049014058C0B201B070470000B0B5112231
:101B6000120283580124A34383500B888C781C43B2
:101B70008B882343094C1C408358094D1D40631931
:101B800083508B79CC791C43097A21437E231940F9
:101B9000801842689A4351184160B0BD1867000030
:101BA000E798FDFF81B00090009802494058C0B20C
:101BB00001B070472411000081B000900099024AE2
:101BC0000248885001B0704704080000030000B1CB
:101BD00080B584B003900291019203980B4940189C
:101BE00002990B4AFFF7CBFB03980A494018019969
:101BF0003F22FFF7C4FB0399074A8818895801223E
:101C00001140FFF7BCFB04B080BDC04610110000BE
:101C1000FFFF0000141100000411000010B50122A4
:101C2000120383180C789C604978815010BD80B5F0
:101C300082B0019000910198112109024018009989
:101C40000322D203FFF79BFB02B080BD034A80183A
:101C500002681206FCD481617047C046081100007A
:101C600080B588B000200790FFE70798012800D9C9
:101C700081E007982421059141434048069041188E
:101C800048688968FFF7EEFB059A0699079B5A4357
:101C900089188968084088421FD1FFE707982421E6
:101CA000414336484118C8680969FFF750FC0028CD
:101CB00009D1FFE70798242141433048411848697A
:101CC000401C486108E00798242141432B484118F3
:101CD0004869401E4861FFE734E0079824210391DA
:101CE0004143264804904118C8680969FFF7BAFBC8
:101CF000039A0499079B5A43891809690840884246
:101D00001FD1FFE70798242141431C484118486828
:101D10008968FFF71CFC002809D1FFE707982421F8
:101D20004143164841184869401E486108E0079839
:101D300024214143114841184869401C4861FFE78C
:101D4000FFE7FFE707982421019141430B480290E8
:101D5000411848688968FFF733FB01990298079A90
:101D600051434118C8680969FFF72AFBFFE7079844
:101D7000401C079079E708B080BDC046680020206D
:101D800010B5B0B02E902D912C922B932B98002152
:101D9000FEF710FB002803D1FFE700202F905DE144
:101DA0002E98C0682C99FEF7F0F92D9988612D982E
:101DB000C0680021FEF7D4FA00281DD1FFE72D9856
:101DC00025908069FEF762FB024625982692012243
:101DD000D20791432791C068FEF758FB0246269828
:101DE0000B462799FEF718FB002804D1FFE72D9931
:101DF00000208861FFE7FFE72D9824908169006942
:101E0000FEF772F9249908612D9800680021FEF709
:101E1000A7FA002824D1FFE72D991F910868229086
:101E20000122D30702465A40209209692191FEF708
:101E3000A5FA014622980029239001D121982390E8
:101E4000209823991D91FEF7B5FA014620980029A4
:101E50001E9001D11D981E901F991E980861FFE7E2
:101E60002D998869C969FEF790F92B99FEF7D2F987
:101E70002A902D981690406914902A987949FEF777
:101E80008CF90146149815917749FEF786F9159952
:101E9000FEF72AF9169948612E981B90016818914F
:101EA0002D991A918A69179240680969FEF775F9A8
:101EB0001799024618981992FEF76FF91999FEF7CB
:101EC00013F91A9902461B981C9280684969FEF71B
:101ED00064F91C99FEF708F929902D9840680021B3
:101EE000FEF73EFA002800D0B2E0299828902E98FC
:101EF000C0680021FEF734FA002827D1FFE72D98AB
:101F000080680021FEF72CFA00281FD1FFE72D98EA
:101F1000816810914068129029991191FEF72EFA6C
:101F2000014612980029139001D11198139010982E
:101F300013990E91FEF73EFA0146109800290F9072
:101F400001D10E980F900F98299055E02E98C068F7
:101F50000021FEF721FA00282BD1FFE72D98806899
:101F60000021FEF7FDF9002823D1FFE72D988268B4
:101F70000121C9074A400A92406848400C902999BB
:101F80000B91FEF717FA01460C9800290D9001D12C
:101F90000B980D900A980D990891FEF7EFF90146FC
:101FA0000A980029099001D1089809900998299068
:101FB00021E02D98406806900121CA070146514052
:101FC000049129990591FEF7D9F90146069800294F
:101FD000079001D105980790049807990291FEF7A0
:101FE000E9F9014604980029039001D10298039071
:101FF00003982990FFE7FFE729982899FEF7C5F88D
:10200000FEF744FA0122D2079143184BFEF7EEF98E
:1020100000281CD1FFE72E9840681549FEF7A0F96B
:10202000002814D1FFE728992998FEF7AEF82B99DC
:10203000FEF7B3F82E994968FEF7ECF801462D98A3
:1020400001900069FEF750F801990861FFE7FFE78A
:102050002D998869C86129982F90FFE72F9830B093
:1020600010BDC046CDCC4C3FCDCC4C3EB5F8E43E87
:10207000BD37863580B584B0144915480390FFF705
:1020800011FD03981349FFF7DFFB03980023029328
:1020900019461A46FFF714FD029B0398009310227D
:1020A0001946FFF7EBFC029A03981146FFF7D8FC9C
:1020B000029A03980849FFF7EDFC0398FFF792FB9B
:1020C00003980121FFF7C2FC04B080BD5039000025
:1020D0000000864054390000FFFF000080B582B048
:1020E0000E490F480190FFF799FD01980D49FFF740
:1020F00035FD01980021FFF79AFD019841218900E3
:102100001B22FFF765FD019801218902FFF702FDFF
:102110000198FFF7F3FC02B080BDC0465C390000B7
:10212000008010405E39000080B590B00920FFF7B4
:10213000DDF90A20FFF7DAF9062004210291FFF702
:10214000EDF9029973480B90FFF774F925200521EA
:102150000391FFF7E3F90B9801210A910904079114
:10216000FFF768F903992D20FFF7D8F90A990B9822
:102170004905FFF75FF9142002210491FFF7CEF91A
:1021800004991520FFF7BCF904991320FFF7B8F95B
:10219000079A00230893009331201946FFF790F91E
:1021A00008990A9800918106059142040692C30499
:1021B00009933720FFF762F90599069A0898099B59
:1021C00000902320FFF75AF90599069A0898099B71
:1021D00000902420FFF752F90599069A0898099B68
:1021E00000902620FFF74AF90599069A0898099B5E
:1021F00000903320FFF742F91F20FFF757F9202006
:10220000FFF754F90E20FFF751F90F20FFF74EF9B1
:10221000089A099B009232201146FFF72FF9089A7D
:10222000099B009239201146FFF728F9089A099B6B
:10223000009221201146FFF721F9089A099B00928C
:1022400016201146FFF71AF9069A0899099B009182
:102250001020FFF713F9069A0899099B00911C209A
:10226000FFF70CF9069A0899099B00912A20FFF7BD
:1022700005F9069A0899099B009111200C90FFF727
:10228000FDF8069A0899099B00911D20FFF7F6F8C2
:10229000079A0899099B00912C20FFF7EFF8089AFC
:1022A000099B009230201146FFF7E8F82B20FFF73A
:1022B000FDF80A990B980906FFF76CF90A990B9833
:1022C00009030D91FFF770F80B980D99FFF7A4F82B
:1022D0000C988104F3480E90FFF780F80E980E4991
:1022E000FFF766F90E980D49FFF7A4F80D990E98BF
:1022F000FFF750F90E980A49FFF770F90E9809494F
:102300000F91FFF751F80E980F99FFF785F810B06D
:1023100080BDC04600000A400C8001000C804500D2
:10232000004040004000800880B582B00A49E14882
:102330000190FFF7B7FB01980849FFF709FB0198E7
:102340000121FFF759FA1520032101F06BF90198DB
:10235000FFF748FA02B080BD683900006C39000010
:1023600080B584B01649D0480390FFF79BFB0398D3
:102370001449FFF769FA039801220292510392026D
:102380008023FFF79DFB0299039800911022002300
:1023900001931946FFF772FB0199029A0398FFF720
:1023A0005FFB029A03982249FFF774FB0398FFF73B
:1023B00019FA03980221FFF749FB04B080BDC0461B
:1023C000803900008439000080B584B01649B748D0
:1023D0000390FFF767FB03981449FFF735FA03985A
:1023E00001220292510392028023FFF769FB0299B6
:1023F000039800911022002301931946FFF73EFB3A
:102400000199029A0398FFF72BFB029A0398084957
:10241000FFF740FB0398FFF7E5F903980221FFF768
:1024200015FB04B080BDC0468C3900009039000017
:102430001127000080B582B00B49EC480190FFF7EE
:1024400031FB01980949FFF783FA019801210091B6
:10245000FFF7D2F90099102001F0E4F80198FFF796
:10246000C1F902B080BDC046983900009C39000017
:1024700080B582B00B4990480190FFF713FB01989B
:102480000949FFF765FA019801210091FFF7B4F9B6
:102490000099022001F0C6F80198FFF7A3F902B0F5
:1024A00080BDC046B0390000B439000080B582B0AC
:1024B0000B49F4480190FFF7F5FA01980949FFF735
:1024C00047FA019801210091FFF796F90099112030
:1024D00001F0A8F80198FFF785F902B080BDC04669
:1024E000C8390000CC39000080B582B00F4973486C
:1024F0000190FFF793FB01980D49FFF72FFB01981F
:102500000021FFF794FB019815212D22FFF760FBB6
:10251000019801218902FFF7FDFA0D20022101F047
:1025200081F80198FFF7EAFA02B080BDE0390000B7
:10253000E239000080B582B000200190FFF7D6F8A4
:10254000012000904002FFF7DDF80198FFF710F935
:10255000FFF7BCF8FFF7C0F8009A032000030A2138
:10256000FFF7DEF80748FFF751F81020FFF70EF9E4
:102570000198FFF717F90098019901F053F802B09C
:1025800080BDC046EC39000080B5024800F0D0F8AC
:1025900080BDC0468038010080B500F02DF8FFF7FF
:1025A000C3FDFFF7C7FFFFF7DBFEFFF70DFFFFF7E8
:1025B00061FDFFF7B9FEFFF75BFFFFF777FFFFF75E
:1025C00039FFFFF78BFDFFF78FFFFFF7DDFF0649B0
:1025D0009C22002088540549B823C8540449C85493
:1025E0000449885480BDC046F8022020980320206A
:1025F0003C0220205404202080B58CB02848019053
:10260000FEF7BCFF27480290FEF7B8FF264803906C
:10261000FFF714FA25480490FFF710FA24480590B4
:10262000FFF70CFA7C480690FFF708FAB7480790C6
:10263000FFF704FA93480890FFF700FA6B480990F7
:10264000FFF7FCF924480A90FFF7B6FA1B480B90F5
:10265000FFF7B2FA0198FEF7F9FE0298FEF7F6FED0
:102660000398FFF7D5F80498FFF7D2F80598FFF71D
:10267000CFF80698FFF7CCF80798FFF7C9F8089845
:10268000FFF7C6F80998FFF7C3F80A98FFF750FA62
:102690000B98FFF74DFA1020FEF76CFE0CB080BDD2
:1026A00000000A4000200A4000A08640002086402A
:1026B00000008640000087400000094000001040F4
:1026C00080B582B0014601A8017001780248FFF789
:1026D000BDFA02B080BDC0460080104080B582B017
:1026E000024601A8027000910078002806D1FFE799
:1026F0000098FDF7A7FE8649C8600BE001A80078A6
:10270000012806D1FFE70098FDF79CFE8449C860C8
:10271000FFE7FFE702B080BD80B582B002200190E4
:1027200000F0FEFE019800F067FF02B080BD0000DF
:1027300080B584B002900298401E000E002803D09D
:10274000FFE70120039011E00298401E094908604C
:1027500000200190C043032100F064FF0198064966
:102760000860064A072111600390FFE7039804B050
:1027700080BDC04614E000E018E000E010E000E09A
:1027800080B500F059FE80BD80B582B01748FFF7D4
:1027900052F8012827D1FFE7CE480068CE49896961
:1027A000FDF7FBFC12490191086012480090006897
:1027B000FDF748FE01990968FDF796FCFDF74DFE0F
:1027C00001460020FFF78AFF00980068FDF73AFEF7
:1027D00001990968FDF7D9FCFDF73FFE014601208C
:1027E000FFF77CFF00E0FFE702B080BD004008403B
:1027F000300220206000202080B50748FFF712F843
:10280000012807D1FFE7FEF7D7FA03480121FEF7B9
:10281000DDFF00E0FFE780BD0000874080B582B0AB
:102820001848FFF708F8012828D1FFE71648026882
:1028300016481749174BFFF7A3FA1749019108608B
:10284000164800900068FDF7FDFD01990968FDF745
:102850004BFCFDF702FE01460020FFF73FFF00980A
:102860000068FDF7EFFD01990968FDF78EFCFDF7A3
:10287000F4FD01460120FFF731FF00E0FFE702B061
:1028800080BDC046008086403402202050002020B9
:1028900004022020CDCC4C3D2C05202064002020BB
:1028A00080B584B01948FEF7C6FF01282BD1FFE799
:1028B000FEF7F4FC85480190826915481549164BCE
:1028C0000093FFF75DFA009B01460198134A0292BC
:1028D0001160C26B12481349FFF752FA0146029881
:1028E000114A039211600068FDF7B7FD0146002010
:1028F000FEF7CAFB03980068FDF7AFFD0146012013
:10290000FEF7C2FB00E0FFE704B080BD0000094015
:1029100040002020E00120200AD7A33C0C05202005
:1029200030002020C00120200805202080B582B082
:10293000E3495D31E348012200F09DFDE248007863
:10294000012801D0FFE729E000F0B9FBE04800785A
:10295000012823D1FFE7604880696049FDF72AFD1F
:10296000002808D1FFE75C4880695D49FDF714FD48
:10297000002813D1FFE700F097FB002100910846E3
:10298000FFF7ACFE009901200190FFF7A7FE009928
:102990000198CD4A1170D8490870FFE702B080BD98
:1029A00080B584B0C6497531C648022200F063FD87
:1029B000C5480078022801D0FFE784E0C3480068DA
:1029C000002807D1FFE700F07AFBC0490868401CE7
:1029D0000860FFE7C248006AFDF758FD00223C4B43
:1029E000FDF704FD00282BD1FFE7BD48406CFDF743
:1029F0004DFD0022364BFDF7F9FC002820D1FFE702
:102A0000B348007803281BD1FFE7B04800680128CD
:102A100015D1FFE700F048FBAE480390C068AE490F
:102A2000FDF762FB0399C860A8490868401C08606C
:102A3000AA490868401C0860FEF7B3F9FFE7FFE702
:102A4000A748006AFDF722FD0022A64BFDF7CEFC49
:102A5000002838D1FFE7A248406CFDF717FD00229F
:102A6000A04BFDF7C3FC00282DD1FFE79B48006871
:102A7000012828D1FFE7FEF789F900F020FB16486E
:102A800080691649FDF796FC002808D1FFE7124837
:102A900080691349FDF780FC002813D1FFE700F09F
:102AA00003FB002101910846FFF718FE0199012060
:102AB0000290FFF713FE01990298834A11708E4924
:102AC0000870FFE7FFE704B080BDC0466800202023
:102AD0000000084020002020000020200000A0422C
:102AE0000000A0C280B584B0754945317548032205
:102AF00000F0C1FC74480078032801D0FFE7DCE057
:102B000072480068002807D1FFE700F0D8FA6F4943
:102B10000868401C0860FFE76D48007803281BD157
:102B2000FFE76A480068012815D1FFE700F0BCFA0A
:102B300068480390C0686849FDF7D6FA0399C860F1
:102B400062490868401C086064490868401C0860C5
:102B5000FEF727F9FFE7FFE76148006AFDF796FCFB
:102B60000022604BFDF742FC00281AD1FFE75C48C9
:102B7000406CFDF78BFC00225A4BFDF737FC002818
:102B80000FD1FFE75548006801280AD1FFE74F48F9
:102B90000068022805D1FFE7FEF7F8F800F08FFA89
:102BA000FFE74F48006AFDF771FC00224E4BFDF72E
:102BB0001DFC002831D1FFE74948406CFDF766FC59
:102BC0000022494BFDF712FC002826D1FFE74048C0
:102BD0000078012821D1FFE73C480068022807D18E
:102BE000FFE700F061FA39490868401C0860FFE718
:102BF0003648006803280FD1FFE736480290C068C6
:102C00003A49FDF771FA0299C86030490868401CDA
:102C10000860FEF7C6F8FFE7FFE73148006AFDF7F6
:102C200035FC0022324BFDF7E1FB002815D1FFE710
:102C30002B48406CFDF72AFC00222D4BFDF7D6FBFC
:102C400000280AD1FFE722480078002805D1FFE7D5
:102C500000F035FAFEF79AF8FFE72148006AFDF721
:102C600015FC0022234BFDF7C1FB002825D1FFE70F
:102C7000FB48406CFDF70AFC00221E4BFDF7B6FB3B
:102C800000281AD1FFE7F2480078022815D1FFE7A3
:102C900000F00AFAFEF77AF8002100910846FFF7E3
:102CA0001DFD009901200190FFF718FD0099019882
:102CB000FC4A1170F5490870FFE704B080BDC046BA
:102CC000B000202091300000000220203802202097
:102CD00002022020200020200000B442FC0420201A
:102CE00068002020000029400000364000003443E6
:102CF00000003B40008040402D02202080B586B07F
:102D0000D0492D31D048042200F0B5FBE5480078C9
:102D1000042801D0FFE792E1CC480068002807D1E1
:102D2000FFE700F0CCF9C9490868401C0860FFE7DC
:102D3000C748007803281BD1FFE7C4480068012872
:102D400015D1FFE700F0B0F9C2480590C068C2494C
:102D5000FDF7CAF90599C860BC490868401C0860BD
:102D6000BE490868401C0860FEF71BF8FFE7FFE754
:102D7000BB48006AFDF78AFB0022BA4BFDF736FB21
:102D8000002824D1FFE7B648406CFDF77FFB002206
:102D9000B44BFDF72BFB002819D1FFE7AF480068C3
:102DA000012814D1FFE7A948006802280FD1FFE7E6
:102DB000A6480068022809D1FFE7FDF7E7FF00F009
:102DC0007EF9A2490868401C0860FFE7FFE7A448B5
:102DD000006AA549FDF7C4FA00284ED1FFE7A048D4
:102DE000406CA149FDF7BCFA002846D1FFE79B489B
:102DF0000068012841D1FFE79448006803283CD1CE
:102E0000FFE793480078032817D1FFE79748006849
:102E1000002811D1FFE700F047F98E480490C06800
:102E20009349FDF761F90499C86090490868401C0E
:102E30000860FDF7B6FFFFE7FFE78E4800688549A9
:102E4000C968FDF7A2F901218907FDF7A5FA002855
:102E500012D1FFE7874800687E49C968FDF795F9F8
:102E600003218907FDF77CFA002805D1FFE7FDF76C
:102E70008DFF00F024F9FFE7FFE77948006A7E49FB
:102E8000FDF76EFA00284ED1FFE77548406C7A498D
:102E9000FDF766FA002846D1FFE770480068012870
:102EA00041D1FFE77148006801283CD1FFE7EF48B6
:102EB0000078022817D1FFE76C480068012811D17B
:102EC000FFE700F0F1F863480390C0686B49FDF735
:102ED0000BF90399C86065490868401C0860FDF754
:102EE00060FFFFE7FFE7634800685A49C968FDF7DC
:102EF0004CF901218907FDF74FFA002812D1FFE7AD
:102F00005C4800685349C968FDF73FF90321890708
:102F1000FDF726FA002805D1FFE7FDF737FF00F09F
:102F2000CEF8FFE7FFE74E48006AFDF7AFFA002250
:102F3000534BFDF75BFA002831D1FFE74848406C5E
:102F4000FDF7A4FA00224E4BFDF750FA002826D1D7
:102F5000FFE7C6480078012821D1FFE73B48006819
:102F6000032807D1FFE700F09FF838490868401CA4
:102F70000860FFE73548006804280FD1FFE73548AF
:102F80000290C0683449FDF7AFF80299C8602F4934
:102F90000868401C0860FDF704FFFFE7FFE73048C2
:102FA000006AFDF773FA0022364BFDF71FFA00287E
:102FB00015D1FFE72A48406CFDF768FA0022314B33
:102FC000FDF714FA00280AD1FFE7A8480078002886
:102FD00005D1FFE700F073F8FDF7D8FEFFE72048C2
:102FE000006AFDF753FA0022274BFDF7FFF900288E
:102FF00025D1FFE71A48406CFDF748FA0022224B22
:10300000FDF7F4F900281AD1FFE798480078022864
:1030100015D1FFE700F048F8FDF7B8FE0021009158
:103020000846FFF75BFB009901200190FFF756FB74
:10303000009901981B4A117014490870FFE706B007
:1030400080BDC046B0002020913000003802202012
:1030500002022020200020200000B442FC04202096
:1030600068002020000029400000A0410005202029
:1030700000003443280220200000B8410000B4C200
:1030800000003E4000804140000042402D022020D0
:1030900082B0019001986946087000980149087053
:1030A00002B070470002202080B582B0112001904C
:1030B00000F036FA019800F049FA02B080BD80B500
:1030C00082B01120019000F02BFA019800F094FAE0
:1030D00002B080BD80B584B06149002008600390D3
:1030E0000290FFE70298062832D8FFE70298C20054
:1030F0006348811880584968FEF734FA00280FD0D9
:10310000FFE7029882005A490120885054480190F4
:1031100000687F21C905FCF7E7FF0199086005E019
:1031200002988200524900208850FFE702988200EE
:103130004F498958401C4843FDF784F901460398DC
:10314000FCF7D2FF0390FFE70298401C0290C9E70A
:10315000434800680021FDF73BF9002815D0FFE740
:10316000404800680021FDF733F9002804D1FFE74B
:103170003E4901200870FFE73F4800683D4908606C
:103180003A4800783D49087067E03648006836499B
:10319000FDF71EF900280CD1FFE7314800683249DD
:1031A000FDF716F9002804D0FFE730490220087027
:1031B000FFE72E480078012804D1FFE72B490020C3
:1031C0000870FFE72A480068002827D0FFE7284852
:1031D0004068002822D0FFE72548806800281DD0DD
:1031E000FFE72348C068002818D0FFE7204800699F
:1031F000002813D1FFE71E48406900280ED1FFE7E1
:103200001B488069002809D1FFE718480078032887
:1032100004D0FFE715490320087009E0134800783F
:10322000032804D1FFE7114900200870FFE7FFE7FA
:1032300003980B4900910968FCF7ECFF02460098DF
:103240000C490A6009680C4A116000680549086069
:103250000648007809490870FFE704B080BDC04601
:10326000F8042020F40420200000E0400202202086
:10327000100520203402202060012020010220209F
:103280002801202080B50748FEF75EFC0B2806D1F8
:10329000FFE70448FEF786FC0349087000E0FFE7FB
:1032A00080BDC046008010400405202080B582B05B
:1032B0002448FEF749FC0B2842D1FFE72148FEF7DE
:1032C00071FC014601A801701F4909786A46117016
:1032D00000780D2805D0FFE701A800780A2819D149
:1032E000FFE768460078012813DBFFE768460278AD
:1032F000164800218154164900F064FA002804D0D1
:10330000FFE7144901200870FFE7694600200870B4
:10331000FFE711E0684600781E2808DCFFE7019807
:103320006B461A78511C19700849885403E06946A5
:1033300000200870FFE7FFE7009803490870FFE7E7
:1033400002B080BD00001040300620203005202053
:10335000280220202402202080B588B00690059104
:103360000698002804D0FFE70598002804DCFFE752
:1033700007A9002008703AE000200490FFE70498B5
:10338000059988421BDAFFE70698049989004018DE
:10339000039000200290FFE7029803280ADCFFE771
:1033A00003980299405CFFF78BF9FFE70298401CF5
:1033B0000290F1E7FFE70498401C0490DFE7FF204C
:1033C000C005019000200090FFE7009803280ADC68
:1033D000FFE7009901A8405CFFF772F9FFE700984A
:1033E000401C0090F1E707A901200870FFE707A83B
:1033F000007808B080BD80B584B0039000F018F864
:103400000290039801900198401C002804D0FFE727
:103410000198401C0190FFE7FFE700F009F80299CE
:10342000401A0199884201D2FFE7F6E704B080BD57
:10343000044800687047C04602490868401C08609C
:103440007047C0463406202080B582B001900091BC
:103450000198002801D1FFE70BE000980078C00731
:10346000002806D0FFE701988047009900200870E7
:10347000FFE702B080BD80B584B003900291019255
:103480000398002801D1FFE70CE002980078C007FC
:10349000002807D0FFE70399019888470299002088
:1034A0000870FFE704B080BD81B001466846017036
:1034B00000214056002809D4FFE7684601781F2004
:1034C00001400120884020490860FFE701B07047B3
:1034D00081B001466846017000214056002809D499
:1034E000FFE7684601781F20014001208840164907
:1034F0000860FFE701B0704781B00146684601707F
:1035000000214056002809D4FFE7684601781F20B3
:103510000140012088400C490860FFE701B0704776
:1035200081B001466846017000214056002809D448
:10353000FFE7684601781F200140012088400249CA
:103540000860FFE701B0704780E200E081B001460B
:10355000684601700021405600280DD4FFE76846F8
:1035600001781F2001400120884004490860BFF312
:103570004F8FBFF36F8FFFE701B0704780E100E02E
:1035800081B001466846017000214056002809D4E8
:10359000FFE7684601781F2001400120884020494C
:1035A0000860FFE701B0704781B0014668460170CE
:1035B00000214056002809D4FFE7684601781F2003
:1035C00001400120884016490860FFE701B07047BC
:1035D00081B001466846017000214056002809D498
:1035E000FFE7684601781F200140012088400C4910
:1035F0000860FFE701B0704781B00146684601707E
:1036000000214056002809D4FFE7684601781F20B2
:1036100001400120884002490860FFE701B070477F
:1036200000E100E070B582B0024601A8027000918E
:1036300000214056002816D4FFE7002401A90857AE
:103640000322D3431840174A805809578C07E50EC8
:10365000FF24AC40A043009CA401E4B2AC40204352
:10366000194088501AE001A908780F242040083832
:103670000322D34318400A4A8058002549578D0732
:10368000EE0EFF25B540A843009DAD01EDB2B5405B
:1036900028432140083919408850FFE702B070BD27
:1036A0001CED00E000E400E080B584B00020039051
:1036B000FFE70398FF21F431884211DCFFE77348EC
:1036C00001683B480290C068FCF70EFD0299C86093
:1036D0000120FFF790FEFFE70398401C0390E8E706
:1036E00033480190C0680349FCF794FD0199C86014
:1036F00004B080BD0000FA4380B584B02C48C06897
:103700002C49FCF72DFE002807D1FFE72848C068A8
:103710002B49FCF7E9FC039015E02548C0682649D1
:10372000FCF73AFE002807D1FFE72148C06823498B
:10373000FCF7DAFC029003E01D48C0680290FFE746
:1037400002980390FFE703991948C160C0684F4988
:103750000968FCF71AFD01464E48816180691549E8
:10376000FCF70CFE002807D1FFE74A48806914499E
:10377000FCF7BAFC019015E0464880690E49FCF759
:1037800019FE002807D1FFE7424880690B49FCF782
:10379000ABFC009003E03F4880690090FFE7009891
:1037A0000190FFE701983B49886104B080BDC046A5
:1037B0002000202000003443000034C30000B44344
:1037C0000000B4C380B586B004900391049800282B
:1037D00004D0FFE70398002804D1FFE705A90020E3
:1037E000087018E0049802A900F088F803990860AE
:1037F0000299049A00209142019006D0FFE70298B6
:103800000078414248410190FFE7019801210840BA
:1038100005A90870FFE705A8007806B080BD000084
:1038200080B582B000200190FEF7B6FEFDF7FEFBEA
:10383000FDF722FDFDF7C6FBFDF704FCFFF734FFA3
:10384000FEF76AFFFFE7FFF745FCFFF755FFFDF7BF
:1038500047FAFFF76BF8FFF7A3F8FFF743F9FFF715
:103860004DFA084915310848FFF7EEFD0748016891
:10387000074801600749896941600221FFF76CFD33
:10388000E1E7C046B0002020BF3000002802202021
:1038900038062020000020202021020C01D0102119
:1038A0001046020A01D010460839020901D010461C
:1038B000091F820801D01046891E420801D0881EC7
:1038C0007047081A7047000002E008C8121F08C1BC
:1038D000002AFAD170470000704700000000000085
:1038E000002001E001C1121F002AFBD170473038CF
:1038F0000A2801D2012070470020704708B50A4607
:103900000021009101466846FCF7F0FD009808BDD3
:10391000DDDDDDDDDCBBBBDDDDDDDDDDDDDDDDDD1C
:10392000988888888888888877777777778888885C
:1039300085555556666666666666666666688888F4
:103940008333333222222222222222222228888DED
:1039500008000000FFFF0000000101000800000057
:1039600018000000003000000807000002000000FE
:103970003F0D0300010000000000000000000000F7
:1039800008000000112700000000010008000000EE
:1039900011270000000001000807090002000000D4
:1039A000A76100000100000000000000000000000E
:1039B0000807630002000000E703000001000000A8
:1039C00000000000000000000807090002000000DD
:1039D0004FC30000010000000000000000000000D4
:1039E0000800000008000000003000000100000096
:1039F00000000000000000000000000000000000C7
:103A000010000000000100000300000000000000A2
:103A10003400C441383A000000002020B801000002
:103A2000880C0000C03A0000B8012020D01400002B
:103A3000E038000000000000E10313803FD9149734
:103A40005E43B81ED540BBC0A6108CF628FC1C11E6
:103A50003480401929043301012B200A1C4A08082C
:103A6000021180392411191C4A102C9949A149448A
:103A70000212021918091053491809124949483904
:103A800072F93009125F19302997393859A039284D
:103A900019086A2018290939185A080829111A80A2
:103AA00018290C196B290829A419085A0434192A51
:103AB000210C11A086408919200915183100000039
:04000005000000C136
:00000001FF
