:020000040000FA
:10000000B0052020D5000000D9000000DB00000072
:1000100000000000000000000000000000000000E0
:10002000000000000000000000000000DD000000F3
:100030000000000000000000DF000000212100009F
:10004000E3000000ED190000E3000000E300000001
:10005000E3000000E3000000E3000000E300000014
:1000600000000000E3000000E300000000000000CA
:100070000000000099210000E30000007121000051
:10008000292100004D210000E3000000E3000000F2
:10009000E3000000E300000000000000000000009A
:1000A000E3000000E300000000000000000000008A
:1000B000E300000000000000E3000000E300000097
:1000C0000348854600F084FA00480047B924000040
:1000D000B005202003480047FEE7FEE7FEE7FEE705
:1000E000FEE7FEE7C1000000F8B502464A40D40F23
:1000F00042004B0052085B089A4202D20246084670
:1001000011464A0023D0C30D4A00DDB2120EAD1ACB
:10011000202D35DA49020126490AF6058A19002CF4
:1001200000D0524220214F1B1146B9402A411018DD
:10013000C20D9A4221D0002C17D0012D08DCDA051F
:10014000801AD20F8019D207DBB200F0A7F9F8BDF0
:10015000DA05801A012340001B06C01880185A4295
:100160008018CA0F1043490007E04908C20711432D
:10017000DA05801A80194008801800F087F9F8BD68
:1001800061000122511A001BF7E70122D2075140FA
:10019000AAE70122D2075040A6E7024670B54A40BE
:1001A000D30FDB0740002DD04A002AD0010E140ED9
:1001B000000212020919400A520A8418E501044695
:1001C0005443000A120A2E045043A4194219200C69
:1001D000C543AA18120C0125AD03521C5219120472
:1001E0007F39240400D0521C104301D44000491E22
:1001F000C2B20C06C0092018401C4008802A02D058
:1002000003E0002070BD40084000002900DA002013
:10021000184370BD70B502464A40D50F40004A00F1
:10022000ED0740085208002814D0002A12D0C40D4F
:10023000D30D41020120C0055202490A520AE41AB4
:10024000091812187D34914201D3641C00E0490062
:10025000002C01DA002070BD0023914201D3891ADD
:100260000343400849000028F7D100290AD09142F1
:1002700002D10121C90705E0914201D2012101E02B
:100280000121C943E005C018401900F0FFF870BD16
:10029000F0B51FB488B00B9909980024484009991B
:1002A000C00F490049080991C0070B990090490007
:1002B00049080B9109990898A64608431CD00B9948
:1002C0000A98084318D0099801244000420D4800BC
:1002D000410D099824050003000B204309900B9859
:1002E0000003000B20430B9050181C4940180022BB
:1002F00001901446104605E0002001460DB0F0BD07
:10030000032801DA034600E003239C46C11A0AAE23
:100310000AE05F0008ADED5B4F00F75B7D4300270F
:10032000AA187C41491C5B1E6145F2DD410004AB0B
:100330005A522104120C0A43240C401C0828DFDB0B
:10034000019802900099704601910090059B049AD3
:100350000799069800F0E8F8D0E700000DFCFFFFD1
:10036000C217C10F504010B54018CA07962300218C
:1003700000F094F810BDC20FD207400040080BD027
:10038000C10D0723DB01C91840020905400A1143CA
:10039000C208400711437047002001467047CB0F49
:1003A000DB07490010B5490802460A4307D00A0D89
:1003B00007240903E401090B121B002A01DC0020B9
:1003C00010BDC900440F0C43C100E018D2058018CD
:1003D00000F05CF810BD00000FB400B589B00A460B
:1003E0000DA9009100230C99002ACB60234B0693A2
:1003F000234B079301D0042300E00023214A0292FB
:10040000214A0892019302466B46002000F0AFF9A2
:1004100009B008BC04B01847F0B585B00746002005
:10042000C04301901E46002015460C4600910291E3
:1004300004903B466A46314604A8FFF7CDFF049975
:1004400002466018002D05D0002901D0034600E0C7
:1004500023462B6000290ED0002A02DD009981423C
:1004600009D0001B019000943B466A463146029435
:1004700004A8FFF7B1FF05B0F0BD0000C5090000FA
:10048000E5090000FFFFFF7F43060000002904DAB2
:10049000401C490001D140084000704770B400245E
:1004A000050C05D11024000402D1002921D011240B
:1004B000050E01D100020834050F01D10001241DF1
:1004C000850F01D18000A41C002801DB4000641CC2
:1004D000002908D020252E1B0D46F540A14000D054
:1004E00001212943084301061B1B000ADB1D02D51D
:1004F000002070BC7047DB05181880180029F8DA56
:10050000401C4900F5D170BC40084000704710B550
:10051000002B08DA0024401C614192185B411A4309
:1005200001D14008400010BDF0B51FB482B00546AF
:100530000C0003D0084602F005F802E002F002F8D1
:100540002030024600902146284600F059F8049BCE
:10055000059A04460F4618431143084314D0184621
:1005600010431BD0009840210A1A1846059900F044
:1005700057F805460E46009A0599049800F040F891
:10058000084305D0012004E02046394607B0F0BDFD
:100590000020C11705430E432C43374300990E98A2
:1005A0006305401A7905E40A00220C43FD0A0A306B
:1005B00002D500200146E9E70105101969410C9CAC
:1005C0000D9D00196941FFF7A2FFDFE70000000061
:1005D0001CB5094800900948019005460126009C79
:1005E00005E0E36807CC33430C3C98471034AC4239
:1005F000F7D3FFF769FD0000C4260000E4260000E1
:1006000010B5202A04DB0146203A9140002010BD9D
:10061000914020239C1A0346E3401943904010BDAB
:1006200010B5202A04DB0846203AD040002110BD36
:100630000B46D340D0402024A21A914008431946CB
:1006400010BD10B50F21C0B2490200F0F5F910BD80
:10065000FFB5087889B01546FF2805D0491C2D281C
:1006600004D00022002407E000240BE00122F9E777
:100670000A235C430419491C0878FF28F8D1002A92
:1006800000D06442002004902A7801462D2A01D02F
:100690002B2A0FD16D1C2D2A02D00022049209E0D2
:1006A0000122FBE700260A2233466D1C00F0ACF95C
:1006B000381871412F78FF2FF4D10C9AA2180692A6
:1006C00002460A4304D0FF23069A9133DA4205DA40
:1006D000002109980A4606C00DB0F0BD0024B74AB3
:1006E000B54D2646079200F031FA02900698039124
:1006F000002801DA474200E0074639050020AF4AEA
:10070000001C51410191009012E0F80707D02246E9
:100710002B4630460799FFF7BBFD06460791224658
:100720002B4610461946FFF7B3FD04460D467F10D1
:10073000002FEAD10698019B0028009A039902989D
:1007400006DA00F08BF93246079B00F087F905E0E6
:10075000FFF79EFD3246079BFFF79AFD049A002A99
:1007600002D00122D2075140099A03C2B4E7FFB573
:1007700091B0002009900025ED432E209E685C6812
:100780001F460190B9696D1C129888470090396A1C
:1007900088470028F6D10098401C0AD00D20C001DF
:1007A0008443002E12DD00982B2809D02D280DD16E
:1007B00003E00020C04315B0F0BD012080020443D7
:1007C000B9696D1C12988847761E009003A96005D0
:1007D00001D52D2000E02B206A461073491C0CA87F
:1007E0000F9102900AE0B9696D1C12988847009039
:1007F0000120400204431398761E0560002E02DD9E
:1008000000983028EFD001990098884245D1802087
:10081000044308E00998401E099001204002044367
:100820001399681C0860B9696D1C761E1298884778
:1008300000903028EED030E00199884205D12006A2
:1008400003D480200443761E1DE0009801F0B2FE20
:10085000002825D0012149020C43009807AA0F99CE
:1008600003323038761E914208D208700F98401C2F
:100870000F90200607D50998401E03E0200602D4F9
:100880000998401C0990A00502D51399681C0860BE
:10089000B9696D1C129888470090002ECCDC59E095
:1008A000002E57DD0098652801D0452852D1A005BB
:1008B00050D5032000028443B9696D1C761E12983E
:1008C00088470090002E0CDD2B2804D02D2808D15D
:1008D000FF2001300443B9696D1C12988847761EC9
:1008E0000090E00501D52D2100E02B210298017038
:1008F0000298401C0290019025E001204002044330
:100900000EA902980131761E88420ED200980299F3
:1009100030380006000E087003D102990198814218
:100920000AD90298401C029006E0E00501D524484F
:1009300001E0234840420990B9696D1C129888472C
:10094000009013980560002E04DD009801F032FE3F
:100950000028D2D1F969129888470F99FF200870B2
:10096000029903AA087000200A900B900CA90AA80B
:10097000099BFFF76DFEA00502D40120C0431AE7D2
:100980002420044209D0E00713D138680B9A0A9951
:10099000031D3B60006806C00BE00B990A98FFF747
:1009A000FEFC0146E00704D13868021D3A60006889
:1009B00001602846FFE60000000014400000F03F00
:1009C000F1D8FFFF4268002A08D001680B78491C63
:1009D000002B03D0521E06C0184670470121C1608B
:1009E000881E70474268002A0BD0C3680168002B3C
:1009F00007D183688B4204D0491E521C06C00020D8
:100A000070470020C043704730B5434351435C18E2
:100A1000010C130C0D465D432C1980B292B20546B1
:100A2000554351430A0C09044D1962415843010CC6
:100A300000044019514130BD7F2801D9002207E050
:100A4000054B42089A5CC00700D112091207120F29
:100A50000120904008407047EE250000F0B50C469C
:100A60005C4085B0E40FE40703944C000026640862
:100A700059009446490802460296224321D0624614
:100A80000A431ED06200570D4A000E032303550D82
:100A9000012402462C492405781B1B0B360B4018F9
:100AA00023432643614600901C46501AB44103D3A9
:100AB0000098401C009002E0921800985B410028CA
:100AC00003DA0020014605B0F0BD00200121090530
:100AD0000746864611E064461D46141BB54106D301
:100AE0006546521BB341744607430C43A646CD07E7
:100AF00040084908284392185B4105460D43EAD156
:100B00001046184313D060461946504071400843C0
:100B100006D06046101AB34106D20122002306E037
:100B200000220123DB0702E00122D2435310009888
:100B300074460105381C6141029C039D00196941FE
:100B4000FFF7E5FCBFE70000FD0300000EB5054A16
:100B500002920022009213460192FFF7E5FC03B0D7
:100B600000BD00003304000010B588B000200790DD
:100B7000FFE70798042800D9E3E0079818220492B9
:100B800042437148059081188058496800F094FBF1
:100B9000049902460598531E9A4106AB1A70079AAB
:100BA00051434018007CC007002811D1FFE706A878
:100BB0000078C00700280BD1FFE7079818214143B0
:100BC00061484018807D01210840012815D0FFE7C9
:100BD0000798182141435C484018407D0121084096
:100BE00001280AD0FFE707981821414356484018CA
:100BF000007DC007002809D0FFE70798182141436E
:100C000051484118002048610861FFE70798182102
:100C100041434D484018007CC007002822D1FFE71F
:100C200006A80078C00700281CD0FFE70799182203
:100C3000029210464843444903910B1801209875CD
:100C4000079C13466343CB185874079B5A43891873
:100C5000C87401F04FFB029A0399079B5A43891805
:100C60008860FFE707981821414337484018007C07
:100C7000C007002818D0FFE706A80078C0070028A2
:100C800012D1FFE707981821009141432E480190A7
:100C900041180120887401F02DFB009A0199079BEF
:100CA0005A438918C860FFE707981821414326482E
:100CB0004018807DC007002834D1FFE7079818212D
:100CC000414321484118C8688968884201D1FFE73B
:100CD00027E00798182141431B484118C8688968D4
:100CE000401AC7280ED8FFE7079818210A46424342
:100CF0001548831801225A75079A5143411888688C
:100D0000C8600DE0079818210A4642430E48831830
:100D100001221A75079A514341188868C860FFE795
:100D2000FFE7FFE706A80078079918224A4306491B
:100D30008918012210400874FFE70798401C0790AB
:100D400017E708B010BDC0464C00202080B586B023
:100D500000200590FFE70598012828D8FFE70598AF
:100D6000242102914143E0480390405601F00EFBDC
:100D700002990398059A5143401801210491405665
:100D800001F004FB02990398059A5143405601F083
:100D90003BFB029A03980499059B5A4380184056DE
:100DA00001F032FBFFE70598401C0590D3E71020C7
:100DB000019001F0EBFA019801F026FB06B080BD2E
:100DC00080B582B01120019001F0B8FA019801F0CD
:100DD000F3FA02B080BD000081B000200090FFE770
:100DE0000098012815D8FFE7009818224243864949
:100DF00089180301084AD018D2588A60C2684A612B
:100E000082680A614068C860FFE70098401C009053
:100E1000E6E701B07047C046C400202080B592B01C
:100E2000024611A8027010AA11800078022801D38E
:100E3000FFE7DEE0002110A8405E01282CDBFFE781
:100E4000002110A8405E6C49884225DCFFE711A80C
:100E50000D90007818210E9141436B480F90411876
:100E60008868C96800F062FA0D9A0E990F98127896
:100E7000514341180869496900F084F90D9A0E99A7
:100E80000F981278514342184058002310A9C95EA8
:100E9000127900F0BBFCACE0002110A8405E57497D
:100EA000884223DBFFE711A80A90007818210B91F4
:100EB000414355480C9041188868C96800F036FADB
:100EC0000A9A0B990C98127851434118086949699C
:100ED00000F058F90A990B9A0C9809784A4381183E
:100EE00080580A79454900F091FC81E0002110A862
:100EF000405E00282DD5FFE7002110A8405E404944
:100F0000884226DBFFE711A8079000781821089196
:100F100041433D48099041180869496900F006FAC3
:100F2000079A089909981278514341188868C96846
:100F300000F028F9079A0899099812785143421845
:100F40004058002310A9C95E4942127900F05EFCA6
:100F50004DE0002110A8405E2A49884223DCFFE7CB
:100F600011A8049000781821059141432648069065
:100F700041180869496900F0D9F9049A0599069859
:100F80001278514341188868C96800F0FBF8049949
:100F9000059A069809784A43811880580A791749B2
:100FA00000F034FC22E011A8019000781821029191
:100FB00041431548039041188868C96800F0B6F9A4
:100FC000019A0299039812785143411808694969B6
:100FD00000F0ACF90199029A039809784A43811804
:100FE00080580A79002100F011FCFFE7FFE7FFE7D6
:100FF000FFE712B080BDC0460F2700001027000099
:10100000F1D8FFFFF0D8FFFFE400202080B582B0C8
:101010000F20009001F0A6F9009801F0E1F90D20F1
:10102000019001F09FF9019801F0DAF902B080BD5A
:1010300010B586B000200590FFE70598012851D82B
:10104000FFE7059824210291414327480390401867
:101050004069FFF785F92549FFF7DCF82449FFF7D8
:10106000D9F8029A0146039804910499059B5A43C2
:1010700080180090C069FFF737F80099C86104989C
:101080001C49FFF78AF81C49FFF7C4F8029A014689
:101090000398059B5A4380180190006AFFF724F8D3
:1010A000019908620498FFF766F9144A144BFFF798
:1010B000EFF801229207134BFFF7EAF8FFF76FF9F9
:1010C000029902460398059C0B466343C3189A6134
:1010D000059A5143411800204861FFE70598401CDC
:1010E0000590AAE706B010BD040020200000364499
:1010F000CDCC4C3D9A99D9400000C842182D44549B
:10110000FB21094033331B40811E091F00BFFCD265
:10111000704784B003900291019203980068009098
:10112000009801998843009000980299019A114013
:1011300008430399086004B07047000082B0019032
:101140000091009B0199094A88581843885002B0C1
:101150007047C04682B001900091009B0199034AFC
:1011600088581843885002B07047C04648100000A5
:1011700082B0019000910098019995225201885007
:1011800002B0704782B001900091009801999522B9
:101190005201885002B0704782B001900091009BCC
:1011A0000199034A88581843885002B07047C046D6
:1011B0002810000082B00190009100980199024A25
:1011C000885002B07047C046D012000081B0009035
:1011D00000990120C2020248885001B07047C04601
:1011E0000100002682B00190009101980249405808
:1011F0000099084002B070473810000010B584B064
:10120000069C039002910192009302980199084371
:101210000099084306990843034908430399890044
:10122000244A885004B010BD8100040081B00090B1
:10123000009881001F4A8120885001B07047C04645
:1012400010B584B0069C039002910192009302981D
:1012500001990843009908430699084381210843EE
:1012600003998900134A885004B010BD81B00090E2
:10127000009881000F4A0020885001B07047C04696
:1012800082B00190009100980349084301998900B8
:10129000084A885002B070478000040082B0019074
:1012A000009100988021084301998900014A8850E3
:1012B00002B070470480424082B0019000910198D2
:1012C0002721C90140580099084002B0704782B0F8
:1012D0000190009101982721C901405800990840C8
:1012E00002B0704781B000900099024A02488850CD
:1012F00001B0704704080000030000B182B0019003
:101300000091009B0199034A88581843885002B005
:101310007047C0469013000082B001900091009881
:101320000199074A885002B07047C04682B00190C8
:10133000009100980199024A885002B07047C04657
:101340009012000082B001900091009B01999D20B5
:10135000420188581843885002B0704782B001900B
:10136000009100980199024A885002B07047C04627
:10137000B0120000F0B584B001242202344B196889
:101380000392914319606A490D686D04FCD5457E4E
:1013900025409E69A64374199C612024045D0325A1
:1013A0002C40DE69AE433419DC611F4C25680526EC
:1013B0002660466A37681F6276685E6207262E409E
:1013C0002660C4697F252D02DE69AE436406640C85
:1013D0003419DC610768456882680092C668026952
:1013E0000192426902929A69104C14403A07120B1A
:1013F0002D03ADB2AA183243009D2D072D0D1543C4
:10140000019A1543029A1543007E2843084A024078
:10141000101998611868039A1043186008688005CD
:10142000FCD504B0F0BDC046001340408D00F0FF75
:1014300072FF0F0006490868012290430860704758
:101440000349086801221202904308607047C046B1
:1014500008010B4081B001466846017000780249DE
:10146000086001B07047C04608030B4080B582B0E9
:10147000014601A8018001880F2002022B48FFF7D6
:1014800048FE02B080BDC046F0B5124B1D46083D77
:101490002E680124A6432E600326360330401F68C1
:1014A000B743381818601868FF26B043C9B240180F
:1014B000186028682043286018682107002A06D091
:1014C000084318601A480168C905FCD5F0BD884377
:1014D0001860F0BD10010B4080B582B0014601A834
:1014E0000170017802480322FFF713FE02B080BDAD
:1014F00000010B4080B582B0014601A8017001785F
:101500000A483022FFF705FE02B080BD0749886017
:10151000074802689202FCD5012212040B681343AB
:101520000B600168C906FCD57047C04604010B403A
:1015300004020B4082B00190009100980199D24AB8
:10154000885002B07047C04682B001900091009868
:101550000199CD4A885002B07047C04681B00090D2
:101560000099024A0120885001B07047081100001C
:1015700082B001900091009B0199D04A885818438D
:10158000885002B07047C04681B000900099012099
:10159000C202D048885001B07047C04681B0009068
:1015A0000098812149014058C0B201B0704781B014
:1015B00000900098812149014058C0B201B07047A5
:1015C000F0B5AA4A82183B4BC31808794E793A4DB8
:1015D000774C002E23D0202804D00526F6010028C1
:1015E00003D003E0354E002800D18826576F2F40E6
:1015F00037435767976F2F4037439767566B26409F
:101600005663966B264096630026566596658F2630
:10161000F6435F6837405F609F6837409F608E7910
:10162000096820280BD0002819D1491E5160D76EB7
:101630002F4088210F43D7661746703719E0491E9F
:101640005160D16E29401D4F3943D166116F294039
:101650003943116701214907194D174609E0490827
:101660005160D76E2F400521C9010F43D766174639
:1016700070373C682C400C433C60D16A4C4C214094
:10168000D162116B214011630021D16411658F215A
:10169000C943D46F0C40D4671C680C401C600643DF
:1016A000BD2030401168074B0B40C018801C1060F3
:1016B000F0BDC0468418000024493E00010400002B
:1016C000FFFFFFCF4000FFCFB0B54A68364BC25096
:1016D000664A80180A78222A58D8930001A4E35851
:1016E0009F46C046831700008D1700008317000037
:1016F0008D1700008D1700008D1700008D1700005A
:101700008D1700008D1700008D1700008D17000049
:101710008D1700008D1700008D1700008D17000039
:101720008D170000711700008D1700007117000061
:101730008D1700008D1700008D1700008D17000019
:101740008D1700008D1700008D1700008D17000009
:101750008D1700008D1700008D1700008D170000F9
:101760008D170000711700008D1700007117000021
:1017700003231B0704689C4301235B07E3180360F2
:1017800004E003231B0704689C4304600B69C360E7
:10179000CB68064C1C40C36A054D1D402B19C36223
:1017A000097A11430160B0BD081800007777020084
:1017B0008888FDFF81B000900099674A674888508B
:1017C00001B0704782B001900091009801991122F8
:1017D0001202885002B0704710B507239B041940CD
:1017E00092008018024A84589C436118815010BDB1
:1017F0003018000010B5029CA400001911431943D1
:10180000014A815010BDC046501800009200801857
:10181000014A81507047C0461018000010B50122DF
:10182000120383180C789C604B7883508978014AA6
:10183000815010BD0C11000010B586B001930B460D
:1018400001460198059104A90B8003AB1A8002AAF6
:1018500010800598054C001909881B8819431288C7
:101860001143034AFFF755FC06B010BD04180000F1
:1018700080FF000082B00190009100980199024A17
:10188000885002B07047C0464810000081B00090F8
:10189000009911200202885801231843885001B092
:1018A0007047000082B001900091009B0199034AAB
:1018B00088581843885002B07047C046281000006E
:1018C00081B0009000990120C2020248885001B006
:1018D0007047C0460100002681B000900098812129
:1018E00049014058C0B201B070470000B0B51122A4
:1018F000120283580124A34383500B888C781C4325
:101900008B882343094C1C408358094D1D406319A3
:1019100083508B79CC791C43097A21437E2319406B
:10192000801842689A4351184160B0BD18670000A2
:10193000E798FDFF81B00090009802494058C0B27E
:1019400001B070472411000081B000900099024A54
:101950000248885001B0704704080000030000B13D
:1019600080B584B003900291019203980B4940180E
:101970000299834AFFF7CDFB039809494018019962
:101980003F22FFF7C6FB0399064A881889580122AF
:101990001140FFF7BEFB04B080BDC046101100002F
:1019A000141100000411000010B501221203831865
:1019B0000C789C604978815010BD80B582B0019050
:1019C0000091019811210902401800990322D203C5
:1019D000FFF79FFB02B080BD034A80180268120621
:1019E000FCD481617047C0460811000080B588B002
:1019F00000200790FFE70798012800D981E00798A9
:101A0000242105914143404806904118486889685F
:101A1000FFF7E8FB059A0699079B5A4389188968DE
:101A2000084088421FD1FFE70798242141433648E8
:101A30004118C8680969FFF74AFC002809D1FFE787
:101A4000079824214143304841184869401C4861A7
:101A500008E00798242141432B4841184869401E5B
:101A60004861FFE734E00798242103914143264869
:101A700004904118C8680969FFF7B4FB039A0499F8
:101A8000079B5A4389180969084088421FD1FFE71C
:101A90000798242141431C48411848688968FFF78A
:101AA00016FC002809D1FFE7079824214143164876
:101AB00041184869401E486108E0079824214143C5
:101AC000114841184869401C4861FFE7FFE7FFE7FC
:101AD00007982421019141430B480290411848681E
:101AE0008968FFF737FB01990298079A514341181B
:101AF000C8680969FFF72EFBFFE70798401C0790AD
:101B000079E708B080BDC0460400202080B50120E0
:101B10008105A948FFF722FC80BDC04680B584B08E
:101B2000144915480390FFF779FE03981349FFF70E
:101B300047FD03980023029319461A46FFF77CFEDF
:101B4000029B0398009310221946FFF753FE029A56
:101B500003981146FFF740FE029A03980849FFF7E1
:101B600055FE0398FFF7FAFC03980121FFF72AFEC0
:101B700004B080BD2E260000000086403426000000
:101B8000FFFF000080B582B00E490F480190FFF7BB
:101B90000BFF01980D49FFF7A9FE01980021FFF7FF
:101BA0000CFF0198412189001B22FFF7D9FE019803
:101BB00001218902FFF776FE0198FFF767FE02B068
:101BC00080BDC0463C260000008010403E2600003C
:101BD00080B58EB00920FFF749FB0A20FFF746FBCE
:101BE000062004210191FFF759FB019971480990E2
:101BF000FFF7E0FA252005210291FFF74FFB099836
:101C000001210A9109040691FFF7D4FA02992D20C7
:101C1000FFF744FB09980A994905FFF7CBFA14200E
:101C200002210391FFF73AFB03991520FFF728FBE8
:101C300003991320FFF724FB069A002307930093D0
:101C400031201946FFF7FCFA07990A98009181069E
:101C5000049142040592C30408933720FFF7CEFA9B
:101C60000499059A0798089B00902320FFF7C6FA6D
:101C70000499059A0798089B00902420FFF7BEFA64
:101C80000499059A0798089B00902620FFF7B6FA5A
:101C90000499059A0798089B00903320FFF7AEFA45
:101CA0001F20FFF7C3FA2020FFF7C0FA0E20FFF72E
:101CB000BDFA0F20FFF7BAFA079A089B009232206C
:101CC0001146FFF79BFA079A089B009239201146AC
:101CD000FFF794FA079A089B009221201146FFF71C
:101CE0008DFA079A089B009216201146FFF786FA94
:101CF000059A0799089B00911020FFF77FFA059A33
:101D00000799089B00911C20FFF778FA059A07991C
:101D1000089B00912A20FFF771FA059A0799089B02
:101D200000911120FFF76AFA059A0799089B009124
:101D30001D20FFF763FA069A0799089B00912C2053
:101D4000FFF75CFA079A089B009230201146FFF7D4
:101D500055FA09980A990906FFF7D0FA09980A99DD
:101D600009030B91FFF7EAF909980B99FFF714FAA9
:101D70000A988105CC480C90FFF7FAF90C980F49A6
:101D8000FFF7CAFA0C980E49FFF714FA0B990C9852
:101D9000FFF7B4FA0C980B49FFF7D4FA0C980A49EC
:101DA0000D91FFF7CBF90C980D99FFF7F5F90EB0EF
:101DB00080BDC04600000A4000200A400C8001009F
:101DC0000C804100004040004000800880B582B097
:101DD0000A49E6480190FFF721FD01980849FFF7FD
:101DE00073FC01980121FFF7C3FB1120032100F0D0
:101DF00021FB0198FFF7B2FB02B080BD482600002E
:101E00004C26000080B584B01649A8480390FFF71F
:101E100005FD03981449FFF7D3FB039801220292B2
:101E2000510392028023FFF707FD02990398009166
:101E30001022002301931946FFF7DCFC0199029A56
:101E40000398FFF7C9FC029A03982249FFF7DEFCCA
:101E50000398FFF783FB03980221FFF7B3FC04B05C
:101E600080BDC046602600006426000080B584B0B6
:101E700016498F480390FFF7D1FC03981449FFF7E8
:101E80009FFB039801220292510392028023FFF7E5
:101E9000D3FC029903980091102200230193194664
:101EA000FFF7A8FC0199029A0398FFF795FC029AA4
:101EB00003980849FFF7AAFC0398FFF74FFB039824
:101EC0000221FFF77FFC04B080BDC0466C260000F5
:101ED000702600001127000080B582B00F49D94854
:101EE0000190FFF761FD01980D49FFF7FFFC019894
:101EF0000021FFF762FD019815212D22FFF730FD2B
:101F0000019801218902FFF7CDFC0D20022100F08C
:101F100091FA0198FFF7BAFC02B080BD7826000064
:101F20007A26000080B582B000200190FFF792FA77
:101F3000012000904002FFF799FA0198FFF7CCFAD0
:101F4000FFF778FAFFF77CFA009A032000030A21D2
:101F5000FFF79AFA0748FFF70DFA1020FFF7CAFAC1
:101F60000198FFF7D3FA0098019900F063FA02B0E4
:101F700080BDC0468426000080B5024800F0A8F865
:101F800080BDC0468038010080B582B00A496E48E5
:101F90000190FFF743FC01980849FFF795FB019872
:101FA0000121FFF7E5FA1020022100F043FA019821
:101FB000FFF7D4FA02B080BDAC260000B0260000C6
:101FC00080B500F029F8FFF703FEFFF7ABFFFFF73E
:101FD00019FFFFF74BFFFFF7A1FDFFF7F7FEFFF734
:101FE000D3FFFFF7CFFDFFF777FFFFF7C5FF0649E8
:101FF0009C22002088540549B823C8540449C85479
:102000000449885480BDC0467C0220201C03202047
:1020100020012020DC01202080B58AB021480190D9
:10202000FFF760F920480290FFF75CF91F48039022
:10203000FFF7C0FB1E480490FFF7BCFB1D4805904E
:10204000FFF7B8FB49480690FFF7B4FB3E480790FE
:10205000FFF7B0FB4E480890FFF776FC79480990EF
:10206000FFF772FC0198FFF7B1F80298FFF7AEF89E
:102070000398FFF789FA0498FFF786FA0598FFF7A7
:1020800083FA0698FFF780FA0798FFF77DFA089819
:10209000FFF716FC0998FFF713FC1020FFF734F840
:1020A0000AB080BD00000A4000200A4000A086401F
:1020B000002086400000864080B582B0014601A81D
:1020C000017001783248FFF787FC02B080BDC0463E
:1020D00080B584B002900298401E000E002803D004
:1020E000FFE70120039011E00298401E09490860B3
:1020F00000200190C043032100F09CF9019806499B
:102100000860064A072111600390FFE7039804B0B6
:1021100080BDC04614E000E018E000E010E000E000
:1021200080B500F0EBF880BD80B50748FFF73FFAB7
:10213000012807D1FFE7FEF77BFF03480121FFF7E6
:1021400003FA00E0FFE780BD0040084080B5074883
:10215000FFF724FA012807D1FFE7FEF705FD034842
:102160000121FFF7E7F900E0FFE780BD008086402E
:1021700080B50748FFF7B0FB0B2806D1FFE70448FE
:10218000FFF7D8FB0349087000E0FFE780BDC046B9
:1021900000801040D803202080B586B02948FFF782
:1021A0009BFB059005980B2844D1FFE7254802903A
:1021B000FFF7C0FB0146029804AA039211700B219D
:1021C000FFF758FB039800780D2805D0FFE704A817
:1021D00000780A281BD1FFE71B480078012815DB8F
:1021E000FFE71948009002781848002101918154B6
:1021F00000F0E7F9FEF7D3F8009902460198CF4BBB
:102200001A60134B01221A700870FFE711E00E48A4
:1022100000787E2808DCFFE704980B4B1A78511CE5
:1022200019700A49885403E0074900200870FFE745
:10223000FFE704E005990348FFF71CFBFFE706B042
:1022400080BDC0460000104059042020D903202042
:102250001801202080B588B00690059106980028C6
:1022600004D0FFE70598002804DCFFE707A9002059
:1022700008703AE000200490FFE70498059988422E
:102280001BDAFFE7069804998900401803900020A4
:102290000290FFE7029803280ADCFFE703980299FF
:1022A000405CFFF709FFFFE70298401C0290F1E74E
:1022B000FFE70498401C0490DFE7FF20C005019071
:1022C00000200090FFE7009803280ADCFFE7009950
:1022D00001A8405CFFF7F0FEFFE70098401C00906B
:1022E000F1E707A901200870FFE707A8007808B008
:1022F00080BD0000044800687047C0460249086875
:10230000401C08607047C0465C04202080B582B045
:10231000019000910198002801D1FFE70BE000989F
:102320000078C007002806D0FFE701988047009991
:1023300000200870FFE702B080BD000081B00146B8
:102340006846017000214056002809D4FFE768461E
:1023500001781F2001400120884016490860FFE7EE
:1023600001B0704781B001466846017000214056B7
:10237000002809D4FFE7684601781F2001400120AA
:1023800088400C490860FFE701B0704781B0014602
:102390006846017000214056002809D4FFE76846CE
:1023A00001781F2001400120884002490860FFE7B2
:1023B00001B0704780E200E081B0014668460170DC
:1023C00000214056002809D4FFE7684601781F2005
:1023D00001400120884016490860FFE701B07047BE
:1023E00081B001466846017000214056002809D49A
:1023F000FFE7684601781F200140012088400C4912
:102400000860FFE701B0704781B00146684601707F
:1024100000214056002809D4FFE7684601781F20B4
:1024200001400120884002490860FFE701B0704781
:1024300000E100E070B582B0024601A80270009190
:1024400000214056002816D4FFE7002401A90857B0
:102450000322D3431840174A805809578C07E50ECA
:10246000FF24AC40A043009CA401E4B2AC40204354
:10247000194088501AE001A908780F242040083834
:102480000322D34318400A4A8058002549578D0734
:10249000EE0EFF25B540A843009DAD01EDB2B5405D
:1024A00028432140083919408850FFE702B070BD29
:1024B0001CED00E000E400E080B586B0002005904F
:1024C000FFF77EFDFEF77CFCFEF7A0FDFEF73EFC6D
:1024D000FEF782FCFFE77D20010101910020FEF75D
:1024E0009DFC019901200490FEF798FC114902918E
:1024F000143111480390FFF709FF029903982A311C
:10250000FFF704FF029903984131FFF7FFFE02999C
:1025100003985C31FFF7FAFE029903987231FFF7D6
:10252000F5FE04990548026805480260FFF792FE2F
:10253000D1E7C0464C0020200D1B00001C012020CC
:10254000600420202021020C01D010211046020A34
:1025500001D010460839020901D01046091F82082F
:1025600001D01046891E420801D0881E7047081A03
:1025700070470000014800687047000000002020FC
:1025800002E008C8121F08C1002AFAD170470000F3
:102590007047000000000000002001E001C1121F90
:1025A000002AFBD170470000014908607047000015
:1025B0000000202030380A2801D201207047002076
:1025C000704730B583B00446FFF7D4FF05460020BE
:1025D000009002460190012321466846FDF71CFF4A
:1025E0002846FFF7E1FF0199009803B030BDDDDD1B
:1025F000DDDDDCBBBBDDDDDDDDDDDDDDDDDD9888EA
:1026000088888888888877777777778888888555D5
:10261000555666666666666666666668888883334B
:10262000333222222222222222222228888D0800CE
:1026300000000000FFFF0000000101000800000092
:1026400018000000003000000800630002000000D5
:102650007F3E0000010000000000000000000000BC
:102660000800000011270000000001000800000021
:102670001127000000000100080000000800000011
:102680000030000001000000000000000000000019
:102690000000000000000000100000000001000029
:1026A00003000000000000003400C441080763007C
:1026B00002000000C309000001000000000000004B
:1026C00000000000E82600000000202018010000A3
:1026D0008025000000280000180120209804000038
:1026E000982500000000000000000000010100002B
:1026F00000200A400000000800200A40000080007E
:1027000000000000000000000000000000000000C9
:102710000101000000000A400010000000200A40F3
:102720004000000000000000000000000000000069
:102730000000000000200A4000000002000000002D
:1027400000000000000000000000000000000A403F
:1027500000800000000000000000000000000000F9
:102760000000000000000A400040000000000000DF
:1027700000000000000000000000000000200A40EF
:102780000000000100000000000000000000000048
:102790000000000000000A400000020000000000ED
:1027A00000000000000000000000000000200A40BF
:1027B0000000010000200A400080000000200A40C4
:1027C0000400000000200A400800000000A086402D
:1027D00001000000000000000000000000000000F8
:1027E0000000000000208640010000000000000002
:1027F00000000000000000000000000000000000D9
:04000005000000C136
:00000001FF
